:100000000C9401020C9429020C9429020C942902EC
:100010000C9429020C9429020C9429020C942902B4
:100020000C9429020C9429020C9429020C942902A4
:100030000C9429020C9429020C9429020C94290294
:100040000C94150D0C9429020C94E30C0C94BD0C2B
:100050000C9429020C9429020C9429020C94290274
:100060000C945F0D0C94290208000000BE922449F4
:10007000123EABAAAA2ABECDCCCC4C3E00000080DA
:10008000BEABAAAAAA3E00000000BF000000803F4D
:100090000000000000084178D3BB4387D1133D190D
:1000A0000E3CC3BD4282AD2B3E68EC8276BED98F3A
:1000B000E1A93E4C80EFFFBE01C4FF7F3F0000007E
:1000C000000007634236B79BD8A71A39685618AEA6
:1000D000BAAB558C1D3CB7CC5763BD6DEDFD753E7D
:1000E000F6177231BF000000803F000000002500BD
:1000F00028002B0000000000240027002A00646F65
:100100006E6521005761697420666F72204D6F64BF
:1001100062757352545520636F6E666967757261BC
:1001200074696F6E2E2E2E0046494C544552204F56
:1001300046460031782074656D7065726174757221
:1001400065202F2031782068756D69646974792085
:100150002F203178207072657373757265206F7609
:10016000657273616D706C696E6700464F524345EE
:1001700044204D4F444500576561746865722053B3
:10018000746174696F6E205363656E6172696F008C
:10019000436F6D6D756E69636174696F6E20657311
:1001A0007461626C697368656421004944206F66FC
:1001B00020307846462070726F6261626C79206DE3
:1001C00065616E73206120626164206164647265A0
:1001D00073730053656E736F724944207761733A8D
:1001E000307800436865636B20776972696E672CAD
:1001F00020616464726573732C2073656E736F7213
:100200002049442100436F756C64206E6F74206632
:10021000696E6420612076616C696420424D4532CC
:1002200038302073656E736F7200536F6674776138
:1002300072652076657273696F6E3A2000424D4593
:1002400032383020574541544845522053454E538B
:100250004F5220424F4152442057495448204D4F5D
:10026000444255532052545500206269742F730044
:100270005374617274206D6F646275732F7365724D
:1002800069616C20617420002025004162736F6CED
:1002900075746548756D69646974792E2E2E200019
:1002A00020EFBFBD430048656174496E6465782ED8
:1002B0002E2E2E2E2E2E2E2E2E200020EFBFBD43B2
:1002C00000446577506F696E742E2E2E2E2E2E2EC2
:1002D0002E2E2E2E200020EFBFBD43005765742028
:1002E00074656D70657261747572652E2E2E2E2088
:1002F0000020250048756D69646974792E2E2E2EB4
:100300002E2E2E2E2E2E2E20002068506100507290
:100310006573737572652E2E2E2E2E2E2E2E2E2E7A
:100320002E200020EFBFBD43004472792074656D1C
:1003300070657261747572652E2E2E2E20002073EA
:1003400065632E00526566726573682074696D6519
:100350002E2E2E2E2E2E2E200053656E736F7220A1
:1003600076656E74696C6174696F6E2069733A208A
:10037000494E4143544956450053656E736F722090
:1003800076656E74696C6174696F6E2069733A206A
:100390004143544956450053656E736F722076652C
:1003A0006E74696C6174696F6E2069733A20494E8E
:1003B000414354495645000000000023002600290F
:1003C00000040404040404040402020202020203FE
:1003D0000303030303010204081020408001020408
:1003E000081020010204081020000000080002018B
:1003F00000000304070000000000000000007E0E63
:10040000601D11241FBECFEFD8E0DEBFCDBF13E0CB
:10041000A0E0B1E0E0E0FAE402C005900D92A23461
:10042000B107D9F725E0A2E4B3E001C01D92AC33D7
:10043000B207E1F711E0C0E0D2E004C02197FE016D
:100440000E94B923CF3FD107C9F70E94CE0E0C946A
:10045000F3240C940000CF92DF92EF92FF92CF939F
:100460006B017C01C42FE0914904F0914A0482E0C1
:100470008083C11481EED806E104F104A1F060E0AC
:1004800079E08DE390E0A70196010E9401222150BE
:1004900031094109510956954795379527952115F9
:1004A00080E13807A8F0E0914904F0914A041082F5
:1004B00060E874E88EE190E0A70196010E940122B5
:1004C000215031094109510956954795379527958E
:1004D000E0914504F09146043083E0914704F091A7
:1004E0004804208310925104E0914D04F0914E0491
:1004F000C083E0914B04F0914C0480818061808343
:10050000E0914B04F0914C04808188608083E091FD
:100510004B04F0914C04808180688083E0914B040F
:10052000F0914C0480818F7D8083CF91FF90EF907C
:10053000DF90CF9008958CBD9DBD0895CF92DF923E
:10054000EF92FF9220E030E040E251E40E94FD1F74
:100550006B017C0120E030E0A9010E94A81F20E08F
:1005600030E040E05FE387FD0CC0C701B6010E94A8
:10057000891D0E946C1ECB01FF90EF90DF90CF9001
:100580000895C701B6010E94881DF3CFAF92BF92B4
:10059000CF92DF92EF92FF920F931F93CF93DF934F
:1005A0006C017B018B01040F151FEB015E01AE187E
:1005B000BF08C017D10759F06991D601ED91FC91A0
:1005C0000190F081E02DC6010995892B79F7C501CD
:1005D000DF91CF911F910F91FF90EF90DF90CF901F
:1005E000BF90AF90089508950895FC01538D448DF8
:1005F000252F30E0842F90E0821B930B541710F0CE
:10060000CF96089501970895FC01918D828D9817DA
:1006100061F0A28DAE0FBF2FB11D5D968C91928DB2
:100620009F5F9F73928F90E008958FEF9FEF0895E3
:10063000FC01918D828D981731F0828DE80FF11DAC
:10064000858D90E008958FEF9FEF0895FC01918DC7
:10065000228D892F90E0805C9F4F821B91098F73C0
:100660009927089589E394E00E94260321E0892BCD
:1006700009F420E0822F089580E090E0892B29F092
:100680000E94320381110C9400000895FC01A48D96
:10069000A80FB92FB11DA35ABF4F2C91848D90E0A4
:1006A00001968F739927848FA689B7892C93A08987
:1006B000B1898C91837080648C93938D848D981311
:1006C00006C00288F389E02D80818F7D80830895A4
:1006D000EF92FF920F931F93CF93DF93EC0181E092
:1006E000888F9B8D8C8D98131AC0E889F989808139
:1006F00085FF15C09FB7F894EE89FF896083E8896C
:10070000F98980818370806480839FBF81E090E05D
:10071000DF91CF911F910F91FF90EF900895F62EEA
:100720000B8D10E00F5F1F4F0F731127E02E8C8D84
:100730008E110CC00FB607FCFACFE889F9898081C9
:1007400085FFF5CFCE010E944603F1CFEB8DEC0F74
:10075000FD2FF11DE35AFF4FF0829FB7F8940B8FE6
:10076000EA89FB8980818062CFCF0F931F93CF935B
:10077000DF938C01D0E0C0E0F801EC0FFD1F649125
:10078000662341F089E394E00E946803892B11F00D
:100790002196F2CFCE01DF91CF911F910F91089555
:1007A000CF93DF93EC01888D8823B9F0AA89BB89A8
:1007B000E889F9898C9185FD03C0808186FD0DC093
:1007C0000FB607FCF7CF8C9185FFF2CF808185FFB4
:1007D000EDCFCE010E944603E9CFDF91CF9108957E
:1007E000833081F028F4813099F08230A9F00895A7
:1007F0008730A9F08830C9F08430B1F4809180004E
:100800008F7D03C0809180008F7780938000089552
:1008100084B58F7784BD089584B58F7DFBCF80919B
:10082000B0008F778093B00008958091B0008F7DE5
:10083000F9CF1F93CF93DF93282F30E0F901E751D1
:10084000FC4F8491F901EB52FC4FD491F901EF5325
:10085000FC4FC491CC23A9F0162F81110E94F00304
:10086000EC2FF0E0EE0FFF1FE651FF4FA591B49182
:100870008FB7F894EC91111108C0D095DE23DC936A
:100880008FBFDF91CF911F910895DE2BF8CFCF92CC
:10089000DF92EF92FF920F931F93CF93DF9390918C
:1008A0000F059F3F81F48EBD00000DB407FEFDCF04
:1008B000FEB48F2DDF91CF911F910F91FF90EF909C
:1008C000DF90CF900895D82EF12CC7E0D0E001E062
:1008D00010E0FF0C60E080910F050E941904B80140
:1008E0000C2E01C0660F0A94EAF76D2180910D0568
:1008F0000E94190461E080910F050E941904209163
:100900000E0530E0F901E751FC4F8491F901EB52FB
:10091000FC4FE490F901EF53FC4FC490CC2081F0E0
:1009200081110E94F003EC2DF0E0EE0FFF1FE9545F
:10093000FC4FA591B491EC91EE2211F06894F0F87F
:10094000219708F0C6CFB5CFCF93DF9390E0FC019D
:10095000EB52FC4F24918F539C4FFC0184918823D0
:10096000D1F090E0880F991FFC01EC50FF4FA5914A
:10097000B491FC01E651FF4FC591D49161110EC0B5
:100980009FB7F8948C91E22FE0958E238C93288169
:10099000E223E8839FBFDF91CF9108958FB7F8944A
:1009A000EC91E22BEC938FBFF6CF3FB7F894809198
:1009B000A7039091A803A091A903B091AA0326B51B
:1009C000A89B05C02F3F19F00196A11DB11D3FBF87
:1009D000BA2FA92F982F8827BC01CD01620F711D56
:1009E000811D911D42E0660F771F881F991F4A9550
:1009F000D1F708958F929F92AF92BF92CF92DF92DC
:100A0000EF92FF924B015C010E94D5046B017C01C7
:100A10000E94D5046C197D098E099F09683E7340B8
:100A200081059105A8F321E0821A9108A108B10877
:100A300088EEC80E83E0D81EE11CF11C81149104DD
:100A4000A104B10429F7FF90EF90DF90CF90BF9001
:100A5000AF909F908F900895FC01808191810097C5
:100A600049F0FC01208131812617370719F0848174
:100A70009581F5CF0895CF93DF93EA016F5B7346BD
:100A80000E942C05009739F0FC01D383C28381E0DA
:100A9000DF91CF91089580E0FBCF0E942C05009755
:100AA00021F0FC0182819381089590E080E0089517
:100AB000089520918303260F3327331F21323105F8
:100AC000ECF420912F04FC0190E080E0243069F0E8
:100AD00082E00895A09183032191AC014D595C4FB0
:100AE000A40FB52FB11D2C930196861798F3809112
:100AF0008303680F6093830380E0089581E0089585
:100B000010922F0481E080930E041092090461E09A
:100B100082E10E94190461E083E10E941904E9EB7B
:100B2000F0E080818E7F808380818D7F808388E468
:100B30008093B80085E48093BC000895CF93DF9341
:100B400091E0909362038823B9F0C091B800D091EE
:100B5000BA008091BC008A7B8093BC0060E082E197
:100B60000E94190460E083E10E9419040E9480053C
:100B7000D093BA00C093B800DF91CF910895CF927F
:100B8000DF92EF92FF920F931F93CF93DF93D82FB3
:100B9000C62F613208F098C00E94D5046B017C0119
:100BA00080912F0481116BC081E080932F0480938A
:100BB0000E049FEF90930D0410920C049C0F9093E1
:100BC0000B0480930A0480910A04DD0FD82BD09384
:100BD0000A0480910904813009F078C01092090458
:100BE0000E94D5046B017C0180910A048093BB00B4
:100BF0008091310490913204A0913304B091340477
:100C0000892B8A2B8B2BA1F00E94D50400913104F3
:100C10001091320420913304309134046C197D0911
:100C20008E099F09061717072807390708F448C0D7
:100C30008091BC0083FDD8CF85EC8093BC000E94DE
:100C4000D5046B017C0180912F04813009F440C0F0
:100C500080910C048C1710F4C0910C04E9EEF3E0C1
:100C6000AFE0B4E080E08C1355C08C2FDF91CF91C2
:100C70001F910F91FF90EF90DF90CF90089580919A
:100C8000310490913204A0913304B0913404892B43
:100C90008A2B8B2B09F484CF0E94D5040091310458
:100CA0001091320420913304309134046C197D0981
:100CB0008E099F09061717072807390708F070CF14
:100CC000809130040E949E05C0E0CFCF85EEB5CF65
:100CD0008091310490913204A0913304B091340496
:100CE000892B8A2B8B2B09F4AECF0E94D50400915F
:100CF00031041091320420913304309134046C1982
:100D00007D098E099F09061717072807390708F07C
:100D10009ACFD6CF91919D938F5FA5CF0895E09103
:100D2000E8038091E703E81730F4F0E0E15FFB4F60
:100D3000808190E008958FEF9FEF08959091E803F0
:100D40008091E7032FEF3FEF981748F4E92FF0E089
:100D5000E15FFB4F208130E09F5F9093E803C90182
:100D600008958091E7039091E803891B990B0895FA
:100D7000CF92DF92EF92FF920F931F93CF93DF9367
:100D80007C01CB018A0120913804222389F0EB01F8
:100D90006B01C40ED51ECC15DD0569F06991D70134
:100DA000ED91FC910190F081E02DC7010995F3CF01
:100DB000642F0E945905C801DF91CF911F910F91B7
:100DC000FF90EF90DF90CF900895CF93DF931F9225
:100DD000CDB7DEB76983209138042223F9F0209142
:100DE0003504203258F021E030E0FC0133832283C7
:100DF00090E080E00F90DF91CF91089580913604CC
:100E0000E82FF0E0EE5BFC4F998190838F5F809339
:100E100036048093350481E090E0ECCF61E0CE01B0
:100E200001960E945905F7CFCF92DF92EF92FF9281
:100E30000F931F93CF93DF93D091350481E0D1328C
:100E400008F09CC0C09137040E94D5046B017C015E
:100E500080912F0481116CC082E080932F0481E087
:100E600080930E048FEF80930D0410920C04D093A6
:100E70000B04A2E4B3E0E9EEF3E080E0D8138DC008
:100E800010920A0480910A04CC0FC82BC0930A0464
:100E900080910904813009F084C0109209040E94F5
:100EA000D5046B017C0180910A048093BB00809182
:100EB000310490913204A0913304B0913404892B11
:100EC0008A2B8B2BA1F00E94D50400913104109144
:100ED000320420913304309134046C197D098E0959
:100EE0009F09061717072807390708F442C08091A1
:100EF000BC0083FDD8CF85EC8093BC000E94D50454
:100F00006B017C0180912F04823009F44CC08091E8
:100F10000D048F3F09F469C080910D04803209F4FB
:100F200066C080910D04803309F463C084E026C05C
:100F30008091310490913204A0913304B091340433
:100F4000892B8A2B8B2B09F483CF0E94D504009127
:100F500031041091320420913304309134046C191F
:100F60007D098E099F09061717072807390708F01A
:100F70006FCF809130040E949E0585E01092360468
:100F80001092350410923804DF91CF911F910F9188
:100F9000FF90EF90DF90CF9008959D9191938F5F98
:100FA0006DCF85EEA9CF8091310490913204A0914C
:100FB0003304B0913404892B8A2B8B2B09F4A2CFF4
:100FC0000E94D50400913104109132042091330421
:100FD000309134046C197D098E099F090617170793
:100FE0002807390708F08ECFC4CF80E0C7CF82E052
:100FF000C5CF83E0C3CFCF93DF93D82FC62F809187
:101000000C058F3F59F58091F9049091FA042091D5
:10101000030531E0309338042093370410923604EE
:1010200010923504DC01ED91FC910190F081E02DEE
:101030006D2F09958091F9049091FA04DC01ED91EE
:10104000FC910190F081E02D6C2F09958091F904BD
:101050009091FA04DF91CF910C94140780910F05C1
:101060008F3F21F482E591E00E949B0260E0809135
:101070000C050E9419048D2F8F770E9447048C2F36
:101080000E94470461E080910C05DF91CF910C94A0
:101090001904EF92FF920F931F93CF93DF93C6E350
:1010A000D5E08295880F880F807C67704770440F69
:1010B000440F440F862B842B888387E3E82E85E03A
:1010C000F82E822F8295880F807EF70120812F7164
:1010D000282B208305E315E0F8018081807C808344
:1010E00060E084EF0E94FB07F701608162956695DE
:1010F000677082EF0E94FB07F8018081682F67709C
:10110000F0E26F9FB0011124282F26952695269591
:10111000277094E0299F90011124622B87FB882778
:1011200080F9682B85EF0E94FB078881682F677024
:10113000E0E26E9FB0011124282F26952695269572
:101140002770F4E02F9F90011124622B82958695E1
:1011500086958370682B84EFDF91CF911F910F915B
:10116000FF90EF900C94FB0790E080E008958F9241
:101170009F92AF92BF92CF92DF92EF92FF92F82EA2
:1011800080910C058F3F09F070C08091F904909117
:10119000FA042091030531E030933804209337049A
:1011A0001092360410923504DC01ED91FC9101900F
:1011B000F081E02D6F2D09958091F9049091FA044A
:1011C0000E94140763E0809103050E94BF051092FE
:1011D000E8038093E7038091F9049091FA04DC011D
:1011E000ED91FC910284F385E02D09954C01990F56
:1011F000AA08BB08BA2CA92C982C88248091F90441
:101200009091FA04DC01ED91FC910284F385E02DCC
:101210000995092E000CAA0BBB0B882A992AAA2A29
:10122000BB2ABA2CA92C982C88248091F90490917F
:10123000FA04DC01ED91FC910284F385E02D09951F
:10124000092E000CAA0BBB0B6C017D01C828D92804
:10125000EA28FB28C701B601FF90EF90DF90CF90FE
:10126000BF90AF909F908F90089580910F058F3F12
:1012700021F482E591E00E949B0260E080910C05E0
:101280000E9419048F2D0E94470480E00E944704A9
:1012900090E0B0E0A0E0CC24D82EE92EFA2E80E039
:1012A0000E944704C82AFE2CED2CDC2CCC2480E0C4
:1012B0000E944704C82A61E080910C050E9419042D
:1012C000C9CF8F929F92AF92BF92CF92DF92EF924F
:1012D000FF928AEF0E94B7086115710520E8820726
:1012E000910509F485C08090140590901505B12CE6
:1012F000A12CC72ED82EE92EFF24E7FCFA94C8189B
:10130000D908EA08FB0837E09595879577956795A2
:101310003A95D1F7880C991CAA1CBB1C9B01AC0107
:10132000281939094A095B09A0911605B0911705DA
:101330000E942E224B015C015BE0B594A794979428
:1013400087945A95D1F7A7019601C701B6010E946B
:10135000F1219B01AC016CE0559547953795279598
:101360006A95D1F7A0911805B09119050E942E2217
:101370009B01AC017EE055954795379527957A9569
:10138000D1F7280D391D4A1D5B1D809110059091E4
:101390001105A0911205B0911305280F391F4A1F9E
:1013A0005B1F209308053093090540930A0550936D
:1013B0000B05A5E0B0E00E94232260587F4F8F4FBD
:1013C0009F4F672F782F892F992787FD9A950E9425
:1013D000AA1E20E030E048EC52E40E94FA1DFF9083
:1013E000EF90DF90CF90BF90AF909F908F90089537
:1013F00060E070E080EC9FE7F2CFCF93C82F809140
:101400000C058F3FA9F58091F9049091FA04209181
:10141000030531E0309338042093370410923604EA
:1014200010923504DC01ED91FC910190F081E02DEA
:101430006C2F09958091F9049091FA040E94140789
:1014400061E0809103050E94BF051092E80380933C
:10145000E7038091F9049091FA04DC01ED91FC918D
:101460000284F385E02D0995C82F8C2FCF91089524
:1014700080910F058F3F21F482E591E00E949B024D
:1014800060E080910C050E9419048C2F0E94470493
:1014900080E00E944704C82F61E080910C050E9403
:1014A0001904E3CFCF93DF93C82F80910C058F3FB2
:1014B00009F046C08091F9049091FA042091030547
:1014C00031E03093380420933704109236041092A0
:1014D0003504DC01ED91FC910190F081E02D6C2F41
:1014E00009958091F9049091FA040E94140762E032
:1014F000809103050E94BF051092E8038093E703E3
:101500008091F9049091FA04DC01ED91FC91028440
:10151000F385E02D0995C82F8091F9049091FA0484
:10152000DC01ED91FC910284F385E02D099520E02A
:101530003C2FE901C82BD92BCE01DF91CF91089523
:1015400080910F058F3F21F482E591E00E949B027C
:1015500060E080910C050E9419048C2F0E944704C2
:1015600080E00E944704C82F80E00E944704DC2FDF
:10157000C82F61E080910C050E941904DDCF0E9404
:10158000520A9827892798270895FC010190002086
:10159000E9F73197AF01481B590BBC0189E394E08F
:1015A0000C94C60282E393E00C94C50ACF93DF93B8
:1015B0000E94B503EC010E94D20A8C0F9D1FDF919F
:1015C000CF9108958F929F92AF92BF920F931F93E6
:1015D000CF93DF93CDB7DEB7A1970FB6F894DEBFF8
:1015E0000FBECDBF19A2423008F44AE08E010F5D54
:1015F0001F4F842E912CB12CA12CA50194010E9487
:101600000122E62FB901CA01EA30F4F4E05DD80105
:10161000EE938D01232B242B252B79F790E080E08E
:10162000109719F0CD010E94C50AA1960FB6F89443
:10163000DEBF0FBECDBFDF91CF911F910F91BF9045
:10164000AF909F908F900895E95CE1CFCF92DF92A9
:10165000EF92FF92CF93DF936B017C016DE289E300
:1016600094E00E946803EC0166277727CB016C1990
:101670007D098E099F094AE00E94E20A8C0F9D1F96
:10168000DF91CF91FF90EF90DF90CF900895CF93AF
:10169000DF93BC01990F880B990B97FF0AC00E943A
:1016A000260BEC010E94D20A8C0F9D1FDF91CF9177
:1016B00008954AE00E94E20AF4CF4F925F926F923F
:1016C0007F928F929F92AF92BF92CF92DF92EF92D2
:1016D000FF920F931F93CF936B017C01742EAC018B
:1016E0009B010E940021882399F085E393E0CF912C
:1016F0001F910F91FF90EF90DF90CF90BF90AF9030
:101700009F908F907F906F905F904F900C94C50A40
:1017100046015701E894B7F82FEF3FEF4FE75FE737
:10172000C501B4010E94002181110DC02FEF3FEFD0
:101730004FE75FE7C501B4010E94F51D18161CF4C0
:1017400089E393E0D4CF2FEF3FEF4FE75FE4C7018A
:10175000B6010E94A81F18161CF48DE393E0C7CFB2
:101760002FEF3FEF4FE75FECC701B6010E94F51D79
:1017700087FDF3CF20E030E0A901C701B6010E9448
:10178000F51D10E000E087FF0AC06DE289E394E0F8
:101790000E9468038C01F7FAF094F7F8F094C0E027
:1017A00060E070E080E09FE37C1641F020E030E0F4
:1017B00040E251E40E94FA1DCF5FF6CFA7019601E7
:1017C0000E94891D2B013C010E94731E4B015C018C
:1017D0004AE00E94E20A7C01E00EF11ECC23C1F136
:1017E000C501B4010E94A81E9B01AC01C301B20156
:1017F0000E94881D4B015C016EE289E394E00E9427
:101800006803E80EF91EC15018F120E030E040E214
:1018100051E4C501B4010E94FD1F2B013C010E944F
:10182000731E4B01B12CA12C4AE0C501B4010E94EA
:10183000E20AE80EF91EC501B4010E94A81E9B0130
:10184000AC01C301B2010E94881D4B015C01DBCFDA
:10185000C701CF911F910F91FF90EF90DF90CF9034
:10186000BF90AF909F908F907F906F905F904F90C0
:1018700008950F931F93CF93DF938C01EB0186E0C4
:1018800090E00E94CE23FC0111830083D383C283A6
:10189000158214828091E2049091E304892B69F40B
:1018A000F093E304E093E204F093E504E093E404AE
:1018B000DF91CF911F910F910895A091E404B09111
:1018C000E5041596FC93EE931497EECF0F931F93B8
:1018D000CF93DF93182F062FC2EED4E08C819D8129
:1018E0000E946A2482E08E8382E090E00E94CE23F0
:1018F000FC019D838C8310581083018383E08F83C8
:10190000DF91CF911F910F91089585ED8093BC00D9
:101910008091310490913204A0913304B091340449
:101920000796A11DB11D23E0B695A79597958795BC
:101930002A95D1F72091BC0024FD03C010922F04FA
:1019400008954091310450913204609133047091B4
:101950003404452B462B472B69F30097A105B105AD
:1019600041F025E32A95F1F700000197A109B1099B
:10197000E1CF809130040C949E051F920F920FB618
:101980000F9211242F933F934F935F936F937F9305
:101990008F939F93AF93BF93EF93FF9389E394E06B
:1019A0000E944603FF91EF91BF91AF919F918F915C
:1019B0007F916F915F914F913F912F910F900FBE4B
:1019C0000F901F9018951F920F920FB60F9211242F
:1019D0002F938F939F93EF93FF93E0914904F0919E
:1019E0004A048081E0914F04F091500482FD1BC0B5
:1019F0009081809152048F5F8F73209153048217DE
:101A000041F0E0915204F0E0E75CFB4F958F80934A
:101A10005204FF91EF919F918F912F910F900FBEE4
:101A20000F901F9018958081F4CF1F920F920FB6E0
:101A30000F9211242F933F938F939F93AF93BF9354
:101A40008091B0039091B103A091B203B091B30320
:101A50003091A60323E0230F2D3758F50196A11DE1
:101A6000B11D2093A6038093B0039093B103A0937C
:101A7000B203B093B3038091A7039091A803A09100
:101A8000A903B091AA030196A11DB11D8093A703DC
:101A90009093A803A093A903B093AA03BF91AF9119
:101AA0009F918F913F912F910F900FBE0F901F909C
:101AB000189526E8230F0296A11DB11DD2CF1F92C3
:101AC0000F920FB60F9211242F933F934F935F9372
:101AD0006F937F938F939F93AF93BF93EF93FF93F6
:101AE0008091B900887F803609F44AC0F0F58832C9
:101AF00009F4A7C018F5803109F49BC0B8F4882315
:101B000009F4F9C0883009F494C0FF91EF91BF91B6
:101B1000AF919F918F917F916F915F914F913F9185
:101B20002F910F900FBE0F901F901895883109F4D8
:101B300088C0803251F780930D0414C0803409F4BA
:101B40009DC040F48033B9F38833F9F680930D04D7
:101B500085ECB0C0803509F485C0883509F496C09D
:101B6000883499F60E94850CD0CF883909F48CC04E
:101B700038F5883729F050F4883611F0803729F687
:101B800083E080932F041092A50357C0883809F48E
:101B90007BC0803919F0803809F0B7CF8091A50358
:101BA000803208F071C0E091A50381E08E0F809330
:101BB000A5038091BB00F0E0EB57FC4F80833DC054
:101BC000803B39F0E0F4803A09F479C0883A09F0B2
:101BD0009CCF84E080932F0410928403109283039F
:101BE000E091AE03F091AF030995809183038111D9
:101BF0000FC081E0809383031092630309C0803C8F
:101C000009F4A6CF883C09F4A3CF883B09F07DCF27
:101C1000E091840381E08E0F80938403F0E0ED591E
:101C2000FC4F80818093BB0090918403809183035B
:101C300029C080910A048093BB0085EC8093BC008E
:101C400064CF90910C0480910B04981758F5E091A3
:101C50000C0481E08E0F80930C04F0E0E751FC4F00
:101C60008081E9CFE0910C0481E08E0F80930C0419
:101C70008091BB00F0E0E751FC4F808390910C0411
:101C800080910B049817C8F285E8D8CFE0910C0436
:101C900081E08E0F80930C048091BB00F0E0E7514F
:101CA000FC4F808380910E0481115CCF81E0809392
:101CB000090484EA8093BC0010922F0426CF85EC9F
:101CC0008093BC0010922F048091A503803230F4E1
:101CD000E091A503F0E0EB57FC4F10826091A50363
:101CE00070E0E091AC03F091AD0385E893E00995D5
:101CF0001092A5030ACF10920D0434CFE9E3F4E06B
:101D00001382128288EE93E0A0E0B0E08483958392
:101D1000A683B78322E133E03183208325EC30E0D2
:101D20003587248724EC30E03787268720EC30E0A5
:101D3000318B208B21EC30E0338B228B22EC30E096
:101D4000358B248B26EC30E0378B268B118E128E50
:101D5000138E148EE6EDF4E0138212828483958351
:101D6000A683B78384E293E091838083E9EFF4E074
:101D70001582148217821682118610868FEF838B4C
:101D8000848B858B868B178A108E118E128EE2EED5
:101D9000F4E011821082138212820895CF93DF93B0
:101DA000CDB7DEB7A5970FB6F894DEBF0FBECDBF97
:101DB000789484B5826084BD84B5816084BD85B526
:101DC000826085BD85B5816085BD80916E00816032
:101DD00080936E00109281008091810082608093D8
:101DE00081008091810081608093810080918000DA
:101DF0008160809380008091B10084608093B10005
:101E00008091B00081608093B00080917A008460FE
:101E100080937A0080917A00826080937A0080912A
:101E20007A00816080937A0080917A008068809344
:101E30007A001092C10061E087E00E94A40461E092
:101E400085E00E94A40461E088E00E94A4046091FF
:101E5000E00387E00E9419046091DE0385E00E94A0
:101E600019046091C00388E00E9419048FE090E09B
:101E70009093D9038093D80388E99AE39093DB0386
:101E80008093DA0380EF90E09093D1038093D003A6
:101E90001092D3031092D2038EE190E09093D50379
:101EA0008093D4031092D7031092D6032AEF30E028
:101EB0003093C9032093C80329E130E03093CB036A
:101EC0002093CA039093CD038093CC0385E090E0E8
:101ED0009093CF038093CE0346E060E875E280E004
:101EE00090E00E942B0280E792E00E94B5034AE056
:101EF00060E875E280E090E00E94E20A89E692E004
:101F00000E94D60A0E94D20A8DE392E00E94D60A6D
:101F10008AE292E00E94B50380E091E00E94C50A47
:101F20000E94D20A0E94D20A87E78093030586EDB9
:101F300094E09093FA048093F90480910C058F3F0C
:101F400009F03CC11092E8031092E70310923604A6
:101F5000109235040E94800583EF92E09093AF03C6
:101F60008093AE0384EF92E09093AD038093AC0333
:101F700080ED0E94FD0990E0B0E0A0E080930405B0
:101F800090930505A0930605B0930705803691054B
:101F9000A105B10509F463C11092E20385E092E066
:101FA0000E94D60A83EE91E00E94D60A83ED91E06A
:101FB0000E94B503609104057091050580910605A6
:101FC0009091070540E10E94E20A0E94D20A8BEA42
:101FD00091E00E94D60A84E091E00E94B5036CED86
:101FE00075E080E090E00E94FA0489E394E0909329
:101FF000EB048093EA0489E090E09093F3048093EB
:10200000F20446E060E875E280E090E00E942B0276
:1020100060ED77E080E090E00E94FA0461E089E002
:102020000E94A40460E089E00E9419048AE196E01D
:102030009093F5048093F4048DE39EE09093F7046D
:102040008093F60481E08093F8046091C40370915A
:10205000C50385EA9CE90E94390C6091BE0370912A
:10206000BF0386EA9CE90E94390C6091BC03709121
:10207000BD0387EA9CE90E94390C6091BA03709114
:10208000BB0388EA9CE90E94390C6091B803709107
:10209000B90389EA9CE90E94390C6091B6037091FA
:1020A000B7038AEA9CE90E94390C6091B4037091ED
:1020B000B5038BEA9CE90E94390C6091DC037091B6
:1020C000DD038CEA9CE90E94390C6091D803709181
:1020D000D90389E09DE90E94390C6091C603709193
:1020E000C7038EE09DE90E94390C6091C80370918E
:1020F000C9038BE09DE90E94390C6091D003709177
:10210000D1038CE09DE90E94390C6091D403709159
:10211000D5038DE09DE90E94390C6091CC0370914C
:10212000CD038AE09DE90E94390C8EEF90E00E9479
:10213000D60A0E94D20A2FB7F8948091B0039091EA
:10214000B103A091B203B091B3032FBF8093E30317
:102150009093E403A093E503B093E6038091E20338
:10216000882309F493C180913605982F907C903490
:1021700009F04EC1682F677050E2659FB0011124CD
:10218000282F269526952695277094E0299F900163
:102190001124622B8295869586958370682B84EF37
:1021A0000E94FB0783EF0E94FD0983FF31C161E0BC
:1021B00070E080E090E00E94FA04F4CF61E00E94B9
:1021C000190461E080910C050E94A40480910F0520
:1021D0008F3F09F036C0AFB6A982F8948091AB0367
:1021E000811127C0EBECF3E08491EFEDF3E09491E3
:1021F000E82FF0E0EE0FFF1FEC50FF4FA591B491D8
:10220000EC91E92321F461E08AE00E94190461E085
:102210008AE00E94A4048CB580618CBD8CB580647A
:102220008CBD61E08DE00E94A40461E08BE00E941F
:10223000A4048091AB038F5F8093AB03B980BFBED2
:1022400097CE61E00E94A40461E080910D050E9498
:10225000A40460E080910E050E94A40489CE66EB80
:1022600080EE0E94FB076AE070E080E090E00E9450
:10227000FA0483EF0E94FD0980FDF5CF88E80E94F3
:10228000BF0A90931505809314058AE80E94BF0A3F
:1022900090931705809316058CE80E94BF0A9093CF
:1022A0001905809318058EE80E94BF0A90931B05BC
:1022B00080931A0580E90E94BF0A90931D058093C0
:1022C0001C0582E90E94BF0A90931F0580931E059A
:1022D00084E90E94BF0A909321058093200586E936
:1022E0000E94BF0A909323058093220588E90E94EB
:1022F000BF0A90932505809324058AE90E94BF0AAE
:1023000090932705809326058CE90E94BF0A90933D
:102310002905809328058EE90E94BF0A90932B051A
:1023200080932A0581EA0E94FD0980932C0581EEA5
:102330000E94BF0A90932E0580932D0583EE0E9484
:10234000FD0980932F0584EE0E94FD09898385EEA7
:102350000E94FD09098110E10102900111248F7092
:10236000282B309331052093300586EE0E94FD091D
:10237000898385EE0E94FD09398140E13402900194
:10238000112490E064E0959587956A95E1F7822B9A
:10239000932B909333058093320587EE0E94FD09BD
:1023A0008093340525E030E045E050E065E070E0E2
:1023B00083E090E00E94490864E670E080E090E0ED
:1023C0000E94FA0481E08093E20380E991E00E9498
:1023D000D60A0E94D20A87E791E00E94D60A8BE6CD
:1023E00091E00E94D60A83E391E00E94D60A88E237
:1023F00091E00E94D60A0E94D20A21E030E041E03A
:1024000050E061E070E081E090E00E944908E3CD97
:10241000A1E0B0E0B093E103A093E0031092DF03EA
:102420001092DE031092DD031092DC031092E80498
:102430008091EA049091EB04DC01ED91FC91008421
:10244000F185E02D09954091E804242F30E028170C
:1024500039075CF58091EA049091EB04DC01ED9181
:10246000FC910084F185E02D09958093E80480912A
:10247000F4049091F50482309105D0F2880F991FF1
:10248000880F991F05970197F1F7D2CF1092E103BA
:102490001092E003E1E0F0E0F093DF03E093DE036D
:1024A000F093DD03E093DC03C1CF442309F42CC295
:1024B000C9010E94CE239093E7048093E60410E0C4
:1024C0007091E8041717A0F48091EA049091EB044E
:1024D000DC01ED91FC910284F385E02D0995E091FA
:1024E000E604F091E704E10FF11D80831F5FE8CF60
:1024F000A090E604B090E704BA82A982D5019C902E
:10250000BFEF9B1621F08091F8049812F5C16DEF92
:10251000670F892D809590E0DC01A25FBD4F2C9163
:102520002095825F9E4FFC019081A981BA8111960E
:10253000615080F08D918227482F50E09A01225FF0
:102540003D4FF9018081292F2827425F5E4FFA0114
:102550009081EECFE981FA81E70FF11DDF0112973B
:102560004C9131978081542F482F322F292F4217B9
:10257000530709F0C1C1A981BA811196DC90119766
:1025800012960D911C91139710270127102714966E
:10259000ED90FC90FE24EF24FE24B6E0DB16A9F1BA
:1025A000E0E1DE1609F4F1C0F3E061E08D2DDF1209
:1025B00041C0C701019763E08D37910520F50F5B9E
:1025C0001346B80182EE94E00E942C0562E0892B4C
:1025D000D1F089819A810E946A2497012F5F3F4F31
:1025E0003A832983220F29832093E804822F90E0E5
:1025F0000E94CE23FC019093E7048093E604892B8C
:1026000009F053C064E083E015C0A701B80182EE71
:1026100094E00E943B0562E0882359F0B8016F5BAB
:10262000734682EE94E00E944D05E816F90641F0EB
:1026300064E086E00E94660CEFEF9E126AC066C0FE
:1026400082E08093E904AA24AA949A1409F45EC053
:10265000C090E604D090E704DA82C9828091F20447
:102660009091F30497FD09C061E00E94190461E0B4
:1026700070E080E090E00E94FA0410E08091EA04AB
:102680009091EB04DC01ED91FC912091E80412178C
:1026900008F013C1A981BA81A10FB11D0190F08189
:1026A000E02D6C9109951F5FE9CFD082898182501E
:1026B00081831A821982C090E604D090E704A98031
:1026C000BA80EA14FB04E1F0B501600F711F82EEDD
:1026D00094E00E944D0595012F5F3F4F3A83298377
:1026E000220F331FF601E20FF31F90834091E6049F
:1026F0005091E704240F351FD90111968C93DBCF3D
:1027000083E08093E904BFEF9B1208C081E08093CF
:10271000E9048091E904833009F0EBC0C090E6043D
:10272000D090E7048091F2049091F30497FD09C0E2
:1027300061E00E94190461E070E080E090E00E9496
:10274000FA048091EA049091EB04DC01ED91FC9194
:102750000190F081E02D6091F804099510E06091FE
:10276000E8048091EA049091EB04DC01ED91FC9186
:10277000E080F180161708F069C0D601A10FB11DE5
:102780006C91F70109951F5FEACFC70101978B375D
:102790009105D8F4E981FA812681C701880F991F34
:1027A0002817190691F4B12CA12C6801FFEBCF1A60
:1027B000F3E6DF0AB6016A0D7B1D82EE94E00E940B
:1027C0002C05892B29F462E001C063E080E132CF5F
:1027D0002FEFA21AB20AAE14BF0461F789819A8161
:1027E0000E946A2435E03093E80485E090E00E947E
:1027F000CE23FC019093E7048093E604892B11F427
:1028000064E0E4CF80E18083118302831382E48259
:10281000D12CC12C49815A814E5F5F4F5A83498325
:10282000EC14FD0409F46CCFDA0115968C91159720
:1028300016964C91582FB8016C0D7D1D82EE94E0D8
:102840000E943B05BFEFCB1ADB0AE4CF4091F804AE
:10285000409550E0DA01A25FBD4F7C917095425FD8
:102860005E4FDA014C91A091E604B091E70461500B
:1028700068F02D91272730E0F901E25FFD4F70816C
:102880007427225F3E4FF9014081F1CF042F672F5B
:10289000F70109958091EA049091EB04DC01ED9138
:1028A000FC910190F081E02D602F09958091EA0460
:1028B0009091EB04DC01ED91FC910680F781E02D15
:1028C00009958091F6049091F7048230910538F0D3
:1028D000880F991F880F991F05970197F1F780912D
:1028E000F2049091F30497FD07C060E00E94190480
:1028F00003C0823009F4ACCE8091E6049091E704E5
:102900000E946A241092E80469E07DE982EE94E076
:102910000E944D0501E010E0009709F474C19A830C
:10292000898300EF10E0813F910508F06CC1A98018
:10293000BA80B092D903A092D8036DE07DE982EE0F
:1029400094E00E944D05893502E0900710F088E57B
:1029500092E08E31910510F48EE190E09093D503D2
:102960008093D4036CE07DE982EE94E00E944D05F3
:10297000893512E0910710F088E592E08E319105DB
:1029800010F48EE190E09093D1038093D0036AE03D
:102990007DE982EE94E00E944D058536910510F0A8
:1029A00084E690E08A30910510F48AE090E09093FC
:1029B000CD038093CC036BE07DE982EE94E00E942E
:1029C0004D058F3521E0920710F08EE591E08436B9
:1029D000910510F484E690E09093C9038093C803B6
:1029E0006EE07DE982EE94E00E942C05009709F4E8
:1029F0000DC12091C6033091C703DC0113963C93AF
:102A00002E93129781E090E09093C7038093C603C2
:102A10008091E203882309F456C08091DA039091F3
:102A2000DB03A980BA8008EEC02E03E0D02EAC9C58
:102A30009001AD9C300DBC9C300D11248217930782
:102A400008F0E6C00A969093DB038093DA03E091E6
:102A5000C803F091C9036091C4037091C5038091CC
:102A6000CA039091CB036F01C81AD90AC616D706BC
:102A700090F44091CC035091CD032091C603309146
:102A8000C7038091CE039091CF03840F951F281721
:102A9000390708F45AC71092C3031092C2038091F9
:102AA000C0039091C103019771F41092C103109279
:102AB000C00387E993E00E94B50390E080E00E94A4
:102AC000470B0E94D20A4091C4035091C50364E6AB
:102AD00070E082EE94E00E943B054091BE0350916D
:102AE000BF0365E670E082EE94E00E943B054091F2
:102AF000BC035091BD0366E670E082EE94E00E9454
:102B00003B054091BA035091BB0367E670E082EE4B
:102B100094E00E943B054091B8035091B90368E6E8
:102B200070E082EE94E00E943B054091B603509124
:102B3000B70369E670E082EE94E00E943B054091A5
:102B4000B4035091B5036AE670E082EE94E00E940F
:102B50003B054091DC035091DD036BE670E082EEB3
:102B600094E00E943B056091E00387E00E94190415
:102B70006091DE0385E00E9419046091C00388E043
:102B80000E9419048FB7F8944091B0035091B1039B
:102B90006091B2037091B3038FBF8091E303909172
:102BA000E403A091E503B091E6032FB784179507DE
:102BB000A607B70709F459C7F8948091B00390911C
:102BC000B103A091B203B091B3032FBF4091E303CF
:102BD0005091E4036091E5037091E603841B950B2B
:102BE000A60BB70B0B97A105B10560F280E090E052
:102BF000892B09F4A0CA0E943203882309F49BCAD6
:102C00000E94000098CA1A83098391CE80E0FBCE0F
:102C10001092DB031092DA030E9461096D8B7E8BA8
:102C20008F8B988F0E94610987EF0E94B708698394
:102C30007A838B839C83611571058048910509F423
:102C400029C58091080590910905A0910A05B091C8
:102C50000B056C017D01FF0CCC08DC2C76019C017E
:102C6000AD016C2D7C2D8C2D9C2D345F4140510984
:102C70006109710981099109322E232E542E752E76
:102C80004B018DA39CA3A22EB32EC42ED52E7B0167
:102C90008C010E9436222D8F3E8F4F8F58A369A33F
:102CA0007AA38BA3492E30911D0520911C05932FEB
:102CB000990F990B492F592F692F792F892F0E942E
:102CC00036220CE00E9465232D833D87642E598BAC
:102CD000698F7A8F8B8F9C8F30911F0520911E05F5
:102CE000932F990F990BAD8CBE8CCF8CD8A0E9A0F7
:102CF000FAA00BA1142D492F592F692F792F892F55
:102D00000E94362208E00E947E23AD80BD84C62C3E
:102D1000D988E98CFA8C0B8D1C8D0E949B237058EE
:102D20008F4F9F4FE0911A05F0911B055F01D12C49
:102D3000C12CE12CF12C8701ED83BE82CF82D88695
:102D4000E986FA860B871C87C12CD12CE12CF12C4B
:102D500000E010E00E94362201E20E947E232D83D3
:102D60003D87498B598F6A8F7B8F8C8F692EA0E0AE
:102D70000E94AD2309F493C43091250520912405C8
:102D8000932F990F990BAD8CBE8CCF8CD8A0E9A056
:102D9000FAA00BA1142D492F592F692F792F892FB4
:102DA0000E943622422E3D8F4E8F5F8F68A379A3FB
:102DB0008AA39BA33091230520912205932F990F7D
:102DC000990BA32CB22CC52CD72C74010DA11CA1DE
:102DD000492F592F692F792F892F0E94362201E11F
:102DE0000E946523A42CBD8CCE8CDF8CE8A0F9A0BA
:102DF0000AA11BA10E949B2359016A017B01782E25
:102E0000192F89819A81AB81BC8104E0B595A79582
:102E1000979587950A95D1F720E030E040E150E0A2
:102E2000281B390B4A0B5B0BC90119012A01550CF0
:102E30002208322C21019C01622D722D822D922DAF
:102E40000FE10E94652349014D8F5983B62FA72FAB
:102E5000F82FE92F3091210520912005932F990F0C
:102E6000990B492F592F692F792F892F03E20E943F
:102E70006523072D0E949B2359016A017B018C0168
:102E800094014D8D59816B2F7A2F8F2F9E2F0E9489
:102E9000A423E5E3AE2EFCE0BF2EC12CD12CE12C07
:102EA000F12C00E010E00E943622AD80BD84C9887C
:102EB000D98CEA8CFB8C0C8D162D0E949022922EC0
:102EC000232E49835D836D87798B898F9A8F0DE0DF
:102ED0000E947E23322E3C8F4B8F452E562E672E1E
:102EE000782E892E30912B0520912A05932F990F4A
:102EF000990BA32CBC8CC42ED42CE52CF62C072DBE
:102F0000182D492F592F692F792F892F0E9436228A
:102F10000E94362209E10E947E23A92CB22CC9808E
:102F2000DD80ED84F988098D1A8D0E949B23322E55
:102F3000432E542E652E762E872E8C8F9B8F3091AC
:102F4000290520912805932F990F990B492F592F67
:102F5000692F792F892F0E94362203E10E947E2358
:102F600059016A017B018C01232D342D452D562DED
:102F7000672D782D8C8D9B8D0E949B2308E00E94ED
:102F80007E2359016A017B01E82F192F3091270513
:102F900020912605932F990F990B492F592F692FAF
:102FA000792F892F04E00E9465230E2F0E949B2316
:102FB0000E94A21E20E030E040E85BE30E94FD1F7B
:102FC00020E030E048EC52E40E94FA1D698B7A8BD5
:102FD0008B8B9C8B0E9461098DEF0E94520AB0E09E
:102FE000A0E0811530E89307A105B10509F4B7C346
:102FF000409008055090090560900A0570900B05F7
:103000004CE2541A41E0640A71086C017D01AEE0A3
:10301000CC0CDD1CEE1CFF1CAA95D1F7809130056D
:1030200090913105092E000CAA0BBB0B14E1880FFF
:10303000991FAA1FBB1F1A95D1F7C81AD90AEA0A05
:10304000FB0AA0913205B0913305A30192010E94C1
:103050002E22C61AD70AE80AF90A50E4D50EE11C56
:10306000F11C0FE0F594E794D794C7940A95D1F733
:10307000A0912F05B0E0A3010E9423224B015C0127
:103080008BE0B594A794979487948A95D1F760E8DC
:10309000960EA11CB11CA09134050A2E000CBB0B8E
:1030A0000E942E222AE095958795779567952A9517
:1030B000D1F7A50194010E94F1219B01AC016AE0C6
:1030C00055954795379527956A95D1F7405E5F4F9F
:1030D000A0912D05B0912E050E942E22705E8F4F7B
:1030E0009F4FEEE09595879577956795EA95D1F78F
:1030F000A70196010E94F1216B017C01FFE09595EB
:10310000879577956795FA95D1F79B01AC010E9459
:10311000F1219B01AC01A7E055954795379527957F
:10312000AA95D1F7A0912C05B0E00E942322B4E02B
:103130009595879577956795BA95D1F7C61AD70A69
:10314000E80AF90AF7FE03C0C12CD12C760171E020
:10315000C716D104E10479E1F7062CF0C12CD12C7B
:10316000E12CF9E1FF2EC701B601ECE095958795BA
:1031700077956795EA95D1F70E94AA1E20E030E086
:1031800040E85AE30E94FD1F69837A838B839C8306
:103190002D893E894F89588DCA01B9010E940021AD
:1031A0008111B1C329813A814B815C81CA01B90186
:1031B0000E9400218111B8C329893A894B895C8911
:1031C000CA01B9010E94002181115AC420E030E8EF
:1031D00044E854E469897A898B899C890E94FA1DA4
:1031E0000E94C0206B017C0126EA3BE944EC5BE3D2
:1031F00069817A818B819C810E94FD1FA7019601C4
:103200000E94FD1F26E636E646EE5EE30E94891D1B
:103210002D893E894F89588D0E94FD1F6D837E83C5
:103220008F83988720E030E048EC52E469817A810E
:103230008B819C810E94FA1D0E94B51F4B015C018D
:1032400020E030E04DE851E46D897E898F89988DCA
:103250000E94FD1F6B017C012DE33AE043E753E43C
:103260006D897E898F89988D0E94891D9B01AC0193
:10327000C701B6010E94FA1D6B017C01AC019B01E4
:10328000C501B4010E94891D2DE33AE043E753E4F0
:103290000E94FD1F2B013C01A501940160E070E03C
:1032A0008DE891E40E94881DA70196010E94881D67
:1032B0009B01AC01C301B2010E94FA1D6D877E879C
:1032C0008F87988B26E636E646EE5FE36D897E892A
:1032D0008F89988D0E94FD1F20E030E040E052E48D
:1032E0000E94891D698F7A8F1C0120E030E040E246
:1032F00052E40E94F51D18160CF02CC220E030E0BC
:1033000048E852E4698D7A8DC1010E94881D2AE93E
:1033100039E949E95FE30E94FD1F6B017C0120E070
:1033200030E044E752E4698D7A8DC1010E94891D25
:103330009B01AC01C701B6010E94891D6B017C0194
:1033400022E133E840EC5DE369817A818B819C81E5
:103350000E94FD1F9B01AC01C701B6010E94891D9F
:1033600020E030E040E05FE30E94FD1FF62EE72EF4
:10337000D82EC92E20E030E04EE952E40E94A81F6A
:1033800087FD19C1298D3A8DA101698D7A8DC10101
:103390000E94FD1F4B015C0129813A814B815C81B8
:1033A000CA01B9010E94FD1F6B017C0121E133E2DA
:1033B00043E050E4698D7A8DC1010E94FD1F29E12F
:1033C00034E849E252E40E94881D2B013C0126E1C9
:1033D0003BE442E251E469817A818B819C810E94C5
:1033E000FD1F9B01AC01C301B2010E94891D2B018D
:1033F0003C0128E436E246E65EEB698D7A8DC10138
:103400000E94FD1F29813A814B815C810E94FD1F32
:103410009B01AC01C301B2010E94891D2B013C013B
:1034200020EE3FE040EE5BEBC501B4010E94FD1FC2
:103430009B01AC01C301B2010E94891D2B013C011B
:1034400028EF37E840E65DEBC701B6010E94FD1F9B
:103450009B01AC01C301B2010E94891D2B013C01FB
:103460002CEA3DE041EA5AE3C501B4010E94FD1F88
:1034700029813A814B815C810E94FD1F9B01AC0137
:10348000C301B2010E94891D2B013C0128EC3FE8D9
:103490004FE55AE3698D7A8DC1010E94FD1FA70196
:1034A00096010E94FD1F9B01AC01C301B2010E9465
:1034B000891D2B013C0121EF3BE845E056EBC5019E
:1034C000B4010E94FD1FA70196010E94FD1F9B01F0
:1034D000AC01C301B2010E94891DF62EE72ED82E41
:1034E000C92E20E030E040E551E469817A818B818A
:1034F0009C810E94F51D87FFDFC020E030E040EA9C
:1035000052E4698D7A8DC1010E94A81F87FDD4C045
:1035100020E030E040EE52E4698D7A8DC1010E94D6
:10352000F51D18160CF4B7C229813A814B815C81D4
:1035300060E070E080E591E40E94881D20E030E0CA
:1035400040E85EE30E94FD1F4B015C0120E030E09B
:103550004EEB52E4698D7A8DC1010E94881D2B01CA
:103560003C0120E030E0A9010E94A81F18160CF0D1
:103570009AC0A301920160E070E088E891E40E94A3
:10358000881D2EE33DEE40E75DE30E94FD1F0E9493
:10359000C0209B01AC01C501B4010E94FD1F9B012D
:1035A000AC016F2D7E2D8D2D9C2D0E94881DF62E39
:1035B000E72ED82EC92E2F2D3E2D4D2D5C2D6F2D93
:1035C0007E2D8D2D9C2D0E940021811172C220E044
:1035D00030E040E052E46F2D7E2D8D2D9C2D0E9419
:1035E000881D24EE38E34EE05FE30E94FD1F6B016F
:1035F0007C0129E23CE54DE851E46D897E898F89A3
:10360000988D0E94FD1F4B015C0120E030E843E7EC
:1036100053E46D897E898F89988D0E94891D9B0155
:10362000AC01C501B4010E94FA1D9B01AC0164E527
:1036300078EF8DE290E40E946A2021E835E943ECBE
:1036400050E40E94FD1F29813A814B815C810E94D8
:10365000FD1F2BE63FE140E951E40E94FD1F4B01B5
:103660005C0123E333E948E853E46D897E898F895F
:10367000988D0E94891D24E138E045E051E40E94C4
:10368000FD1F9B01AC01C501B4010E94FA1D4B0155
:103690005C017EC060E070E080EC9FE791CC60E070
:1036A00070E0CB018DCC20E030E048E851E4C3016C
:1036B000B2010E94891D65CF20E030E04AEA52E461
:1036C00069817A818B819C810E94A81F18160CF059
:1036D00072CF20E030E040EA52E4698D7A8DC1017A
:1036E0000E94A81F87FD67CF20E030E04EEA52E439
:1036F000698D7A8DC1010E94F51D18160CF45BCFFF
:1037000020E030E04AEA52E469817A818B819C8131
:103710000E94881D2AE037ED43EA5CE30E94FD1F0A
:103720004B015C01298D3A8DA10160E070E08EEAC9
:1037300092E40E94881D9B01AC01C501B4010E9466
:10374000FD1F9B01AC016F2D7E2D8D2D9C2D0E94A8
:10375000891D2DCFF98CEA8CD22CC32C2CCFA12C17
:10376000B12C50ECC52E5FE7D52EA982BA82CB8250
:10377000DC8276016501CD82DE82EF82F8868701E8
:103780007501ED86FE860F87188B7801460157017B
:103790006D897E898F89988D0E949E029093C503C2
:1037A0008093C40369897A898B899C890E949E02CF
:1037B0009093BF038093BE0369817A818B819C8142
:1037C0000E949E029093BD038093BC036D817E8115
:1037D0008F8198850E949E029093BB038093BA03C9
:1037E0006D857E858F8598890E949E029093B9038E
:1037F0008093B803C701B6010E949E029093B7035D
:103800008093B603C501B4010E949E029093B50354
:103810008093B40384E493E00E94B5036091D803DD
:103820007091D90390E080E04AE00E94E20A8EE3C2
:1038300093E00E94D60A89E293E00E94B50342E039
:103840006D897E898F89988D0E945D0B83E293E05C
:103850000E94D60A8EE093E00E94B50342E0698997
:103860007A898B899C890E945D0B89E093E00E9494
:10387000D60A84EF92E00E94B50342E069817A8122
:103880008B819C810E945D0B81EF92E00E94D60AA1
:103890008CED92E00E94B50342E06D817E818F81C4
:1038A00098850E945D0B86ED92E00E94D60A81EC1D
:1038B00092E00E94B50342E06D857E858F859889F0
:1038C0000E945D0B8BEB92E00E94D60A86EA92E0A2
:1038D0000E94B50342E0C701B6010E945D0B80EA79
:1038E00092E00E94D60A8BE892E00E94B50342E083
:1038F000C501B4010E945D0B88E892E00E94D60ADF
:103900000E94D20AA4C8A12CB12C40ECC42E4FE7CF
:10391000D42EAD82BE82CF82D88676016501CD8657
:10392000DE86EF86F88A32CFE12CF12C00EC1FE71F
:10393000ED82FE820F83188757016801AD86BE862F
:10394000CF86D88A7801650121CF8091C2039091FA
:10395000C303E617F70718F42417350718F0009784
:1039600009F4B1C8009781F41092D7031092D603DE
:103970001092D3031092D203EE24E394F12CF09230
:10398000C303E092C2039FC82091C0033091C103DA
:1039900081309105A9F5232B71F49093C103809395
:1039A000C00389E793E00E94B50381E090E00E94A4
:1039B000470B0E94D20A8091D2039091D303409189
:1039C000D0035091D10308EE13E0409F9001419F36
:1039D000300D509F300D11248217930730F40A9652
:1039E0009093D3038093D2036EC81092D7031092A2
:1039F000D60382E090E09093C3038093C20363C830
:103A0000029709F060C82130310571F41092C103AA
:103A10001092C00389E593E00E94B50390E080E036
:103A20000E94470B0E94D20A8091D6039091D7033F
:103A30004091D4035091D50368EE73E0469F900106
:103A4000479F300D569F300D11248217930730F495
:103A50000A969093D7038093D60335C81092D30368
:103A60001092D20381E090E0C6CFF8944091B00369
:103A70005091B1036091B2037091B3032FBFAEC8F0
:103A8000A12CB12C90ECC92E9FE7D92EAD82BE821D
:103A9000CF82D886C7CB20E030E04AEA52E4698181
:103AA0007A818B819C810E94A81F18160CF083CD0F
:103AB0001BCEC12CD12C80ECE82E8FE7F82E99CDAF
:103AC0008091FD049091FE04009739F0DC01ED91A6
:103AD000FC910280F381E02D09958091FF04909183
:103AE0000005009739F0DC01ED91FC910280F38133
:103AF000E02D09958091010590910205009739F01C
:103B0000DC01ED91FC910280F381E02D0994089590
:103B10005058BB27AA270E94A01D0C946E1F0E941C
:103B2000601F38F00E94671F20F039F49F3F19F49E
:103B300026F40C944D1F0EF4E095E7FB0C94471F00
:103B4000E92F0E947F1F58F3BA1762077307840793
:103B5000950720F079F4A6F50C94A11F0EF4E095DA
:103B60000B2EBA2FA02D0B01B90190010C01CA0137
:103B7000A0011124FF27591B99F0593F50F4503EE2
:103B800068F11A16F040A22F232F342F4427585FD4
:103B9000F3CF469537952795A795F0405395C9F7EC
:103BA0007EF41F16BA0B620B730B840BBAF09150A4
:103BB000A1F0FF0FBB1F661F771F881FC2F70EC043
:103BC000BA0F621F731F841F48F487957795679516
:103BD000B795F7959E3F08F0B0CF9395880F08F002
:103BE0009927EE0F9795879508950E94231F08F453
:103BF00081E008950E940E1E0C946E1F0E94671FA4
:103C000058F00E94601F40F029F45F3F29F00C94A7
:103C1000471F51110C94A21F0C944D1F0E947F1F2F
:103C200068F39923B1F3552391F3951B550BBB27EB
:103C3000AA2762177307840738F09F5F5F4F220F30
:103C4000331F441FAA1FA9F335D00E2E3AF0E0E827
:103C500032D091505040E695001CCAF72BD0FE2F71
:103C600029D0660F771F881FBB1F26173707480705
:103C7000AB07B0E809F0BB0B802DBF01FF279358BD
:103C80005F4F3AF09E3F510578F00C94471F0C941B
:103C9000A21F5F3FE4F3983ED4F38695779567952E
:103CA000B795F7959F5FC9F7880F911D96958795F2
:103CB00097F90895E1E0660F771F881FBB1F621711
:103CC00073078407BA0720F0621B730B840BBA0BCF
:103CD000EE1F88F7E09508950E94731E6894B11155
:103CE0000C94A21F08950E94871F88F09F5798F098
:103CF000B92F9927B751B0F0E1F0660F771F881FF1
:103D0000991F1AF0BA95C9F714C0B13091F00E940A
:103D1000A11FB1E008950C94A11F672F782F882769
:103D2000B85F39F0B93FCCF3869577956795B39531
:103D3000D9F73EF490958095709561957F4F8F4FA0
:103D40009F4F089597FB16F40E94501F0C94E61E97
:103D5000E89409C097FB3EF4909580957095619525
:103D60007F4F8F4F9F4F9923A9F0F92F96E9BB27DB
:103D70009395F695879577956795B795F111F8CF57
:103D8000FAF4BB0F11F460FF1BC06F5F7F4F8F4FC2
:103D90009F4F16C0882311F096E911C0772321F0B8
:103DA0009EE8872F762F05C0662371F096E8862F50
:103DB00070E060E02AF09A95660F771F881FDAF7A7
:103DC000880F9695879597F90895E894F92F96EBC3
:103DD000FF2381F0121613061406440B9395F695F3
:103DE00087957795679557954040FF23B9F71BC096
:103DF00099270895882351F49850D2F7872B762F6E
:103E0000652F542F432F322F20E0B1F312161306E3
:103E10001406440B88233AF09A95440F551F661FE9
:103E2000771F881FCAF755234AF4440F551F11F412
:103E300060FF04C06F5F7F4F8F4F9F4F880F969535
:103E4000879597F90895990F0008550FAA0BE0E898
:103E5000FEEF16161706E807F907C0F0121613064C
:103E6000E407F50798F0621B730B840B950B39F48C
:103E70000A2661F0232B242B252B21F408950A26F2
:103E800009F4A140A6958FEF811D811D089597F932
:103E90009F6780E870E060E008959FEF80EC0895F0
:103EA00090958095709560955095409530952195A9
:103EB0003F4F4F4F5F4F6F4F7F4F8F4F9F4F089533
:103EC00000240A94161617061806090608950024F9
:103ED0000A9412161306140605060895092E039473
:103EE000000C11F4882352F0BB0F40F4BF2B11F4E7
:103EF00060FF04C06F5F7F4F8F4F9F4F089557FD46
:103F00009058440F551F59F05F3F71F04795880F47
:103F100097FB991F61F09F3F79F0879508951216DE
:103F200013061406551FF2CF4695F1DF08C016168A
:103F300017061806991FF1CF86957105610508943B
:103F40000895E894BB2766277727CB0197F9089552
:103F50000E94231F08F48FEF089516F00C943F2160
:103F60000C944D1F68940C94471F0E94871FA8F360
:103F70009923C1F3AEF3DF93CF931F930F93FF9277
:103F8000C92FDD2788232AF02197660F771F881F06
:103F9000DAF720E030E040E85FEB9FE3883920F07B
:103FA000803E38F021968F770E94891DE8E6F0E088
:103FB00004C00E94891DE5E9F0E00E9454218B01B4
:103FC000BE01EC01FB2E6F5771097595771F880BA9
:103FD000990B0E94AA1E28E132E741E35FE30E94A9
:103FE0001020AF2D9801AE01FF900F911F91CF913E
:103FF000DF910E94A01D0C946E1F0E9410200C9453
:104000006E1F0E94601F38F00E94671F20F09523EA
:1040100011F00C94471F0C944D1F11240C94A21FF7
:104020000E947F1F70F3959FC1F3950F50E0551FBD
:10403000629FF001729FBB27F00DB11D639FAA27FD
:10404000F00DB11DAA1F649F6627B00DA11D661F4C
:10405000829F2227B00DA11D621F739FB00DA11D6D
:10406000621F839FA00D611D221F749F3327A00D27
:10407000611D231F849F600D211D822F762F6A2FC3
:1040800011249F5750409AF0F1F088234AF0EE0F28
:10409000FF1FBB1F661F771F881F91505040A9F755
:1040A0009E3F510580F00C94471F0C94A21F5F3F68
:1040B000E4F3983ED4F3869577956795B795F79591
:1040C000E7959F5FC1F7FE2B880F911D9695879509
:1040D00097F90895FA01EE0FFF1F3096210531057B
:1040E000A1F16115710561F48038BFE39B0749F1C7
:1040F00068949038810561F08038BFEF9B0741F0EC
:1041000099234AF5FF3FE1053105210519F1E894AE
:104110000894E795D901AA2329F4AB2FBE2FF85FA5
:10412000D0F310C0FF5F70F4A695E0F7F73950F0B8
:1041300019F0FF3A38F49F779F930DD00F9007FC4A
:104140009058089546F00C944D1F60E070E080E8B0
:104150009FE308954FE79F775F934F933F932F938C
:104160000E94B51F2F913F914F915F910E94FD1FBB
:104170000C940D2119F416F40C944D1F0C943F214E
:104180000E94871FB8F39923C9F3B6F39F57550BC5
:1041900087FF0E944D210024A0E640EA900180584C
:1041A0005695979528F4805C660F771F881F20F03E
:1041B00026173707480730F4621B730B840B20293E
:1041C00031294A2BA69517940794202531254A2793
:1041D00058F7660F771F881F20F026173707480704
:1041E00030F4620B730B840B200D311D411DA09523
:1041F00081F7B901842F9158880F96958795089576
:104200000E94231F880B990B089529F416F00C9433
:10421000471F0C94A11F0C944D1F0E94871FA8F3E9
:104220009638A0F707F80F92E8942BE33AEA48EBA8
:104230005FE70E9413200F920F920F924DB75EB767
:104240000F920E94BD21E2ECF0E00E9454214F91B8
:104250005F91EF91FF91E595EE1FFF1F49F0FE572B
:10426000E0684427EE0F441FFA95E1F74195550B9E
:104270000E9487210F9007FE0C947B2108959F3F99
:1042800031F0915020F4879577956795B795880F11
:10429000911D9695879597F9089591505040660F16
:1042A000771F881FD2F70895DF93CF931F930F9343
:1042B000FF92EF92DF927B018C01689406C0DA2EA8
:1042C000EF010E941020FE01E894A59125913591FF
:1042D00045915591A6F3EF010E94A01DFE019701A3
:1042E000A801DA9469F7DF90EF90FF900F911F918A
:1042F000CF91DF9108959B01AC0160E070E080E810
:104300009FE30C94FA1D0C94471F0C943F210E94CC
:10431000871FD8F39923C9F3940F511DA3F391502C
:10432000504094F059F0882332F0660F771F881FB1
:1043300091505040C1F79E3F51052CF7880F911DB9
:104340009695879597F908955F3FACF0983E9CF05D
:10435000BB27869577956795B79508F4B1609395D7
:10436000C1F7BB0F58F711F460FFE8CF6F5F7F4FC5
:104370008F4F9F4FE3CF0C94A21FFA01DC01AA0FCD
:10438000BB1F9B01AC01BF5728F4222733274427CA
:10439000507820C0B75190F4AB2F00244695379544
:1043A0002795011CA395D2F3002071F0220F331F33
:1043B000441FB395DAF30ED00C94881D613071055B
:1043C000A0E88A07B94630F49B01AC01662777273D
:1043D00088279078309621F020833183428353835D
:1043E0000895DB018F939F930E942322BF91AF9189
:1043F000A29F800D911DA39F900DB29F900D11243F
:104400000895A1E21A2EAA1BBB1BFD010DC0AA1F15
:10441000BB1FEE1FFF1FA217B307E407F50720F02D
:10442000A21BB30BE40BF50B661F771F881F991FA8
:104430001A9469F760957095809590959B01AC01F1
:10444000BD01CF0108950E94BF23A59F900DB49F89
:10445000900DA49F800D911D11240895B7FF0C9419
:1044600023220E942322821B930B0895DF93CF9374
:104470001F930F939A9DF02D219FF00D8B9DF00DB2
:104480008A9DE02DF10D039FF00D029FE00DF11DBF
:104490004E9DE00DF11D5E9DF00D4F9DF00D7F9343
:1044A0006F93BF92AF925F934F93D5010E94BF234A
:1044B0008B01AC01D7010E94BF23EB01E80FF91F6C
:1044C000D6010E9485222F913F91D6010E94BF23E1
:1044D000C60FD71FE81FF91FAF91BF910E94852219
:1044E0002F913F910E94BF23C60FD71FE81FF91FCE
:1044F000D6010E94BF23E60FF71F9801BE01CF012E
:104500000F911F91CF91DF9108950E94BF23460F15
:10451000571FC81FD91F08F431960895689401C029
:10452000E894F92FF12B12F00C94C222A0E0B0E035
:10453000ECE9F2E20C943423092E059422F40E9453
:104540001E23112392F4F0E80F26FFEFE094F0947D
:1045500000951095B094C094D094A194BF0ACF0A4E
:10456000DF0AEF0AFF0A0F0B1F0B0E94CD2207FC88
:104570000E941E23CDB7DEB7ECE00C945023689464
:1045800001C0E8948F929F92CF93DF930E94CD2237
:10459000DF91CF919F908F90089588249924F40102
:1045A000E401B0E49F93AA279A158B049C04ED05BF
:1045B000FE05CF05D007A10798F4AD2FDC2FCF2F34
:1045C000FE2FE92D982C892E982F872F762F652F77
:1045D000542F432F322F2227B85031F7BF9127C0D5
:1045E0001B2EBF91BB27220F331F441F551F661F71
:1045F000771F881F991F881C991CEE1FFF1FCC1F57
:10460000DD1FAA1FBB1F8A149B04EC05FD05CE0508
:10461000DF05A007B10748F08A189B08EC09FD09DF
:10462000CE09DF09A00BB10B21601A94E1F62EF43C
:104630009401AF01BE01CD01000C08956095709505
:104640008095909530954095509521953F4F4F4FCF
:104650005F4F6F4F7F4F8F4F9F4F08952F923F9225
:104660004F925F926F927F928F929F92AF92BF9282
:10467000CF92DF92EF92FF920F931F93CF93DF932E
:10468000CDB7DEB7CA1BDB0B0FB6F894DEBF0FBE8B
:10469000CDBF09942A88398848885F846E847D84D8
:1046A0008C849B84AA84B984C884DF80EE80FD80DA
:1046B0000C811B81AA81B981CE0FD11D0FB6F89450
:1046C000DEBF0FBECDBFED010895002E083090F083
:1046D000982F872F762F652F542F432F322F222785
:1046E0000850F4CF220F331F441F551F661F771F3A
:1046F000881F991F0A95B2F7002D089597FD109411
:10470000002E083098F00850232F342F452F562FB5
:10471000672F782F892F912DF4CF15949795879532
:104720007795679557954795379527950A95AAF7F1
:104730001124002D08952A0D3B1D4C1D5D1D6E1D7D
:104740007F1D801F911F08952A193B094C095D099F
:104750006E097F09800B910B08950024A7FD00943A
:104760002A17300540055005600570058005900545
:104770000895EE0FFF1F0590F491E02D0994A29F7C
:10478000B001B39FC001A39F700D811D1124911D25
:10479000B29F700D811D1124911D08950F931F93D9
:1047A000CF93DF938230910510F482E090E0E091A6
:1047B0003A05F0913B0530E020E0B0E0A0E0309712
:1047C00099F42115310509F44AC0281B390B24300E
:1047D0003105D8F58A819B816115710589F1FB014D
:1047E00093838283FE0111C0408151810281138134
:1047F00048175907E0F04817590799F4109761F0E6
:1048000012960C93129713961C933296CF01DF9158
:10481000CF911F910F91089500933A0510933B0596
:10482000F4CF2115310551F04217530738F0A90193
:10483000DB019A01BD01DF01F801C1CFEF01F9CF22
:1048400090933B0580933A05CDCFFE01E20FF31F15
:10485000819391932250310939832883D7CF2091B6
:10486000380530913905232B41F420910A0130910C
:104870000B013093390520933805209108013091C0
:1048800009012115310541F42DB73EB740910C01C6
:1048900050910D01241B350BE0913805F09139053D
:1048A000E217F307A0F42E1B3F0B2817390778F007
:1048B000AC014E5F5F4F2417350748F04E0F5F1F66
:1048C0005093390540933805819391939FCFF0E041
:1048D000E0E09CCFCF93DF930097E9F0FC013297A3
:1048E00013821282A0913A05B0913B05ED0130E0B0
:1048F00020E01097A1F420813181820F931F209135
:104900003805309139052817390709F061C0F0934F
:104910003905E0933805DF91CF910895EA01CE176C
:10492000DF07E8F54A815B819E0141155105B1F72A
:10493000E901FB83EA8349915991C40FD51FEC1714
:10494000FD0761F4808191810296840F951FE90132
:1049500099838883828193819B838A83F0E0E0E05E
:1049600012968D919C9113970097B9F52D913C91DA
:104970001197CD010296820F931F20913805309137
:1049800039052817390739F6309751F510923B054C
:1049900010923A05B0933905A0933805BCCFD38364
:1049A000C28340815181840F951FC817D90761F4D4
:1049B0004E5F5F4F88819981480F591F5183408313
:1049C0008A819B81938382832115310509F0B0CFC1
:1049D000F0933B05E0933A059ECFFD01DC01C0CF8B
:1049E00013821282D7CF12E0C0E0D2E004C0FE01F1
:1049F0000E94B9232196C130D107C9F7F894FFCF9F
:104A0000323130342E30370000003C05800000C0C9
:104A1000C101C30302C2C60607C705C5C404CC0C46
:104A20000DCD0FCFCE0E0ACACB0BC90908C8D818B6
:104A300019D91BDBDA1A1EDEDF1FDD1D1CDC14D4C6
:104A4000D515D71716D6D21213D311D1D010F030F6
:104A500031F133F3F23236F6F737F53534F43CFC06
:104A6000FD3DFF3F3EFEFA3A3BFB39F9F83828E8B6
:104A7000E929EB2B2AEAEE2E2FEF2DEDEC2CE42486
:104A800025E527E7E62622E2E323E12120E0A060F6
:104A900061A163A3A26266A6A767A56564A46CACC6
:104AA000AD6DAF6F6EAEAA6A6BAB69A9A86878B836
:104AB000B979BB7B7ABABE7E7FBF7DBDBC7CB47446
:104AC00075B577B7B67672B2B373B17170B05090F6
:104AD00091519353529296565797559594549C5C86
:104AE0005D9D5F9F9E5E5A9A9B5B99595898884836
:104AF00049894B8B8A4A4E8E8F4F8D4D4C8C448406
:104B0000854587474686824243834181804000C174
:104B1000814001C0804101C0804100C1814001C08D
:104B2000804100C1814000C1814001C0804101C07D
:104B3000804100C1814000C1814001C0804100C16D
:104B4000814001C0804101C0804100C1814001C05D
:104B5000804100C1814000C1814001C0804100C14D
:104B6000814001C0804101C0804100C1814000C13D
:104B7000814001C0804101C0804100C1814001C02D
:104B8000804100C1814000C1814001C0804101C01D
:104B9000804100C1814000C1814001C0804100C10D
:104BA000814001C0804101C0804100C1814000C1FD
:104BB000814001C0804101C0804100C1814001C0ED
:104BC000804100C1814000C1814001C0804100C1DD
:104BD000814001C0804101C0804100C1814001C0CD
:104BE000804100C1814000C1814001C0804101C0BD
:104BF000804100C1814000C1814001C0804100C1AD
:104C0000814001C0804101C0804100C1814000005D
:104C100000006803C602F502D0032603040318034C
:104C200000000000E506B806B4088E06B1069E0630
:104C30008F060D0A006E616E00696E66006F766603
:024C4000000072
:107E0000112484B714BE81FFF0D085E080938100F7
:107E100082E08093C00088E18093C10086E0809377
:107E2000C20080E18093C4008EE0C9D0259A86E02C
:107E300020E33CEF91E0309385002093840096BBD3
:107E4000B09BFECF1D9AA8958150A9F7CC24DD24C4
:107E500088248394B5E0AB2EA1E19A2EF3E0BF2EE7
:107E6000A2D0813461F49FD0082FAFD0023811F036
:107E7000013811F484E001C083E08DD089C08234E0
:107E800011F484E103C0853419F485E0A6D080C0E4
:107E9000853579F488D0E82EFF2485D0082F10E0AE
:107EA000102F00270E291F29000F111F8ED06801E7
:107EB0006FC0863521F484E090D080E0DECF843638
:107EC00009F040C070D06FD0082F6DD080E0C81688
:107ED00080E7D80618F4F601B7BEE895C0E0D1E017
:107EE00062D089930C17E1F7F0E0CF16F0E7DF06D8
:107EF00018F0F601B7BEE89568D007B600FCFDCFD4
:107F0000A601A0E0B1E02C9130E011968C91119780
:107F100090E0982F8827822B932B1296FA010C0160
:107F200087BEE89511244E5F5F4FF1E0A038BF0790
:107F300051F7F601A7BEE89507B600FCFDCF97BE46
:107F4000E89526C08437B1F42ED02DD0F82E2BD052
:107F50003CD0F601EF2C8F010F5F1F4F84911BD097
:107F6000EA94F801C1F70894C11CD11CFA94CF0C13
:107F7000D11C0EC0853739F428D08EE10CD085E9AC
:107F80000AD08FE07ACF813511F488E018D01DD067
:107F900080E101D065CF982F8091C00085FFFCCF94
:107FA0009093C60008958091C00087FFFCCF809118
:107FB000C00084FD01C0A8958091C6000895E0E648
:107FC000F0E098E1908380830895EDDF803219F02E
:107FD00088E0F5DFFFCF84E1DECF1F93182FE3DFCA
:107FE0001150E9F7F2DF1F91089580E0E8DFEE27F6
:047FF000FF270994CA
:027FFE00040479
:0400000300007E007B
:00000001FF