:100000000C94DE010C9406020C9406020C94060279
:100010000C9406020C9406020C9406020C94060240
:100020000C9406020C9406020C9406020C94060230
:100030000C9406020C9406020C9406020C94060220
:100040000C94DC0C0C9406020C94AA0C0C94840CFA
:100050000C9406020C9406020C9406020C94060200
:100060000C94260D0C94060208000000BE92244950
:10007000123EABAAAA2ABECDCCCC4C3E00000080DA
:10008000BEABAAAAAA3E00000000BF000000803F4D
:100090000000000000084178D3BB4387D1133D190D
:1000A0000E3CC3BD4282AD2B3E68EC8276BED98F3A
:1000B000E1A93E4C80EFFFBE01C4FF7F3F0000007E
:1000C000000007634236B79BD8A71A39685618AEA6
:1000D000BAAB558C1D3CB7CC5763BD6DEDFD753E7D
:1000E000F6177231BF000000803F000000002500BD
:1000F00028002B0000000000240027002A00646F65
:100100006E6521005761697420666F72204D6F64BF
:1001100062757352545520636F6E666967757261BC
:1001200074696F6E2E2E2E0046494C544552204F56
:1001300046460031782074656D7065726174757221
:1001400065202F2031782068756D69646974792085
:100150002F203178207072657373757265206F7609
:10016000657273616D706C696E6700464F524345EE
:1001700044204D4F444500576561746865722053B3
:10018000746174696F6E205363656E6172696F008C
:10019000436F6D6D756E69636174696F6E20657311
:1001A0007461626C697368656421004944206F66FC
:1001B00020307846462070726F6261626C79206DE3
:1001C00065616E73206120626164206164647265A0
:1001D00073730053656E736F724944207761733A8D
:1001E000307800436865636B20776972696E672CAD
:1001F00020616464726573732C2073656E736F7213
:100200002049442100436F756C64206E6F74206632
:10021000696E6420612076616C696420424D4532CC
:1002200038302073656E736F7200536F6674776138
:1002300072652076657273696F6E3A2000424D4593
:1002400032383020574541544845522053454E538B
:100250004F5220424F4152442057495448204D4F5D
:10026000444255532052545500206269742F730044
:100270005374617274206D6F646275732F7365724D
:1002800069616C20617420002025004162736F6CED
:1002900075746548756D69646974792E2E2E200019
:1002A00020EFBFBD430048656174496E6465782ED8
:1002B0002E2E2E2E2E2E2E2E2E200020EFBFBD43B2
:1002C00000446577506F696E742E2E2E2E2E2E2EC2
:1002D0002E2E2E2E200020EFBFBD43005765742028
:1002E00074656D70657261747572652E2E2E2E2088
:1002F0000020250048756D69646974792E2E2E2EB4
:100300002E2E2E2E2E2E2E20002068506100507290
:100310006573737572652E2E2E2E2E2E2E2E2E2E7A
:100320002E200020EFBFBD43004472792074656D1C
:1003300070657261747572652E2E2E2E20002073EA
:1003400065632E00526566726573682074696D6519
:100350002E2E2E2E2E2E2E200053656E736F7220A1
:1003600076656E74696C6174696F6E2069733A208A
:1003700000000000002300260029000404040404F7
:100380000404040202020202020303030303030142
:100390000204081020408001020408102001020419
:1003A00008102000000008000201000003040700FC
:1003B0000000000000000000450EFA1C11241FBEC2
:1003C000CFEFD8E0DEBFCDBF13E0A0E0B1E0E4E3C3
:1003D000F9E402C005900D92A434B107D9F725E0E5
:1003E000A4E4B3E001C01D92A034B207E1F711E02C
:1003F000CDEDD1E004C02197FE010E945323CC3DF6
:10040000D107C9F70E94950E0C948D240C9400001E
:10041000CF92DF92EF92FF92CF936B017C01C42FBA
:10042000E0914D04F0914E0482E08083C11481EE8E
:10043000D806E104F104A1F060E079E08DE390E0FA
:10044000A70196010E949B212150310941095109C0
:100450005695479537952795211580E13807A8F0DF
:10046000E0914D04F0914E04108260E874E88EE152
:1004700090E0A70196010E949B212150310941097A
:1004800051095695479537952795E0914904F09184
:100490004A043083E0914B04F0914C042083109285
:1004A0005504E0915104F0915204C083E0914F044F
:1004B000F0915004808180618083E0914F04F0913D
:1004C0005004808188608083E0914F04F091500453
:1004D000808180688083E0914F04F0915004808196
:1004E0008F7D8083CF91FF90EF90DF90CF90089524
:1004F0008CBD9DBD0895CF92DF92EF92FF9220E0D8
:1005000030E040E251E40E94971F6B017C0120E043
:1005100030E0A9010E94421F20E030E040E05FE3AC
:1005200087FD0CC0C701B6010E94231D0E94061E54
:10053000CB01FF90EF90DF90CF900895C701B601F7
:100540000E94221DF3CFAF92BF92CF92DF92EF9223
:10055000FF920F931F93CF93DF936C017B018B016D
:10056000040F151FEB015E01AE18BF08C017D107BD
:1005700059F06991D601ED91FC910190F081E02D47
:10058000C6010995892B79F7C501DF91CF911F919C
:100590000F91FF90EF90DF90CF90BF90AF900895B4
:1005A00008950895FC01538D448D252F30E0842F4C
:1005B00090E0821B930B541710F0CF96089501978B
:1005C0000895FC01918D828D981761F0A28DAE0F78
:1005D000BF2FB11D5D968C91928D9F5F9F73928FFF
:1005E00090E008958FEF9FEF0895FC01918D828D2B
:1005F000981731F0828DE80FF11D858D90E00895F8
:100600008FEF9FEF0895FC01918D228D892F90E04F
:10061000805C9F4F821B91098F73992708958DE30A
:1006200094E00E94030321E0892B09F420E0822F4B
:10063000089580E090E0892B29F00E940F0381113A
:100640000C9400000895FC01A48DA80FB92FB11DD2
:10065000A35ABF4F2C91848D90E001968F739927F8
:10066000848FA689B7892C93A089B1898C918370D6
:1006700080648C93938D848D981306C00288F389CF
:10068000E02D80818F7D80830895EF92FF920F93FC
:100690001F93CF93DF93EC0181E0888F9B8D8C8D2E
:1006A00098131AC0E889F989808185FF15C09FB722
:1006B000F894EE89FF896083E889F98980818370E5
:1006C000806480839FBF81E090E0DF91CF911F9194
:1006D0000F91FF90EF900895F62E0B8D10E00F5FB5
:1006E0001F4F0F731127E02E8C8D8E110CC00FB68B
:1006F00007FCFACFE889F989808185FFF5CFCE0123
:100700000E942303F1CFEB8DEC0FFD2FF11DE35A77
:10071000FF4FF0829FB7F8940B8FEA89FB898081A5
:100720008062CFCF0F931F93CF93DF938C01D0E0E4
:10073000C0E0F801EC0FFD1F6491662341F08DE3EA
:1007400094E00E944503892B11F02196F2CFCE014F
:10075000DF91CF911F910F910895CF93DF93EC011B
:10076000888D8823B9F0AA89BB89E889F9898C9199
:1007700085FD03C0808186FD0DC00FB607FCF7CF55
:100780008C9185FFF2CF808185FFEDCFCE010E9455
:100790002303E9CFDF91CF910895833081F028F4CE
:1007A000813099F08230A9F008958730A9F088301F
:1007B000C9F08430B1F4809180008F7D03C08091B6
:1007C00080008F7780938000089584B58F7784BDF3
:1007D000089584B58F7DFBCF8091B0008F77809393
:1007E000B00008958091B0008F7DF9CF1F93CF9313
:1007F000DF93282F30E0F901ED55FC4F8491F9018A
:10080000E157FC4FD491F901E558FC4FC491CC233A
:10081000A9F0162F81110E94CD03EC2FF0E0EE0F0E
:10082000FF1FE651FF4FA591B4918FB7F894EC915B
:10083000111108C0D095DE23DC938FBFDF91CF91DB
:100840001F910895DE2BF8CFCF92DF92EF92FF92A7
:100850000F931F93CF93DF93909113059F3F81F4E4
:100860008EBD00000DB407FEFDCFFEB48F2DDF91CD
:10087000CF911F910F91FF90EF90DF90CF9008954F
:10088000D82EF12CC7E0D0E001E010E0FF0C60E0D2
:10089000809113050E94F603B8010C2E01C0660F6B
:1008A0000A94EAF76D21809111050E94F60361E038
:1008B000809113050E94F6032091120530E0F901A2
:1008C000ED55FC4F8491F901E157FC4FE490F9019B
:1008D000E558FC4FC490CC2081F081110E94CD03DB
:1008E000EC2DF0E0EE0FFF1FEF58FC4FA591B491F7
:1008F000EC91EE2211F06894F0F8219708F0C6CF41
:10090000B5CFCF93DF9390E0FC01E157FC4F2491EA
:1009100085589C4FFC0184918823D1F090E0880F8A
:10092000991FFC01EC50FF4FA591B491FC01E651D9
:10093000FF4FC591D49161110EC09FB7F8948C916F
:10094000E22FE0958E238C932881E223E8839FBFDA
:10095000DF91CF9108958FB7F894EC91E22BEC934F
:100960008FBFF6CF3FB7F8948091A9039091AA0367
:10097000A091AB03B091AC0326B5A89B05C02F3F57
:1009800019F00196A11DB11D3FBFBA2FA92F982FB5
:100990008827BC01CD01620F711D811D911D42E0B0
:1009A000660F771F881F991F4A95D1F708958F9278
:1009B0009F92AF92BF92CF92DF92EF92FF924B0144
:1009C0005C010E94B2046B017C010E94B2046C19AC
:1009D0007D098E099F09683E734081059105A8F342
:1009E00021E0821A9108A108B10888EEC80E83E0C0
:1009F000D81EE11CF11C81149104A104B10429F753
:100A0000FF90EF90DF90CF90BF90AF909F908F902E
:100A10000895FC0180819181009749F0FC012081BB
:100A200031812617370719F084819581F5CF089514
:100A3000CF93DF93EA016F5B73460E94090500972D
:100A400039F0FC01D383C28381E0DF91CF91089517
:100A500080E0FBCF0E940905009721F0FC01828114
:100A60009381089590E080E0089508952091850392
:100A7000260F3327331F21323105ECF42091330444
:100A8000FC0190E080E0243069F082E00895A091BC
:100A900085032191AC014B595C4FA40FB52FB11DBB
:100AA0002C930196861798F380918503680F6093C5
:100AB000850380E0089581E008951092330481E079
:100AC0008093120410920D0461E082E10E94F6030B
:100AD00061E083E10E94F603E9EBF0E080818E7F24
:100AE000808380818D7F808388E48093B80085E453
:100AF0008093BC000895CF93DF9391E090936403BB
:100B00008823B9F0C091B800D091BA008091BC00A0
:100B10008A7B8093BC0060E082E10E94F60360E083
:100B200083E10E94F6030E945D05D093BA00C09352
:100B3000B800DF91CF910895CF92DF92EF92FF92AC
:100B40000F931F93CF93DF93D82FC62F613208F0F6
:100B500098C00E94B2046B017C0180913304811122
:100B60006BC081E080933304809312049FEF9093D5
:100B70001104109210049C0F90930F0480930E04A4
:100B800080910E04DD0FD82BD0930E0480910D04BC
:100B9000813009F078C010920D040E94B2046B01FC
:100BA0007C0180910E048093BB008091350490916C
:100BB0003604A0913704B0913804892B8A2B8B2BF3
:100BC000A1F00E94B20400913504109136042091E6
:100BD0003704309138046C197D098E099F09061776
:100BE00017072807390708F448C08091BC0083FD27
:100BF000D8CF85EC8093BC000E94B2046B017C01CD
:100C000080913304813009F440C0809110048C1726
:100C100010F4C0911004EDEEF3E0A3E1B4E080E045
:100C20008C1355C08C2FDF91CF911F910F91FF90A6
:100C3000EF90DF90CF900895809135049091360425
:100C4000A0913704B0913804892B8A2B8B2B09F49F
:100C500084CF0E94B2040091350410913604209193
:100C60003704309138046C197D098E099F090617E5
:100C700017072807390708F070CF809134040E94C5
:100C80007B05C0E0CFCF85EEB5CF80913504909144
:100C90003604A0913704B0913804892B8A2B8B2B12
:100CA00009F4AECF0E94B2040091350410913604CD
:100CB00020913704309138046C197D098E099F0901
:100CC000061717072807390708F09ACFD6CF919152
:100CD0009D938F5FA5CF0895E091EC038091EB0386
:100CE000E81730F4F0E0ED5EFB4F808190E008956E
:100CF0008FEF9FEF08959091EC038091EB032FEF1E
:100D00003FEF981748F4E92FF0E0ED5EFB4F2081AC
:100D100030E09F5F9093EC03C90108958091EB034D
:100D20009091EC03891B990B0895CF92DF92EF927B
:100D3000FF920F931F93CF93DF937C01CB018A0126
:100D400020913C04222389F0EB016B01C40ED51ED7
:100D5000CC15DD0569F06991D701ED91FC91019009
:100D6000F081E02DC7010995F3CF642F0E9436056D
:100D7000C801DF91CF911F910F91FF90EF90DF900D
:100D8000CF900895CF93DF931F92CDB7DEB76983DD
:100D900020913C042223F9F020913904203258F0AC
:100DA00021E030E0FC013383228390E080E00F906B
:100DB000DF91CF91089580913A04E82FF0E0EC5B49
:100DC000FC4F998190838F5F80933A04809339041C
:100DD00081E090E0ECCF61E0CE0101960E94360503
:100DE000F7CFCF92DF92EF92FF920F931F93CF93A3
:100DF000DF93D091390481E0D13208F09CC0C091DA
:100E00003B040E94B2046B017C0180913304811188
:100E10006CC082E08093330481E0809312048FEFF2
:100E20008093110410921004D0930F04A4E4B3E053
:100E3000EDEEF3E080E0D8138DC010920E048091A7
:100E40000E04CC0FC82BC0930E0480910D0481308A
:100E500009F084C010920D040E94B2046B017C0161
:100E600080910E048093BB008091350490913604EC
:100E7000A0913704B0913804892B8A2B8B2BA1F0D9
:100E80000E94B20400913504109136042091370479
:100E9000309138046C197D098E099F0906171707D0
:100EA0002807390708F442C08091BC0083FDD8CFE1
:100EB00085EC8093BC000E94B2046B017C018091A0
:100EC0003304823009F44CC0809111048F3F09F43F
:100ED00069C080911104803209F466C080911104C8
:100EE000803309F463C084E026C08091350490917A
:100EF0003604A0913704B0913804892B8A2B8B2BB0
:100F000009F483CF0E94B204009135041091360495
:100F100020913704309138046C197D098E099F099E
:100F2000061717072807390708F06FCF8091340498
:100F30000E947B0585E010923A04109239041092C9
:100F40003C04DF91CF911F910F91FF90EF90DF90C4
:100F5000CF9008959D9191938F5F6DCF85EEA9CF2E
:100F60008091350490913604A0913704B0913804F3
:100F7000892B8A2B8B2B09F4A2CF0E94B2040091FB
:100F800035041091360420913704309138046C19DF
:100F90007D098E099F09061717072807390708F0EA
:100FA0008ECFC4CF80E0C7CF82E0C5CF83E0C3CF70
:100FB000CF93DF93D82FC62F809110058F3F59F51F
:100FC0008091FD049091FE042091070531E030935B
:100FD0003C0420933B0410923A0410923904DC0143
:100FE000ED91FC910190F081E02D6D2F099580919C
:100FF000FD049091FE04DC01ED91FC910190F081E3
:10100000E02D6C2F09958091FD049091FE04DF91F5
:10101000CF910C94F106809113058F3F21F482E566
:1010200091E00E94780260E0809110050E94F60332
:101030008D2F8F770E9424048C2F0E94240461E05E
:1010400080911005DF91CF910C94F603EF92FF92FF
:101050000F931F93CF93DF93CAE3D5E08295880F58
:10106000880F807C67704770440F440F440F862BB5
:10107000842B88838BE3E82E85E0F82E822F8295DF
:10108000880F807EF70120812F71282B208309E3B0
:1010900015E0F8018081807C808360E084EF0E940D
:1010A000D807F701608162956695677082EF0E94AC
:1010B000D807F8018081682F6770F0E26F9FB00158
:1010C0001124282F269526952695277094E0299F90
:1010D00090011124622B87FB882780F9682B85EF0C
:1010E0000E94D8078881682F6770E0E26E9FB00188
:1010F0001124282F2695269526952770F4E02F9FFA
:1011000090011124622B8295869586958370682BB9
:1011100084EFDF91CF911F910F91FF90EF900C948E
:10112000D80790E080E008958F929F92AF92BF928F
:10113000CF92DF92EF92FF92F82E809110058F3FB1
:1011400009F070C08091FD049091FE042091070584
:1011500031E030933C0420933B0410923A04109207
:101160003904DC01ED91FC910190F081E02D6F2DAF
:1011700009958091FD049091FE040E94F10663E0C0
:10118000809107050E949C051092EC038093EB036D
:101190008091FD049091FE04DC01ED91FC910284AC
:1011A000F385E02D09954C01990FAA08BB08BA2CCC
:1011B000A92C982C88248091FD049091FE04DC01D8
:1011C000ED91FC910284F385E02D0995092E000C28
:1011D000AA0BBB0B882A992AAA2ABB2ABA2CA92CAB
:1011E000982C88248091FD049091FE04DC01ED91FF
:1011F000FC910284F385E02D0995092E000CAA0BC1
:10120000BB0B6C017D01C828D928EA28FB28C7013F
:10121000B601FF90EF90DF90CF90BF90AF909F907E
:101220008F900895809113058F3F21F482E591E01E
:101230000E94780260E0809110050E94F6038F2DD5
:101240000E94240480E00E94240490E0B0E0A0E02A
:10125000CC24D82EE92EFA2E80E00E942404C82A3D
:10126000FE2CED2CDC2CCC2480E00E942404C82A27
:1012700061E0809110050E94F603C9CF8F929F9282
:10128000AF92BF92CF92DF92EF92FF928AEF0E94CD
:1012900094086115710520E88207910509F485C05D
:1012A0008090180590901905B12CA12CC72ED82E2E
:1012B000E92EFF24E7FCFA94C818D908EA08FB08CD
:1012C00037E095958795779567953A95D1F7880C8E
:1012D000991CAA1CBB1C9B01AC01281939094A099D
:1012E0005B09A0911A05B0911B050E94C8214B0112
:1012F0005C015BE0B594A794979487945A95D1F7D5
:10130000A7019601C701B6010E948B219B01AC0188
:101310006CE055954795379527956A95D1F7A0913B
:101320001C05B0911D050E94C8219B01AC017EE007
:1013300055954795379527957A95D1F7280D391DFD
:101340004A1D5B1D8091140590911505A09116050D
:10135000B0911705280F391F4A1F5B1F20930C05FA
:1013600030930D0540930E0550930F05A5E0B0E0B6
:101370000E94BD2160587F4F8F4F9F4F672F782F5E
:10138000892F992787FD9A950E94441E20E030E01E
:1013900048EC52E40E94941DFF90EF90DF90CF90B4
:1013A000BF90AF909F908F90089560E070E080ECC8
:1013B0009FE7F2CFCF93C82F809110058F3FA9F5FB
:1013C0008091FD049091FE042091070531E0309357
:1013D0003C0420933B0410923A0410923904DC013F
:1013E000ED91FC910190F081E02D6C2F0995809199
:1013F000FD049091FE040E94F10661E080910705D2
:101400000E949C051092EC038093EB038091FD04F5
:101410009091FE04DC01ED91FC910284F385E02DB6
:101420000995C82F8C2FCF910895809113058F3F78
:1014300021F482E591E00E94780260E0809110053D
:101440000E94F6038C2F0E94240480E00E94240452
:10145000C82F61E0809110050E94F603E3CFCF937F
:10146000DF93C82F809110058F3F09F046C080910F
:10147000FD049091FE042091070531E030933C0477
:1014800020933B0410923A0410923904DC01ED9150
:10149000FC910190F081E02D6C2F09958091FD0465
:1014A0009091FE040E94F10662E0809107050E947F
:1014B0009C051092EC038093EB038091FD049091C6
:1014C000FE04DC01ED91FC910284F385E02D099589
:1014D000C82F8091FD049091FE04DC01ED91FC91F8
:1014E0000284F385E02D099520E03C2FE901C82B0B
:1014F000D92BCE01DF91CF910895809113058F3FB5
:1015000021F482E591E00E94780260E0809110056C
:101510000E94F6038C2F0E94240480E00E94240481
:10152000C82F80E00E942404DC2FC82F61E0809146
:1015300010050E94F603DDCF0E942F0A9827892705
:1015400098270895FC0101900020E9F73197AF0139
:10155000481B590BBC018DE394E00C94A30284E377
:1015600093E00C94A20ACF93DF930E949203EC01C4
:101570000E94AF0A8C0F9D1FDF91CF9108958F922B
:101580009F92AF92BF920F931F93CF93DF93CDB7EC
:10159000DEB7A1970FB6F894DEBF0FBECDBF19A27C
:1015A000423008F44AE08E010F5D1F4F842E912CCB
:1015B000B12CA12CA50194010E949B21E62FB90119
:1015C000CA01EA30F4F4E05DD801EE938D01232BDB
:1015D000242B252B79F790E080E0109719F0CD01AE
:1015E0000E94A20AA1960FB6F894DEBF0FBECDBF2F
:1015F000DF91CF911F910F91BF90AF909F908F90EF
:101600000895E95CE1CFCF92DF92EF92FF92CF9302
:10161000DF936B017C016DE28DE394E00E94450352
:10162000EC0166277727CB016C197D098E099F098C
:101630004AE00E94BF0A8C0F9D1FDF91CF91FF905F
:10164000EF90DF90CF9008954F925F926F927F92CC
:101650008F929F92AF92BF92CF92DF92EF92FF92C2
:101660000F931F93CF936B017C01742EAC019B01F0
:101670000E949A20882399F087E393E0CF911F91ED
:101680000F91FF90EF90DF90CF90BF90AF909F9021
:101690008F907F906F905F904F900C94A20A4601BC
:1016A0005701E894B7F82FEF3FEF4FE75FE7C50129
:1016B000B4010E949A2081110DC02FEF3FEF4FE738
:1016C0005FE7C501B4010E948F1D18161CF48BE35F
:1016D00093E0D4CF2FEF3FEF4FE75FE4C701B601B0
:1016E0000E94421F18161CF48FE393E0C7CF2FEF20
:1016F0003FEF4FE75FECC701B6010E948F1D87FDEA
:10170000F3CF20E030E0A901C701B6010E948F1D90
:1017100010E000E087FF0AC06DE28DE394E00E94D4
:1017200045038C01F7FAF094F7F8F094C0E060E01C
:1017300070E080E09FE37C1641F020E030E040E282
:1017400051E40E94941DCF5FF6CFA70196010E943D
:10175000231D2B013C010E940D1E4B015C014AE040
:101760000E94BF0A7C01E00EF11ECC23C1F1C5012D
:10177000B4010E94421E9B01AC01C301B2010E9450
:10178000221D4B015C016EE28DE394E00E94450353
:10179000E80EF91EC15018F120E030E040E251E4BB
:1017A000C501B4010E94971F2B013C010E940D1E30
:1017B0004B01B12CA12C4AE0C501B4010E94BF0A23
:1017C000E80EF91EC501B4010E94421E9B01AC0146
:1017D000C301B2010E94221D4B015C01DBCFC70196
:1017E000CF911F910F91FF90EF90DF90CF90BF901E
:1017F000AF909F908F907F906F905F904F900895E3
:101800000F931F93CF93DF938C01EB0186E090E061
:101810000E946823FC0111830083D383C283158255
:1018200014828091E6049091E704892B69F4F09387
:10183000E704E093E604F093E904E093E804DF9121
:10184000CF911F910F910895A091E804B091E90400
:101850001596FC93EE931497EECF0F931F93CF93AF
:10186000DF93182F062FC6EED4E08C819D810E9455
:10187000042482E08E8382E090E00E946823FC01D1
:101880009D838C8310581083018383E08F83DF91C5
:10189000CF911F910F91089585ED8093BC008091A9
:1018A000350490913604A0913704B091380407961E
:1018B000A11DB11D23E0B695A795979587952A950B
:1018C000D1F72091BC0024FD03C010923304089589
:1018D000409135045091360460913704709138047A
:1018E000452B462B472B69F30097A105B10541F025
:1018F00025E32A95F1F700000197A109B109E1CF8D
:10190000809134040C947B051F920F920FB60F92B6
:1019100011242F933F934F935F936F937F938F93F4
:101920009F93AF93BF93EF93FF938DE394E00E9457
:101930002303FF91EF91BF91AF919F918F917F9181
:101940006F915F914F913F912F910F900FBE0F902C
:101950001F9018951F920F920FB60F9211242F937C
:101960008F939F93EF93FF93E0914D04F0914E047A
:101970008081E0915304F091540482FD1BC090815A
:10198000809156048F5F8F7320915704821741F026
:10199000E0915604F0E0E35CFB4F958F8093560492
:1019A000FF91EF919F918F912F910F900FBE0F900C
:1019B0001F9018958081F4CF1F920F920FB60F924F
:1019C00011242F933F938F939F93AF93BF93809155
:1019D000B2039091B303A091B403B091B5033091D9
:1019E000A80323E0230F2D3758F50196A11DB11D43
:1019F0002093A8038093B2039093B303A093B403FE
:101A0000B093B5038091A9039091AA03A091AB0371
:101A1000B091AC030196A11DB11D8093A9039093D1
:101A2000AA03A093AB03B093AC03BF91AF919F9176
:101A30008F913F912F910F900FBE0F901F9018958F
:101A400026E8230F0296A11DB11DD2CF1F920F923F
:101A50000FB60F9211242F933F934F935F936F9381
:101A60007F938F939F93AF93BF93EF93FF93809157
:101A7000B900887F803609F44AC0F0F5883209F44D
:101A8000A7C018F5803109F49BC0B8F4882309F485
:101A9000F9C0883009F494C0FF91EF91BF91AF91E4
:101AA0009F918F917F916F915F914F913F912F9176
:101AB0000F900FBE0F901F901895883109F488C0C1
:101AC000803251F78093110414C0803409F49DC012
:101AD00040F48033B9F38833F9F68093110485EC30
:101AE000B0C0803509F485C0883509F496C08834C3
:101AF00099F60E944C0CD0CF883909F48CC038F587
:101B0000883729F050F4883611F0803729F683E0C1
:101B1000809333041092A70357C0883809F47BC020
:101B2000803919F0803809F0B7CF8091A70380324F
:101B300008F071C0E091A70381E08E0F8093A703A6
:101B40008091BB00F0E0E957FC4F80833DC0803BB3
:101B500039F0E0F4803A09F479C0883A09F09CCF72
:101B600084E0809333041092860310928503E09101
:101B7000B003F091B10309958091850381110FC0E5
:101B800081E0809385031092650309C0803C09F4CD
:101B9000A6CF883C09F4A3CF883B09F07DCFE09124
:101BA000860381E08E0F80938603F0E0EB59FC4FB3
:101BB00080818093BB00909186038091850329C02A
:101BC00080910E048093BB0085EC8093BC0064CFB1
:101BD0009091100480910F04981758F5E09110042B
:101BE00081E08E0F80931004F0E0E351FC4F808180
:101BF000E9CFE091100481E08E0F80931004809172
:101C0000BB00F0E0E351FC4F808390911004809181
:101C10000F049817C8F285E8D8CFE091100481E04E
:101C20008E0F809310048091BB00F0E0E351FC4FD5
:101C300080838091120481115CCF81E080930D0438
:101C400084EA8093BC001092330426CF85EC809305
:101C5000BC00109233048091A703803230F4E091ED
:101C6000A703F0E0E957FC4F10826091A70370E0F2
:101C7000E091AE03F091AF0387E893E009951092ED
:101C8000A7030ACF1092110434CFEDE3F4E01382DE
:101C9000128288EE93E0A0E0B0E084839583A6836F
:101CA000B78324E133E03183208325EC30E03587AE
:101CB000248724EC30E03787268720EC30E0318B16
:101CC000208B21EC30E0338B228B22EC30E0358B03
:101CD000248B26EC30E0378B268B118E128E138EE0
:101CE000148EEAEDF4E01382128284839583A68336
:101CF000B78386E293E091838083EDEFF4E0158271
:101D0000148217821682118610868FEF838B848B44
:101D1000858B868B178A108E118E128EE6EEF4E07C
:101D200011821082138212820895CF93DF93CDB770
:101D3000DEB7A5970FB6F894DEBF0FBECDBF78947F
:101D400084B5826084BD84B5816084BD85B58260C0
:101D500085BD85B5816085BD80916E008160809371
:101D60006E001092810080918100826080938100DA
:101D700080918100816080938100809180008160EA
:101D8000809380008091B10084608093B100809145
:101D9000B00081608093B00080917A00846080936D
:101DA0007A0080917A00826080937A0080917A0034
:101DB000816080937A0080917A00806880937A00B5
:101DC0001092C10061E087E00E94810461E085E03B
:101DD0000E94810461E088E00E9481046091E40334
:101DE00087E00E94F6036091E20385E00E94F6031B
:101DF0006091B80388E00E94F6038FE090E0A0E0D5
:101E0000B0E08093DA039093DB03A093DC03B093FC
:101E1000DD0388E99AE3A0E0B0E08093DE039093CD
:101E2000DF03A093E003B093E10380EF90E0A0E034
:101E3000B0E08093CA039093CB03A093CC03B093FC
:101E4000CD031092CE031092CF031092D0031092C4
:101E5000D1038EE190E0A0E0B0E08093D2039093B4
:101E6000D303A093D403B093D5031092D60310925A
:101E7000D7031092D8031092D90346E060E875E2C8
:101E800080E090E00E94080280E792E00E949203C6
:101E90004AE060E875E280E090E00E94BF0A89E6CF
:101EA00092E00E94B30A0E94AF0A8DE392E00E9482
:101EB000B30A8AE292E00E94920380E091E00E94DD
:101EC000A20A0E94AF0A0E94AF0A87E78093070523
:101ED0008AED94E09093FE048093FD0480911005B8
:101EE0008F3F09F024C11092EC031092EB03109283
:101EF0003A04109239040E945D0580ED92E09093BF
:101F0000B1038093B00381ED92E09093AF0380938F
:101F1000AE0380ED0E94DA0990E0B0E0A0E080938B
:101F2000080590930905A0930A05B0930B05803628
:101F30009105A105B10509F44BC11092E60385E0B6
:101F400092E00E94B30A83EE91E00E94B30A83ED0F
:101F500091E00E94920360910805709109058091BB
:101F60000A0590910B0540E10E94BF0A0E94AF0A4A
:101F70008BEA91E00E94B30A84E091E00E94920310
:101F80006CED75E080E090E00E94D7048DE394E072
:101F90009093EF048093EE0489E090E09093F7042F
:101FA0008093F60446E060E875E280E090E00E94ED
:101FB000080260ED77E080E090E00E94D70461E0E5
:101FC00089E00E94810460E089E00E94F6038AE1D2
:101FD00096E09093F9048093F8048DE39EE090934B
:101FE000FB048093FA0481E08093FC046091C803B1
:101FF0007091C90385EA9CE90E94000C6091C603B8
:102000007091C70386EA9CE90E94000C6091C403AA
:102010007091C50387EA9CE90E94000C6091C2039D
:102020007091C30388EA9CE90E94000C6091C00390
:102030007091C10389EA9CE90E94000C6091BE0383
:102040007091BF038AEA9CE90E94000C6091BC0376
:102050007091BD038BEA9CE90E94000C6091DA0349
:102060007091DB0389E09DE90E94000C60910801FA
:10207000709109018AE09DE90E94000C6091CA03F9
:102080007091CB038BE09DE90E94000C6091D2031C
:102090007091D3038CE09DE90E94000C8EEF90E0DC
:1020A0000E94B30A0E94AF0A2FB7F8948091B2033E
:1020B0009091B303A091B403B091B5032FBF809367
:1020C000E7039093E803A093E903B093EA038091B8
:1020D000E603882309F48FC180913A05982F907CFC
:1020E000903409F04EC1682F677050E2659FB001CF
:1020F0001124282F269526952695277094E0299F50
:1021000090011124622B8295869586958370682BA9
:1021100084EF0E94D80783EF0E94DA0983FF31C160
:1021200061E070E080E090E00E94D704F4CF61E0CD
:102130000E94F60361E0809110050E948104809165
:1021400013058F3F09F036C0AFB6A982F89480918D
:10215000AD03811127C0E5E8F3E08491E9E9F3E0FC
:102160009491E82FF0E0EE0FFF1FEC50FF4FA59188
:10217000B491EC91E92321F461E08AE00E94F60336
:1021800061E08AE00E9481048CB580618CBD8CB5D1
:1021900080648CBD61E08DE00E94810461E08BE091
:1021A0000E9481048091AD038F5F8093AD03B9805D
:1021B000BFBEAFCE61E00E94810461E08091110555
:1021C0000E94810460E0809112050E948104A1CEEA
:1021D00066EB80EE0E94D8076AE070E080E090E055
:1021E0000E94D70483EF0E94DA0980FDF5CF88E8CA
:1021F0000E949C0A90931905809318058AE80E9412
:102200009C0A90931B0580931A058CE80E949C0AF7
:1022100090931D0580931C058EE80E949C0A909364
:102220001F0580931E0580E90E949C0A909321055A
:102230008093200582E90E949C0A90932305809355
:10224000220584E90E949C0A909325058093240529
:1022500086E90E949C0A909327058093260588E9C9
:102260000E949C0A90932905809328058AE90E9480
:102270009C0A90932B0580932A058CE90E949C0A66
:1022800090932D0580932C058EE90E949C0A9093D3
:102290002F0580932E0581EA0E94DA09809330058C
:1022A00081EE0E949C0A909332058093310583EE63
:1022B0000E94DA098093330584EE0E94DA0989834B
:1022C00085EE0E94DA09098110E1010290011124D2
:1022D0008F70282B309335052093340586EE0E94AD
:1022E000DA09898385EE0E94DA09398140E13402F6
:1022F0009001112490E064E0959587956A95E1F747
:10230000822B932B909337058093360587EE0E949E
:10231000DA098093380525E030E045E050E065E0DB
:1023200070E083E090E00E94260864E670E080E0C0
:1023300090E00E94D70481E08093E60380E991E079
:102340000E94B30A0E94AF0A87E791E00E94B30A95
:102350008BE691E00E94B30A83E391E00E94B30A06
:1023600088E291E00E94B30A0E94AF0A21E030E0C7
:1023700041E050E061E070E081E090E00E942608DA
:10238000FBCDA1E0B0E0B093E503A093E40310928D
:10239000E3031092E2031092EC048091EE0490911A
:1023A000EF04DC01ED91FC910084F185E02D0995AD
:1023B0004091EC04242F30E0281739073CF5809138
:1023C000EE049091EF04DC01ED91FC910084F18525
:1023D000E02D09958093EC048091F8049091F90424
:1023E00082309105D0F2880F991F880F991F0597A9
:1023F0000197F1F7D2CF1092E5031092E403E1E0E8
:10240000F0E0F093E303E093E203C5CF442309F443
:1024100038C2C9010E9468239093EB048093EA04B8
:1024200019822091EC04A980A216B0F48091EE04E8
:102430009091EF04DC01ED91FC910284F385E02D95
:102440000995E091EA04F091EB04EA0DF11D808317
:1024500009810F5F0983E5CFA090EA04B090EB04F7
:10246000BA82A982D5019C90BFEF9B1621F0809182
:10247000FC049812FEC19DEF920F492D409550E04B
:10248000FA01E05FFD4F80818095405F5E4FFA0169
:102490006081E981FA813196915070F041918427F1
:1024A000482F50E0DA01A05FBD4F8C918627405F36
:1024B0005E4FDA016C91F0CFA980BA80A20EB11CF8
:1024C000F5013297408131969081542F492F982FF2
:1024D000862F4817590709F0CCC1A981BA811196F6
:1024E000DC90119712960D911C91139710270127DC
:1024F00010271496ED90FC90FE24EF24FE24B6E005
:10250000DB1699F1E0E1DE1609F4F2C0F3E061E0D8
:102510008D2DDF123FC0C701019763E08D37910514
:1025200010F50F5B1346B80186EE94E00E94090592
:1025300062E0892BC1F089819A810E94042497016D
:102540002F5F3F4F220F29832093EC04822F90E0CE
:102550000E946823FC019093EB048093EA04892B8A
:1025600009F053C064E083E015C0A701B80186EE0E
:1025700094E00E94180562E0882359F0B8016F5B6F
:10258000734686EE94E00E942A05E816F90641F0AB
:1025900064E086E00E942D0CEFEF9E126AC066C0D8
:1025A00082E08093ED04AA24AA949A1409F45EC0F0
:1025B000C090EA04D090EB04DA82C9828091F604DC
:1025C0009091F70497FD09C061E00E94F60361E075
:1025D00070E080E090E00E94D70410E08091EE046B
:1025E0009091EF04DC01ED91FC912091EC04121725
:1025F00008F020C1A981BA81A10FB11D0190F0811D
:10260000E02D6C9109951F5FE9CFD08289818250BE
:1026100081831A821982C090EA04D090EB04A980C9
:10262000BA80EA14FB04E1F0B501600F711F86EE79
:1026300094E00E942A0595012F5F3F4F3A8329833A
:10264000220F331FF601E20FF31F90834091EA043B
:102650005091EB04240F351FD90111968C93DBCFD9
:1026600083E08093ED04BFEF9B1208C081E080936C
:10267000ED048091ED04833009F0F8C0A090EA04E5
:10268000B090EB04BA82A9828091F6049091F7048D
:1026900097FD09C061E00E94F60361E070E080E010
:1026A00090E00E94D7048091EE049091EF04DC0149
:1026B000ED91FC910190F081E02D6091FC04099571
:1026C00010E06091EC048091EE049091EF04DC0145
:1026D000ED91FC910190F081E02D161708F069C092
:1026E000A981BA81A10FB11D6C9109951F5FE9CF36
:1026F000C70101978B379105D8F4E981FA812681CA
:10270000C701880F991F2817190691F4B12CA12C25
:102710006801FFEBCF1AF3E6DF0AB6016A0D7B1DF5
:1027200086EE94E00E940905892B29F462E001C03D
:1027300063E080E12FCF2FEFA21AB20AAE14BF04DC
:1027400061F789819A810E94042435E03093EC047A
:1027500085E090E00E946823FC019093EB04809355
:10276000EA04892B11F464E0E4CF80E180831183D3
:1027700002831382E482D12CC12C49815A814E5F9D
:102780005F4F5A834983EC14FD0409F469CFDA01E1
:1027900015968C91159716964C91582FB8016C0D83
:1027A0007D1D86EE94E00E941805BFEFCB1ADB0A70
:1027B000E4CF4091FC04409550E0DA01A05FBD4FAA
:1027C000AC907A2D7095405F5E4FDA014C91A090ED
:1027D000EA04B090EB04BA82A982615090F0A9811A
:1027E000BA812D91BA83A9837227272F30E0D901AE
:1027F000A05FBD4F7C917427D901A05FBE4F4C9163
:10280000ECCFB72EA42EBA82A9826A810995809155
:10281000EE049091EF04DC01ED91FC910190F081C8
:10282000E02D698109958091EE049091EF04DC011F
:10283000ED91FC910680F781E02D09958091FA04D5
:102840009091FB048230910538F0880F991F880F12
:10285000991F05970197F1F78091F6049091F7047D
:1028600097FD07C060E00E94F60303C0823009F4C0
:102870009FCE8091EA049091EB040E940424109270
:10288000EC0469E07DE986EE94E00E942A05009759
:1028900061F06C01F12CE12C813F910550F000EFCB
:1028A000C02ED12CE12CF12C04C0C12CD12C7601EE
:1028B000C394C092DA03D092DB03E092DC03F0927F
:1028C000DD036CE07DE986EE94E00E942A058E31FE
:1028D000910510F18935B2E09B0718F5B0E0A0E052
:1028E0008093D2039093D303A093D403B093D503E2
:1028F0006BE07DE986EE94E00E942A058E31910519
:10290000A8F0B0E0A0E08935E2E09E0798F088E505
:1029100092E0A0E0B0E00EC08EE190E0A0E0B0E078
:10292000DFCF88E592E0A0E0B0E0DACF8EE190E082
:10293000A0E0B0E08093CA039093CB03A093CC03B4
:10294000B093CD036AE07DE986EE94E00E942A050B
:102950008F35F1E09F0710F08EE591E08436910508
:1029600010F484E690E0909309018093080180912F
:10297000E603882389F18090DE039090DF03A09026
:10298000E003B090E103A8EEB3E0A70196010E9436
:10299000BD2186169706A806B90608F075C00AE09C
:1029A000800E911CA11CB11C8092DE039092DF036B
:1029B000A092E003B092E1038091BA039091BB032F
:1029C0008230910509F48CC70CF046C7009709F4D2
:1029D0005BC7019709F46CC7A090B803B090B90326
:1029E000BA82A9828091B6039091B703A816B9065E
:1029F000A1F0B092B703A092B60389E593E00E94DC
:102A00009203B501BB0C880B990B97FFCFC70E94AF
:102A1000030B0E94AF0A0E94AF0A6091E40387E0B3
:102A20000E94F6036091E20385E00E94F603609144
:102A3000B80388E00E94F6032FB7F8948091B203A0
:102A40009091B303A091B403B091B5032FBF40910F
:102A5000E7035091E8036091E9037091EA03841B56
:102A6000950BA60BB70B0B97A105B10528F380E0DA
:102A700090E0892B09F418CB0E940F03882309F4F6
:102A800013CB0E94000010CB1092DE031092DF03E4
:102A90001092E0031092E1030E943E096D8B7E8B41
:102AA0008F8B988F0E943E0987EF0E94940869835C
:102AB0007A838B839C83611571058048910509F4A5
:102AC00029C580910C0590910D05A0910E05B0913E
:102AD0000F056C017D01FF0CCC08DC2C76019C01FC
:102AE000AD016C2D7C2D8C2D9C2D345F4140510906
:102AF0006109710981099109322E232E542E752EF8
:102B00004B018DA39CA3A22EB32EC42ED52E7B01E8
:102B10008C010E94D0212D8F3E8F4F8F58A369A327
:102B20007AA38BA3492E3091210520912005932F64
:102B3000990F990B492F592F692F792F892F0E94AF
:102B4000D0210CE00E94FF222D833D87642E598BFB
:102B5000698F7A8F8B8F9C8F30912305209122056E
:102B6000932F990F990BAD8CBE8CCF8CD8A0E9A078
:102B7000FAA00BA1142D492F592F692F792F892FD6
:102B80000E94D02108E00E941823AD80BD84C62C8D
:102B9000D988E98CFA8C0B8D1C8D0E9435237058D6
:102BA0008F4F9F4FE0911E05F0911F055F01D12CC3
:102BB000C12CE12CF12C8701ED83BE82CF82D88617
:102BC000E986FA860B871C87C12CD12CE12CF12CCD
:102BD00000E010E00E94D02101E20E9418232D8322
:102BE0003D87498B598F6A8F7B8F8C8F692EA0E030
:102BF0000E94472309F493C43091290520912805A8
:102C0000932F990F990BAD8CBE8CCF8CD8A0E9A0D7
:102C1000FAA00BA1142D492F592F692F792F892F35
:102C20000E94D021422E3D8F4E8F5F8F68A379A3E3
:102C30008AA39BA33091270520912605932F990FF6
:102C4000990BA32CB22CC52CD72C74010DA11CA15F
:102C5000492F592F692F792F892F0E94D02101E107
:102C60000E94FF22A42CBD8CCE8CDF8CE8A0F9A0A2
:102C70000AA11BA10E94352359016A017B01782E0C
:102C8000192F89819A81AB81BC8104E0B595A79504
:102C9000979587950A95D1F720E030E040E150E024
:102CA000281B390B4A0B5B0BC90119012A01550C72
:102CB0002208322C21019C01622D722D822D922D31
:102CC0000FE10E94FF2249014D8F5983B62FA72F94
:102CD000F82FE92F3091250520912405932F990F86
:102CE000990B492F592F692F792F892F03E20E94C1
:102CF000FF22072D0E94352359016A017B018C01B7
:102D000094014D8D59816B2F7A2F8F2F9E2F0E940A
:102D10003E23E5E3AE2EFCE0BF2EC12CD12CE12CEE
:102D2000F12C00E010E00E94D021AD80BD84C98864
:102D3000D98CEA8CFB8C0C8D162D0E942A222B8FAD
:102D4000232E49835D836D87798B898F9A8F0DE060
:102D50000E941823322E432E542E652E762E872E57
:102D6000982E9C8F30912F0520912E05932F990F2F
:102D7000990BA32CB42CC52CD62CE72CF82C092DA0
:102D80001C8D492F592F692F792F892F0E94D0210F
:102D90000E94D02109E10E941823AB8CB22CC9807B
:102DA000DD80ED84F988098D1A8D0E943523322E3D
:102DB000432E542E652E762E872E982E9C8F309182
:102DC0002D0520912C05932F990F990B492F592FE1
:102DD000692F792F892F0E94D02103E10E941823A7
:102DE00059016A017B018C01232D342D452D562D6F
:102DF000672D782D892D9C8D0E94352308E00E9437
:102E0000182359016A017B01E82F192F30912B05F6
:102E100020912A05932F990F990B492F592F692F2C
:102E2000792F892F04E00E94FF220E2F0E94352364
:102E30000E943C1E20E030E040E85BE30E94971FC8
:102E400020E030E048EC52E40E94941D6D877E87BC
:102E50008F87988B0E943E098DEF0E942F0AB0E069
:102E6000A0E0811530E89307A105B10509F4B7C3C7
:102E700040900C0550900D0560900E0570900F0568
:102E80004CE2541A41E0640A71086C017D01AEE025
:102E9000CC0CDD1CEE1CFF1CAA95D1F780913405EB
:102EA00090913505092E000CAA0BBB0B14E1880F7D
:102EB000991FAA1FBB1F1A95D1F7C81AD90AEA0A87
:102EC000FB0AA0913605B0913705A30192010E943B
:102ED000C821C61AD70AE80AF90A50E4D50EE11C3F
:102EE000F11C0FE0F594E794D794C7940A95D1F7B5
:102EF000A0913305B0E0A3010E94BD214B015C010C
:102F00008BE0B594A794979487948A95D1F780E83D
:102F1000980EA11CB11CA09138050A2E000CBB0B09
:102F20000E94C8212AE095958795779567952A95FF
:102F3000D1F7A50194010E948B219B01AC016AE0AD
:102F400055954795379527956A95D1F7405E5F4F20
:102F5000A0913105B09132050E94C821705E8F4F5B
:102F60009F4FEEE09595879577956795EA95D1F710
:102F7000A70196010E948B216B017C01FFE09595D2
:102F8000879577956795FA95D1F79B01AC010E94DB
:102F90008B219B01AC01A7E0559547953795279567
:102FA000AA95D1F7A0913005B0E00E94BD21B4E010
:102FB0009595879577956795BA95D1F7C61AD70AEB
:102FC000E80AF90AF7FE03C0C12CD12C760191E082
:102FD000C916D104E10499E1F9062CF0C12CD12CD9
:102FE000E12CF9E1FF2EC701B601ECE0959587953C
:102FF00077956795EA95D1F70E94441E20E030E06E
:1030000040E85AE30E94971F69837A838B839C83ED
:103010002D893E894F89588DCA01B9010E949A2095
:103020008111F8C329813A814B815C81CA01B901C0
:103030000E949A208111FFC32D853E854F855889B6
:10304000CA01B9010E949A208111B4C420E030E87D
:1030500044E854E46D857E858F8598890E94941D8F
:103060000E945A206B017C0126EA3BE944EC5BE3B9
:1030700069817A818B819C810E94971FA7019601AB
:103080000E94971F26E636E646EE5EE30E94231D69
:103090002D893E894F89588D0E94971F6D837E83AD
:1030A0008F83988720E030E048EC52E469817A8190
:1030B0008B819C810E94941D0E944F1F4B015C01DB
:1030C00020E030E04DE851E46D897E898F89988D4C
:1030D0000E94971F6B017C012DE33AE043E753E424
:1030E0006D897E898F89988D0E94231D9B01AC017B
:1030F000C701B6010E94941D6B017C01AC019B01CC
:10310000C501B4010E94231D2DE33AE043E753E4D7
:103110000E94971F2B013C01A501940160E070E023
:103120008DE891E40E94221DA70196010E94221DB4
:103130009B01AC01C301B2010E94941D698B7A8B83
:103140008B8B9C8B26E636E646EE5FE36D897E89A7
:103150008F89988D0E94971F20E030E040E052E474
:103160000E94231D698F7A8F8C0120E030E040E2BD
:1031700052E40E948F1D18160CF02CC220E030E0A3
:1031800048E852E4698D7A8DC8010E94221D2AE91F
:1031900039E949E95FE30E94971F6B017C0120E058
:1031A00030E044E752E4698D7A8DC8010E94231D06
:1031B0009B01AC01C701B6010E94231D6B017C017C
:1031C00022E133E840EC5DE369817A818B819C8167
:1031D0000E94971F9B01AC01C701B6010E94231DED
:1031E00020E030E040E05FE30E94971FF62EE72EDC
:1031F000D82EC92E20E030E04EE952E40E94421F52
:1032000087FD19C1298D3A8DA801698D7A8DC80174
:103210000E94971F4B015C0129813A814B815C819F
:10322000CA01B9010E94971F6B017C0121E133E2C1
:1032300043E050E4698D7A8DC8010E94971F29E10F
:1032400034E849E252E40E94221D2B013C0126E1B0
:103250003BE442E251E469817A818B819C810E9446
:10326000971F9B01AC01C301B2010E94231D2B01DA
:103270003C0128E436E246E65EEB698D7A8DC801B2
:103280000E94971F29813A814B815C810E94971F80
:103290009B01AC01C301B2010E94231D2B013C0123
:1032A00020EE3FE040EE5BEBC501B4010E94971FAA
:1032B0009B01AC01C301B2010E94231D2B013C0103
:1032C00028EF37E840E65DEBC701B6010E94971F83
:1032D0009B01AC01C301B2010E94231D2B013C01E3
:1032E0002CEA3DE041EA5AE3C501B4010E94971F70
:1032F00029813A814B815C810E94971F9B01AC011F
:10330000C301B2010E94231D2B013C0128EC3FE8C0
:103310004FE55AE3698D7A8DC8010E94971FA70176
:1033200096010E94971F9B01AC01C301B2010E944C
:10333000231D2B013C0121EF3BE845E056EBC50185
:10334000B4010E94971FA70196010E94971F9B013D
:10335000AC01C301B2010E94231DF62EE72ED82E28
:10336000C92E20E030E040E551E469817A818B810B
:103370009C810E948F1D87FFDFC020E030E040EA83
:1033800052E4698D7A8DC8010E94421F87FDD4C026
:1033900020E030E040EE52E4698D7A8DC8010E9451
:1033A0008F1D18160CF411C329813A814B815C8161
:1033B00060E070E080E591E40E94221D20E030E0B2
:1033C00040E85EE30E94971F4B015C0120E030E083
:1033D0004EEB52E4698D7A8DC8010E94221D2B01AB
:1033E0003C0120E030E0A9010E94421F18160CF0B9
:1033F0009AC0A301920160E070E088E891E40E9425
:10340000221D2EE33DEE40E75DE30E94971F0E94E0
:103410005A209B01AC01C501B4010E94971F9B017A
:10342000AC016F2D7E2D8D2D9C2D0E94221DF62E20
:10343000E72ED82EC92E2F2D3E2D4D2D5C2D6F2D14
:103440007E2D8D2D9C2D0E949A208111CCC220E0D2
:1034500030E040E052E46F2D7E2D8D2D9C2D0E949A
:10346000221D24EE38E34EE05FE30E94971F6B01BC
:103470007C0129E23CE54DE851E46D897E898F8924
:10348000988D0E94971F4B015C0120E030E843E7D4
:1034900053E46D897E898F89988D0E94231D9B013D
:1034A000AC01C501B4010E94941D9B01AC0164E50F
:1034B00078EF8DE290E40E94042021E835E943ECA6
:1034C00050E40E94971F29813A814B815C810E94C0
:1034D000971F2BE63FE140E951E40E94971F4B0103
:1034E0005C0123E333E948E853E46D897E898F89E1
:1034F000988D0E94231D24E138E045E051E40E94AC
:10350000971F9B01AC01C501B4010E94941D4B01A2
:103510005C017DC060E070E080EC9FE791CC60E0F2
:1035200070E0CB018DCC20E030E048E851E4C301ED
:10353000B2010E94231D65CF20E030E04AEA52E448
:1035400069817A818B819C810E94421F18160CF040
:1035500072CF20E030E040EA52E4698D7A8DC801F4
:103560000E94421F87FD67CF20E030E04EEA52E420
:10357000698D7A8DC8010E948F1D18160CF45BCFDF
:1035800020E030E04AEA52E469817A818B819C81B3
:103590000E94221D2AE037ED43EA5CE30E94971F58
:1035A0004B015C01298D3A8DA80160E070E08EEA44
:1035B00092E40E94221D9B01AC01C501B4010E944E
:1035C000971F9B01AC016F2D7E2D8D2D9C2D0E9490
:1035D000231D2DCFF98CEA8CD02EC12E2CCFA12CFF
:1035E000B12C60ECC62E6FE7D62EAD82BE82CF82A4
:1035F000D88676016501C98ADA8AEB8AFC8A970146
:10360000850109831A832B833C83460157016D8909
:103610007E898F89988D0E947B029093C903809345
:10362000C8036D857E858F8598890E947B02909363
:10363000C7038093C60369817A818B819C810E9434
:103640007B029093C5038093C4036D817E818F813B
:1036500098850E947B029093C3038093C20369897B
:103660007A898B899C890E947B029093C103809305
:10367000C003C701B6010E947B029093BF038093F1
:10368000BE03C501B4010E947B029093BD038093E9
:10369000BC0384E493E00E9492036091DA0370918A
:1036A000DB038091DC039091DD034AE00E94BF0AB6
:1036B0008EE393E00E94B30A89E293E00E949203B2
:1036C00042E06D897E898F89988D0E94240B83E268
:1036D00093E00E94B30A8EE093E00E94920342E0DE
:1036E0006D857E858F8598890E94240B89E093E003
:1036F0000E94B30A84EF92E00E94920342E0698143
:103700007A818B819C810E94240B81EF92E00E9440
:10371000B30A8CED92E00E94920342E06D817E81BB
:103720008F8198850E94240B86ED92E00E94B30A57
:1037300081EC92E00E94920342E069897A898B8948
:103740009C890E94240B8BEB92E00E94B30A86EACC
:1037500092E00E94920342E0C701B6010E94240B4E
:1037600080EA92E00E94B30A8BE892E00E94920302
:1037700042E0C501B4010E94240B88E892E00E9457
:10378000B30A0E94AF0A4091C8035091C90364E68E
:1037900070E086EE94E00E9418054091C6035091B7
:1037A000C70365E670E086EE94E00E94180540913C
:1037B000C4035091C50366E670E086EE94E00E9473
:1037C00018054091C2035091C30367E670E086EE8E
:1037D00094E00E9418054091C0035091C10368E62F
:1037E00070E086EE94E00E9418054091BE0350916F
:1037F000BF0369E670E086EE94E00E9418054091F0
:10380000BC035091BD036AE670E086EE94E00E942E
:103810001805D2C8A12CB12C50ECC52E5FE7D52ECF
:10382000AD82BE82CF82D88676016501C98ADA8AE6
:10383000EB8AFC8AEACEE12CF12C00EC1FE7ED824A
:10384000FE820F83188757016801A98ABA8ACB8A3A
:10385000DC8A78016501D9CE8330910509F474C002
:10386000049709F0B9C880910801909109010F9758
:103870002091C8033091C9038217930788F01092F2
:10388000BB031092BA03A8C82091C8033091C903A2
:1038900080910801909109018217930708F09CC854
:1038A000CC24C394D12CD092BB03C092BA0394C849
:1038B0001092CE031092CF031092D0031092D10336
:1038C0001092D6031092D7031092D8031092D90306
:1038D00022E0E22EF12CF092BB03E092BA037CC806
:1038E00001E010E01093B9030093B803C090CE0339
:1038F000D090CF03E090D003F090D1032091CA0381
:103900003091CB034091CC035091CD03A8EEB3E0AE
:103910000E94BD21C616D706E806F90670F41AE023
:10392000C10ED11CE11CF11CC092CE03D092CF037A
:10393000E092D003F092D1034FC823E030E03093FF
:10394000BB032093BA0348C81092B9031092B8037E
:10395000C090D603D090D703E090D803F090D9035D
:103960002091D2033091D3034091D4035091D503D9
:10397000A8EEB3E00E94BD21C616D706E806F906F8
:1039800070F43AE0C30ED11CE11CF11CC092D603C6
:10399000D092D703E092D803F092D9031DC844E037
:1039A00050E05093BB034093BA0316C84AE00E940C
:1039B000BF0A2FC8C12CD12C90ECE92E9FE7F92E1D
:1039C000CD82DE82EF82F8866DCB20E030E04AEADD
:1039D00052E469817A818B819C810E94421F181672
:1039E0000CF029CDC1CDC12CD12C80ECE82E8FE775
:1039F000F82E3FCD8091010590910205009739F096
:103A0000DC01ED91FC910280F381E02D099580911C
:103A1000030590910405009739F0DC01ED91FC91CC
:103A20000280F381E02D09958091050590910605AE
:103A3000009739F0DC01ED91FC910280F381E02DDB
:103A4000099408955058BB27AA270E943A1D0C9448
:103A5000081F0E94FA1E38F00E94011F20F039F45E
:103A60009F3F19F426F40C94E71E0EF4E095E7FB53
:103A70000C94E11EE92F0E94191F58F3BA17620730
:103A800073078407950720F079F4A6F50C943B1F83
:103A90000EF4E0950B2EBA2FA02D0B01B901900169
:103AA0000C01CA01A0011124FF27591B99F0593FAD
:103AB00050F4503E68F11A16F040A22F232F342FF5
:103AC0004427585FF3CF469537952795A795F04043
:103AD0005395C9F77EF41F16BA0B620B730B840B58
:103AE000BAF09150A1F0FF0FBB1F661F771F881F10
:103AF000C2F70EC0BA0F621F731F841F48F4879568
:103B000077956795B795F7959E3F08F0B0CF939559
:103B1000880F08F09927EE0F9795879508950E94D2
:103B2000BD1E08F481E008950E94A81D0C94081F92
:103B30000E94011F58F00E94FA1E40F029F45F3FD6
:103B400029F00C94E11E51110C943C1F0C94E71EBB
:103B50000E94191F68F39923B1F3552391F3951B24
:103B6000550BBB27AA2762177307840738F09F5F9E
:103B70005F4F220F331F441FAA1FA9F335D00E2E0B
:103B80003AF0E0E832D091505040E695001CCAF778
:103B90002BD0FE2F29D0660F771F881FBB1F26173B
:103BA00037074807AB07B0E809F0BB0B802DBF0112
:103BB000FF2793585F4F3AF09E3F510578F00C94E1
:103BC000E11E0C943C1F5F3FE4F3983ED4F38695CE
:103BD00077956795B795F7959F5FC9F7880F911D02
:103BE0009695879597F90895E1E0660F771F881FEE
:103BF000BB1F621773078407BA0720F0621B730BA1
:103C0000840BBA0BEE1F88F7E09508950E940D1EF5
:103C10006894B1110C943C1F08950E94211F88F0F4
:103C20009F5798F0B92F9927B751B0F0E1F0660F80
:103C3000771F881F991F1AF0BA95C9F714C0B130C1
:103C400091F00E943B1FB1E008950C943B1F672F39
:103C5000782F8827B85F39F0B93FCCF386957795F0
:103C60006795B395D9F73EF49095809570956195D9
:103C70007F4F8F4F9F4F089597FB16F40E94EA1EC7
:103C80000C94801EE89409C097FB3EF490958095B3
:103C9000709561957F4F8F4F9F4F9923A9F0F92F12
:103CA00096E9BB279395F695879577956795B79590
:103CB000F111F8CFFAF4BB0F11F460FF1BC06F5F76
:103CC0007F4F8F4F9F4F16C0882311F096E911C088
:103CD000772321F09EE8872F762F05C0662371F0A9
:103CE00096E8862F70E060E02AF09A95660F771FBD
:103CF000881FDAF7880F9695879597F90895E894C5
:103D0000F92F96EBFF2381F0121613061406440BCD
:103D10009395F69587957795679557954040FF233E
:103D2000B9F71BC099270895882351F49850D2F70A
:103D3000872B762F652F542F432F322F20E0B1F39E
:103D4000121613061406440B88233AF09A95440F72
:103D5000551F661F771F881FCAF755234AF4440F63
:103D6000551F11F460FF04C06F5F7F4F8F4F9F4F4F
:103D7000880F9695879597F90895990F0008550F24
:103D8000AA0BE0E8FEEF16161706E807F907C0F0E1
:103D900012161306E407F50798F0621B730B840BE9
:103DA000950B39F40A2661F0232B242B252B21F4C3
:103DB00008950A2609F4A140A6958FEF811D811D63
:103DC000089597F99F6780E870E060E008959FEF9D
:103DD00080EC0895909580957095609550954095EC
:103DE000309521953F4F4F4F5F4F6F4F7F4F8F4F14
:103DF0009F4F089500240A94161617061806090600
:103E0000089500240A941216130614060506089550
:103E1000092E0394000C11F4882352F0BB0F40F4D8
:103E2000BF2B11F460FF04C06F5F7F4F8F4F9F4F18
:103E3000089557FD9058440F551F59F05F3F71F09A
:103E40004795880F97FB991F61F09F3F79F0879501
:103E50000895121613061406551FF2CF4695F1DF8A
:103E600008C0161617061806991FF1CF869571051A
:103E7000610508940895E894BB2766277727CB014E
:103E800097F908950E94BD1E08F48FEF089516F06B
:103E90000C94D9200C94E71E68940C94E11E0E94A7
:103EA000211FA8F39923C1F3AEF3DF93CF931F93A0
:103EB0000F93FF92C92FDD2788232AF02197660FE1
:103EC000771F881FDAF720E030E040E85FEB9FE3E0
:103ED000883920F0803E38F021968F770E94231D8C
:103EE000E8E6F0E004C00E94231DE5E9F0E00E944E
:103EF000EE208B01BE01EC01FB2E6F577109759509
:103F0000771F880B990B0E94441E28E132E741E39A
:103F10005FE30E94AA1FAF2D9801AE01FF900F91A1
:103F20001F91CF91DF910E943A1D0C94081F0E94AF
:103F3000AA1F0C94081F0E94FA1E38F00E94011F4D
:103F400020F0952311F00C94E11E0C94E71E11242F
:103F50000C943C1F0E94191F70F3959FC1F3950F9D
:103F600050E0551F629FF001729FBB27F00DB11DFD
:103F7000639FAA27F00DB11DAA1F649F6627B00D8D
:103F8000A11D661F829F2227B00DA11D621F739F76
:103F9000B00DA11D621F839FA00D611D221F749F84
:103FA0003327A00D611D231F849F600D211D822FCB
:103FB000762F6A2F11249F5750409AF0F1F08823F2
:103FC0004AF0EE0FFF1FBB1F661F771F881F91501F
:103FD0005040A9F79E3F510580F00C94E11E0C94CF
:103FE0003C1F5F3FE4F3983ED4F386957795679541
:103FF000B795F795E7959F5FC1F7FE2B880F911D49
:104000009695879597F90895FA01EE0FFF1F309660
:1040100021053105A1F16115710561F48038BFE317
:104020009B0749F168949038810561F08038BFEFB3
:104030009B0741F099234AF5FF3FE1053105210532
:1040400019F1E8940894E795D901AA2329F4AB2F34
:10405000BE2FF85FD0F310C0FF5F70F4A695E0F7B5
:10406000F73950F019F0FF3A38F49F779F930DD04D
:104070000F9007FC9058089546F00C94E71E60E0FE
:1040800070E080E89FE308954FE79F775F934F9339
:104090003F932F930E944F1F2F913F914F915F911C
:1040A0000E94971F0C94A72019F416F40C94E71E95
:1040B0000C94D9200E94211FB8F39923C9F3B6F3B9
:1040C0009F57550B87FF0E94E7200024A0E640EA97
:1040D000900180585695979528F4805C660F771F5D
:1040E000881F20F026173707480730F4621B730B30
:1040F000840B202931294A2BA69517940794202553
:1041000031254A2758F7660F771F881F20F026179A
:104110003707480730F4620B730B840B200D311DF9
:10412000411DA09581F7B901842F9158880F96956C
:10413000879508950E94BD1E880B990B089529F458
:1041400016F00C94E11E0C943B1F0C94E71E0E9489
:10415000211FA8F39638A0F707F80F92E8942BE3F5
:104160003AEA48EB5FE70E94AD1F0F920F920F9261
:104170004DB75EB70F920E945721E2ECF0E00E942B
:10418000EE204F915F91EF91FF91E595EE1FFF1F9C
:1041900049F0FE57E0684427EE0F441FFA95E1F717
:1041A0004195550B0E9421210F9007FE0C9415217B
:1041B00008959F3F31F0915020F48795779567954A
:1041C000B795880F911D9695879597F90895915009
:1041D0005040660F771F881FD2F70895DF93CF9363
:1041E0001F930F93FF92EF92DF927B018C016894F3
:1041F00006C0DA2EEF010E94AA1FFE01E894A591E5
:104200002591359145915591A6F3EF010E943A1DF4
:10421000FE019701A801DA9469F7DF90EF90FF9013
:104220000F911F91CF91DF9108959B01AC0160E048
:1042300070E080E89FE30C94941D0C94E11E0C94B4
:10424000D9200E94211FD8F39923C9F3940F511D3F
:10425000A3F39150504094F059F0882332F0660F48
:10426000771F881F91505040C1F79E3F51052CF792
:10427000880F911D9695879597F908955F3FACF04B
:10428000983E9CF0BB27869577956795B79508F47F
:10429000B1609395C1F7BB0F58F711F460FFE8CFF9
:1042A0006F5F7F4F8F4F9F4FE3CF0C943C1FFA01FE
:1042B000DC01AA0FBB1F9B01AC01BF5728F42227CA
:1042C00033274427507820C0B75190F4AB2F0024F7
:1042D000469537952795011CA395D2F3002071F0E0
:1042E000220F331F441FB395DAF30ED00C94221D16
:1042F00061307105A0E88A07B94630F49B01AC0132
:104300006627772788279078309621F0208331839D
:10431000428353830895DB018F939F930E94BD21B5
:10432000BF91AF91A29F800D911DA39F900DB29F51
:10433000900D11240895A1E21A2EAA1BBB1BFD01AA
:104340000DC0AA1FBB1FEE1FFF1FA217B307E40774
:10435000F50720F0A21BB30BE40BF50B661F771FCC
:10436000881F991F1A9469F76095709580959095AC
:104370009B01AC01BD01CF0108950E945923A59F67
:10438000900DB49F900DA49F800D911D1124089550
:10439000B7FF0C94BD210E94BD21821B930B089591
:1043A000DF93CF931F930F939A9DF02D219FF00DD4
:1043B0008B9DF00D8A9DE02DF10D039FF00D029F66
:1043C000E00DF11D4E9DE00DF11D5E9DF00D4F9D28
:1043D000F00D7F936F93BF92AF925F934F93D50190
:1043E0000E9459238B01AC01D7010E945923EB0194
:1043F000E80FF91FD6010E941F222F913F91D6018D
:104400000E945923C60FD71FE81FF91FAF91BF9114
:104410000E941F222F913F910E945923C60FD71F40
:10442000E81FF91FD6010E945923E60FF71F9801D4
:10443000BE01CF010F911F91CF91DF9108950E948E
:104440005923460F571FC81FD91F08F431960895E6
:10445000689401C0E894F92FF12B12F00C945C22BF
:10446000A0E0B0E0E6E3F2E20C94CE22092E05943F
:1044700022F40E94B822112392F4F0E80F26FFEFF5
:10448000E094F09400951095B094C094D094A194C9
:10449000BF0ACF0ADF0AEF0AFF0A0F0B1F0B0E94A9
:1044A000672207FC0E94B822CDB7DEB7ECE00C947F
:1044B000EA22689401C0E8948F929F92CF93DF9391
:1044C0000E946722DF91CF919F908F90089588245A
:1044D0009924F401E401B0E49F93AA279A158B0470
:1044E0009C04ED05FE05CF05D007A10798F4AD2F7C
:1044F000DC2FCF2FFE2FE92D982C892E982F872F78
:10450000762F652F542F432F322F2227B85031F7A3
:10451000BF9127C01B2EBF91BB27220F331F441F03
:10452000551F661F771F881F991F881C991CEE1F37
:10453000FF1FCC1FDD1FAA1FBB1F8A149B04EC05A5
:10454000FD05CE05DF05A007B10748F08A189B08D6
:10455000EC09FD09CE09DF09A00BB10B21601A940B
:10456000E1F62EF49401AF01BE01CD01000C0895D7
:1045700060957095809590953095409550952195D2
:104580003F4F4F4F5F4F6F4F7F4F8F4F9F4F08955C
:104590002F923F924F925F926F927F928F929F9253
:1045A000AF92BF92CF92DF92EF92FF920F931F9341
:1045B000CF93DF93CDB7DEB7CA1BDB0B0FB6F894F2
:1045C000DEBF0FBECDBF09942A88398848885F8432
:1045D0006E847D848C849B84AA84B984C884DF80A3
:1045E000EE80FD800C811B81AA81B981CE0FD11D87
:1045F0000FB6F894DEBF0FBECDBFED010895002EBB
:10460000083090F0982F872F762F652F542F432F47
:10461000322F22270850F4CF220F331F441F551F7B
:10462000661F771F881F991F0A95B2F7002D0895FE
:1046300097FD1094002E083098F00850232F342F47
:10464000452F562F672F782F892F912DF4CF159452
:1046500097958795779567955795479537952795BA
:104660000A95AAF71124002D08952A0D3B1D4C1D13
:104670005D1D6E1D7F1D801F911F08952A193B0926
:104680004C095D096E097F09800B910B0895002488
:10469000A7FD00942A1730054005500560057005F8
:1046A000800590050895EE0FFF1F0590F491E02D11
:1046B0000994A29FB001B39FC001A39F700D811DFB
:1046C0001124911DB29F700D811D1124911D08951B
:1046D0000F931F93CF93DF938230910510F482E004
:1046E00090E0E0913E05F0913F0530E020E0B0E041
:1046F000A0E0309799F42115310509F44AC0281B30
:10470000390B24303105D8F58A819B8161157105FB
:1047100089F1FB0193838283FE0111C040815181A5
:104720000281138148175907E0F04817590799F497
:10473000109761F012960C93129713961C93329671
:10474000CF01DF91CF911F910F91089500933E0506
:1047500010933F05F4CF2115310551F0421753074F
:1047600038F0A901DB019A01BD01DF01F801C1CFD9
:10477000EF01F9CF90933F0580933E05CDCFFE0129
:10478000E20FF31F819391932250310939832883DB
:10479000D7CF20913C0530913D05232B41F420914A
:1047A0000C0130910D0130933D0520933C05209183
:1047B0000A0130910B012115310541F42DB73EB7A7
:1047C00040910E0150910F01241B350BE0913C05E7
:1047D000F0913D05E217F307A0F42E1B3F0B2817BD
:1047E000390778F0AC014E5F5F4F2417350748F06A
:1047F0004E0F5F1F50933D0540933C05819391936D
:104800009FCFF0E0E0E09CCFCF93DF930097E9F0FB
:10481000FC01329713821282A0913E05B0913F05B0
:10482000ED0130E020E01097A1F420813181820F6A
:10483000931F20913C0530913D052817390709F059
:1048400061C0F0933D05E0933C05DF91CF91089561
:10485000EA01CE17DF07E8F54A815B819E01411529
:104860005105B1F7E901FB83EA8349915991C40FDE
:10487000D51FEC17FD0761F4808191810296840FAA
:10488000951FE90199838883828193819B838A8321
:10489000F0E0E0E012968D919C9113970097B9F5A6
:1048A0002D913C911197CD010296820F931F20917B
:1048B0003C0530913D052817390739F6309751F5F9
:1048C00010923F0510923E05B0933D05A0933C0524
:1048D000BCCFD383C28340815181840F951FC817F9
:1048E000D90761F44E5F5F4F88819981480F591F46
:1048F000518340838A819B81938382832115310573
:1049000009F0B0CFF0933F05E0933E059ECFFD0147
:10491000DC01C0CF13821282D7CF11E0CDEDD1E000
:1049200004C0FE010E9453232196CE3DD107C9F752
:04493000F894FFCF29
:10493400323130342E303700FA0000004005800058
:1049440000C0C101C30302C2C60607C705C5C4042B
:10495400CC0C0DCD0FCFCE0E0ACACB0BC90908C89B
:10496400D81819D91BDBDA1A1EDEDF1FDD1D1CDC8B
:1049740014D4D515D71716D6D21213D311D1D010FB
:10498400F03031F133F3F23236F6F737F53534F4EB
:104994003CFCFD3DFF3F3EFEFA3A3BFB39F9F8385B
:1049A40028E8E929EB2B2AEAEE2E2FEF2DEDEC2C4B
:1049B400E42425E527E7E62622E2E323E12120E0BB
:1049C400A06061A163A3A26266A6A767A56564A4AB
:1049D4006CACAD6DAF6F6EAEAA6A6BAB69A9A8681B
:1049E40078B8B979BB7B7ABABE7E7FBF7DBDBC7C0B
:1049F400B47475B577B7B67672B2B373B17170B07B
:104A0400509091519353529296565797559594546A
:104A14009C5C5D9D5F9F9E5E5A9A9B5B99595898DA
:104A2400884849894B8B8A4A4E8E8F4F8D4D4C8CCA
:104A3400448485458747468682424383418180403A
:104A440000C1814001C0804101C0804100C181405A
:104A540001C0804100C1814000C1814001C080414A
:104A640001C0804100C1814000C1814001C080413A
:104A740000C1814001C0804101C0804100C181402A
:104A840001C0804100C1814000C1814001C080411A
:104A940000C1814001C0804101C0804100C181400A
:104AA40000C1814001C0804101C0804100C18140FA
:104AB40001C0804100C1814000C1814001C08041EA
:104AC40001C0804100C1814000C1814001C08041DA
:104AD40000C1814001C0804101C0804100C18140CA
:104AE40000C1814001C0804101C0804100C18140BA
:104AF40001C0804100C1814000C1814001C08041AA
:104B040000C1814001C0804101C0804100C1814099
:104B140001C0804100C1814000C1814001C0804189
:104B240001C0804100C1814000C1814001C0804179
:104B340000C1814001C0804101C0804100C1814069
:104B4400000000004503A302D202AD030303E10207
:104B5400F50200000000C206950691086B068E0659
:104B64007B066C060D0A006E616E00696E66006F4E
:044B74007666000061
:107E0000112484B714BE81FFF0D085E080938100F7
:107E100082E08093C00088E18093C10086E0809377
:107E2000C20080E18093C4008EE0C9D0259A86E02C
:107E300020E33CEF91E0309385002093840096BBD3
:107E4000B09BFECF1D9AA8958150A9F7CC24DD24C4
:107E500088248394B5E0AB2EA1E19A2EF3E0BF2EE7
:107E6000A2D0813461F49FD0082FAFD0023811F036
:107E7000013811F484E001C083E08DD089C08234E0
:107E800011F484E103C0853419F485E0A6D080C0E4
:107E9000853579F488D0E82EFF2485D0082F10E0AE
:107EA000102F00270E291F29000F111F8ED06801E7
:107EB0006FC0863521F484E090D080E0DECF843638
:107EC00009F040C070D06FD0082F6DD080E0C81688
:107ED00080E7D80618F4F601B7BEE895C0E0D1E017
:107EE00062D089930C17E1F7F0E0CF16F0E7DF06D8
:107EF00018F0F601B7BEE89568D007B600FCFDCFD4
:107F0000A601A0E0B1E02C9130E011968C91119780
:107F100090E0982F8827822B932B1296FA010C0160
:107F200087BEE89511244E5F5F4FF1E0A038BF0790
:107F300051F7F601A7BEE89507B600FCFDCF97BE46
:107F4000E89526C08437B1F42ED02DD0F82E2BD052
:107F50003CD0F601EF2C8F010F5F1F4F84911BD097
:107F6000EA94F801C1F70894C11CD11CFA94CF0C13
:107F7000D11C0EC0853739F428D08EE10CD085E9AC
:107F80000AD08FE07ACF813511F488E018D01DD067
:107F900080E101D065CF982F8091C00085FFFCCF94
:107FA0009093C60008958091C00087FFFCCF809118
:107FB000C00084FD01C0A8958091C6000895E0E648
:107FC000F0E098E1908380830895EDDF803219F02E
:107FD00088E0F5DFFFCF84E1DECF1F93182FE3DFCA
:107FE0001150E9F7F2DF1F91089580E0E8DFEE27F6
:047FF000FF270994CA
:027FFE00040479
:0400000300007E007B
:00000001FF