:100000000C94F1010C9419020C9419020C9419022D
:100010000C9419020C9419020C9419020C941902F4
:100020000C9419020C9419020C9419020C941902E4
:100030000C9419020C9419020C9419020C941902D4
:100040000C94050D0C9419020C94D30C0C94AD0C6B
:100050000C9419020C9419020C9419020C941902B4
:100060000C944F0D0C94190208000000BE92244914
:10007000123EABAAAA2ABECDCCCC4C3E00000080DA
:10008000BEABAAAAAA3E00000000BF000000803F4D
:100090000000000000084178D3BB4387D1133D190D
:1000A0000E3CC3BD4282AD2B3E68EC8276BED98F3A
:1000B000E1A93E4C80EFFFBE01C4FF7F3F0000007E
:1000C000000007634236B79BD8A71A39685618AEA6
:1000D000BAAB558C1D3CB7CC5763BD6DEDFD753E7D
:1000E000F6177231BF000000803F000000002500BD
:1000F00028002B0000000000240027002A00646F65
:100100006E6521005761697420666F72204D6F64BF
:1001100062757352545520636F6E666967757261BC
:1001200074696F6E2E2E2E0046494C544552204F56
:1001300046460031782074656D7065726174757221
:1001400065202F2031782068756D69646974792085
:100150002F203178207072657373757265206F7609
:10016000657273616D706C696E6700464F524345EE
:1001700044204D4F444500576561746865722053B3
:10018000746174696F6E205363656E6172696F008C
:10019000436F6D6D756E69636174696F6E20657311
:1001A0007461626C697368656421004944206F66FC
:1001B00020307846462070726F6261626C79206DE3
:1001C00065616E73206120626164206164647265A0
:1001D00073730053656E736F724944207761733A8D
:1001E000307800436865636B20776972696E672CAD
:1001F00020616464726573732C2073656E736F7213
:100200002049442100436F756C64206E6F74206632
:10021000696E6420612076616C696420424D4532CC
:1002200038302073656E736F7200536F6674776138
:1002300072652076657273696F6E3A2000424D4593
:1002400032383020574541544845522053454E538B
:100250004F5220424F4152442057495448204D4F5D
:10026000444255532052545500206269742F730044
:100270005374617274206D6F646275732F7365724D
:1002800069616C20617420002025004162736F6CED
:1002900075746548756D69646974792E2E2E200019
:1002A00020EFBFBD430048656174496E6465782ED8
:1002B0002E2E2E2E2E2E2E2E2E200020EFBFBD43B2
:1002C00000446577506F696E742E2E2E2E2E2E2EC2
:1002D0002E2E2E2E200020EFBFBD43005765742028
:1002E00074656D70657261747572652E2E2E2E2088
:1002F0000020250048756D69646974792E2E2E2EB4
:100300002E2E2E2E2E2E2E20002068506100507290
:100310006573737572652E2E2E2E2E2E2E2E2E2E7A
:100320002E200020EFBFBD43004472792074656D1C
:1003300070657261747572652E2E2E2E20002073EA
:1003400065632E00526566726573682074696D6519
:100350002E2E2E2E2E2E2E200053656E736F7220A1
:1003600076656E74696C6174696F6E2069733A208A
:100370004143544956450053656E736F722076654C
:100380006E74696C6174696F6E2069733A20494EAE
:10039000414354495645000000000023002600292F
:1003A000000404040404040404020202020202031E
:1003B0000303030303010204081020408001020428
:1003C00008102001020408102000000008000201AB
:1003D00000000304070000000000000000006E0E93
:1003E000BE1C11241FBECFEFD8E0DEBFCDBF13E08F
:1003F000A0E0B1E0ECEBF8E402C005900D92A2346D
:10040000B107D9F725E0A2E4B3E001C01D92A833FB
:10041000B207E1F711E0C0EFD1E004C02197FE017F
:100420000E941723CF3ED107C9F70E94BE0E0C943D
:1004300051240C940000CF92DF92EF92FF92CF9361
:100440006B017C01C42FE0914504F091460482E0E9
:100450008083C11481EED806E104F104A1F060E0CC
:1004600079E08DE390E0A70196010E945F21215081
:100470003109410951095695479537952795211519
:1004800080E13807A8F0E0914504F091460410821D
:1004900060E874E88EE190E0A70196010E945F2178
:1004A00021503109410951095695479537952795AE
:1004B000E0914104F09142043083E0914304F091D3
:1004C0004404208310924D04E0914904F0914A04C1
:1004D000C083E0914704F09148048081806180836B
:1004E000E0914704F0914804808188608083E09126
:1004F0004704F0914804808180688083E09147043C
:10050000F091480480818F7D8083CF91FF90EF90A0
:10051000DF90CF9008958CBD9DBD0895CF92DF925E
:10052000EF92FF9220E030E040E251E40E945B1F36
:100530006B017C0120E030E0A9010E94061F20E051
:1005400030E040E05FE387FD0CC0C701B6010E94C8
:10055000E71C0E94CA1DCB01FF90EF90DF90CF9067
:100560000895C701B6010E94E61CF3CFAF92BF9277
:10057000CF92DF92EF92FF920F931F93CF93DF936F
:100580006C017B018B01040F151FEB015E01AE189E
:10059000BF08C017D10759F06991D601ED91FC91C0
:1005A0000190F081E02DC6010995892B79F7C501ED
:1005B000DF91CF911F910F91FF90EF90DF90CF903F
:1005C000BF90AF90089508950895FC01538D448D18
:1005D000252F30E0842F90E0821B930B541710F0EE
:1005E000CF96089501970895FC01918D828D9817FB
:1005F00061F0A28DAE0FBF2FB11D5D968C91928DD3
:100600009F5F9F73928F90E008958FEF9FEF089503
:10061000FC01918D828D981731F0828DE80FF11DCC
:10062000858D90E008958FEF9FEF0895FC01918DE7
:10063000228D892F90E0805C9F4F821B91098F73E0
:100640009927089585E394E00E94160321E0892B01
:1006500009F420E0822F089580E090E0892B29F0B2
:100660000E94220381110C9400000895FC01A48DC6
:10067000A80FB92FB11DA35ABF4F2C91848D90E0C4
:1006800001968F739927848FA689B7892C93A089A7
:10069000B1898C91837080648C93938D848D981331
:1006A00006C00288F389E02D80818F7D80830895C4
:1006B000EF92FF920F931F93CF93DF93EC0181E0B2
:1006C000888F9B8D8C8D98131AC0E889F989808159
:1006D00085FF15C09FB7F894EE89FF896083E8898C
:1006E000F98980818370806480839FBF81E090E07E
:1006F000DF91CF911F910F91FF90EF900895F62E0B
:100700000B8D10E00F5F1F4F0F731127E02E8C8DA4
:100710008E110CC00FB607FCFACFE889F9898081E9
:1007200085FFF5CFCE010E943603F1CFEB8DEC0FA4
:10073000FD2FF11DE35AFF4FF0829FB7F8940B8F06
:10074000EA89FB8980818062CFCF0F931F93CF937B
:10075000DF938C01D0E0C0E0F801EC0FFD1F649145
:10076000662341F085E394E00E945803892B11F041
:100770002196F2CFCE01DF91CF911F910F91089575
:10078000CF93DF93EC01888D8823B9F0AA89BB89C8
:10079000E889F9898C9185FD03C0808186FD0DC0B3
:1007A0000FB607FCF7CF8C9185FFF2CF808185FFD4
:1007B000EDCFCE010E943603E9CFDF91CF910895AE
:1007C000833081F028F4813099F08230A9F00895C7
:1007D0008730A9F08830C9F08430B1F4809180006E
:1007E0008F7D03C0809180008F7780938000089573
:1007F00084B58F7784BD089584B58F7DFBCF8091BC
:10080000B0008F778093B00008958091B0008F7D05
:10081000F9CF1F93CF93DF93282F30E0F901E753EF
:10082000FC4F8491F901EB54FC4FD491F901EF5541
:10083000FC4FC491CC23A9F0162F81110E94E00334
:10084000EC2FF0E0EE0FFF1FE651FF4FA591B491A2
:100850008FB7F894EC91111108C0D095DE23DC938A
:100860008FBFDF91CF911F910895DE2BF8CFCF92EC
:10087000DF92EF92FF920F931F93CF93DF939091AC
:100880000B059F3F81F48EBD00000DB407FEFDCF28
:10089000FEB48F2DDF91CF911F910F91FF90EF90BC
:1008A000DF90CF900895D82EF12CC7E0D0E001E082
:1008B00010E0FF0C60E080910B050E940904B80174
:1008C0000C2E01C0660F0A94EAF76D21809109058C
:1008D0000E94090461E080910B050E9409042091A7
:1008E0000A0530E0F901E753FC4F8491F901EB541C
:1008F000FC4FE490F901EF55FC4FC490CC2081F0FF
:1009000081110E94E003EC2DF0E0EE0FFF1FE9568D
:10091000FC4FA591B491EC91EE2211F06894F0F89F
:10092000219708F0C6CFB5CFCF93DF9390E0FC01BD
:10093000EB54FC4F24918F559C4FFC0184918823EC
:10094000D1F090E0880F991FFC01EC50FF4FA5916A
:10095000B491FC01E651FF4FC591D49161110EC0D5
:100960009FB7F8948C91E22FE0958E238C93288189
:10097000E223E8839FBFDF91CF9108958FB7F8946A
:10098000EC91E22BEC938FBFF6CF3FB7F8948091B8
:10099000A7039091A803A091A903B091AA0326B53B
:1009A000A89B05C02F3F19F00196A11DB11D3FBFA7
:1009B000BA2FA92F982F8827BC01CD01620F711D76
:1009C000811D911D42E0660F771F881F991F4A9570
:1009D000D1F708958F929F92AF92BF92CF92DF92FC
:1009E000EF92FF924B015C010E94C5046B017C01F8
:1009F0000E94C5046C197D098E099F09683E7340E9
:100A000081059105A8F321E0821A9108A108B10897
:100A100088EEC80E83E0D81EE11CF11C81149104FD
:100A2000A104B10429F7FF90EF90DF90CF90BF9021
:100A3000AF909F908F900895FC01808191810097E5
:100A400049F0FC01208131812617370719F0848194
:100A50009581F5CF0895CF93DF93EA016F5B7346DD
:100A60000E941C05009739F0FC01D383C28381E00A
:100A7000DF91CF91089580E0FBCF0E941C05009785
:100A800021F0FC0182819381089590E080E0089537
:100A9000089520918303260F3327331F2132310518
:100AA000ECF420912B04FC0190E080E0243069F00C
:100AB00082E00895A09183032191AC014D595C4FD0
:100AC000A40FB52FB11D2C930196861798F3809132
:100AD0008303680F6093830380E0089581E00895A5
:100AE00010922B0481E080930A041092050461E0C7
:100AF00082E10E94090461E083E10E940904E9EBBC
:100B0000F0E080818E7F808380818D7F808388E488
:100B10008093B80085E48093BC000895CF93DF9361
:100B200091E0909362038823B9F0C091B800D0910E
:100B3000BA008091BC008A7B8093BC0060E082E1B7
:100B40000E94090460E083E10E9409040E9470058C
:100B5000D093BA00C093B800DF91CF910895CF929F
:100B6000DF92EF92FF920F931F93CF93DF93D82FD3
:100B7000C62F613208F098C00E94C5046B017C0149
:100B800080912B0481116BC081E080932B048093B2
:100B90000A049FEF90930904109208049C0F90930D
:100BA00007048093060480910604DD0FD82BD093B0
:100BB000060480910504813009F078C01092050484
:100BC0000E94C5046B017C01809106048093BB00E8
:100BD00080912D0490912E04A0912F04B0913004A7
:100BE000892B8A2B8B2BA1F00E94C50400912D0428
:100BF00010912E0420912F04309130046C197D093E
:100C00008E099F09061717072807390708F448C0F7
:100C10008091BC0083FDD8CF85EC8093BC000E94FE
:100C2000C5046B017C0180912B04813009F440C024
:100C3000809108048C1710F4C0910804E5EEF3E0ED
:100C4000ABE0B4E080E08C1355C08C2FDF91CF91E6
:100C50001F910F91FF90EF90DF90CF9008958091BA
:100C60002D0490912E04A0912F04B0913004892B73
:100C70008A2B8B2B09F484CF0E94C50400912D048C
:100C800010912E0420912F04309130046C197D09AD
:100C90008E099F09061717072807390708F070CF34
:100CA00080912C040E948E05C0E0CFCF85EEB5CF99
:100CB00080912D0490912E04A0912F04B0913004C6
:100CC000892B8A2B8B2B09F4AECF0E94C50400918F
:100CD0002D0410912E0420912F04309130046C19B2
:100CE0007D098E099F09061717072807390708F09D
:100CF0009ACFD6CF91919D938F5FA5CF0895E09124
:100D0000E4038091E303E81730F4F0E0E55FFB4F84
:100D1000808190E008958FEF9FEF08959091E40314
:100D20008091E3032FEF3FEF981748F4E92FF0E0AD
:100D3000E55FFB4F208130E09F5F9093E403C901A2
:100D400008958091E3039091E403891B990B089522
:100D5000CF92DF92EF92FF920F931F93CF93DF9387
:100D60007C01CB018A0120913404222389F0EB011C
:100D70006B01C40ED51ECC15DD0569F06991D70154
:100D8000ED91FC910190F081E02DC7010995F3CF21
:100D9000642F0E944905C801DF91CF911F910F91E7
:100DA000FF90EF90DF90CF900895CF93DF931F9245
:100DB000CDB7DEB76983209134042223F9F0209166
:100DC0003104203258F021E030E0FC0133832283EB
:100DD00090E080E00F90DF91CF91089580913204F0
:100DE000E82FF0E0EE5BFC4F998190838F5F80935A
:100DF00032048093310481E090E0ECCF61E0CE01D9
:100E000001960E944905F7CFCF92DF92EF92FF92B1
:100E10000F931F93CF93DF93D091310481E0D132B0
:100E200008F09CC0C09133040E94C5046B017C0192
:100E300080912B0481116CC082E080932B0481E0AF
:100E400080930A048FEF8093090410920804D093D2
:100E50000704A2E4B3E0E5EEF3E080E0D8138DC030
:100E60001092060480910604CC0FC82BC093060490
:100E700080910504813009F084C0109205040E941D
:100E8000C5046B017C01809106048093BB008091B6
:100E90002D0490912E04A0912F04B0913004892B41
:100EA0008A2B8B2BA1F00E94C50400912D04109178
:100EB0002E0420912F04309130046C197D098E0985
:100EC0009F09061717072807390708F442C08091C1
:100ED000BC0083FDD8CF85EC8093BC000E94C50484
:100EE0006B017C0180912B04823009F44CC080910D
:100EF00009048F3F09F469C080910904803209F424
:100F000066C080910904803309F463C084E026C080
:100F100080912D0490912E04A0912F04B091300463
:100F2000892B8A2B8B2B09F483CF0E94C504009157
:100F30002D0410912E0420912F04309130046C194F
:100F40007D098E099F09061717072807390708F03A
:100F50006FCF80912C040E948E0585E010923204A0
:100F60001092310410923404DF91CF911F910F91B0
:100F7000FF90EF90DF90CF9008959D9191938F5FB8
:100F80006DCF85EEA9CF80912D0490912E04A09174
:100F90002F04B0913004892B8A2B8B2B09F4A2CF1C
:100FA0000E94C50400912D0410912E0420912F045D
:100FB000309130046C197D098E099F0906171707B7
:100FC0002807390708F08ECFC4CF80E0C7CF82E072
:100FD000C5CF83E0C3CFCF93DF93D82FC62F8091A7
:100FE00008058F3F59F58091F5049091F604209102
:100FF000FF0431E030933404209333041092320420
:1010000010923104DC01ED91FC910190F081E02D12
:101010006D2F09958091F5049091F604DC01ED9116
:10102000FC910190F081E02D6C2F09958091F504E1
:101030009091F604DF91CF910C94040780910B05F9
:101040008F3F21F482E591E00E948B0260E0809165
:1010500008050E9409048D2F8F770E9437048C2F7A
:101060000E94370461E080910805DF91CF910C94D4
:101070000904EF92FF920F931F93CF93DF93C2E384
:10108000D5E08295880F880F807C67704770440F89
:10109000440F440F862B842B888383E3E82E85E05E
:1010A000F82E822F8295880F807EF70120812F7184
:1010B000282B208301E315E0F8018081807C808368
:1010C00060E084EF0E94EB07F7016081629566950E
:1010D000677082EF0E94EB07F8018081682F6770CC
:1010E000F0E26F9FB0011124282F269526952695B2
:1010F000277094E0299F90011124622B87FB882799
:1011000080F9682B85EF0E94EB078881682F677054
:10111000E0E26E9FB0011124282F26952695269592
:101120002770F4E02F9F90011124622B8295869501
:1011300086958370682B84EFDF91CF911F910F917B
:10114000FF90EF900C94EB0790E080E008958F9271
:101150009F92AF92BF92CF92DF92EF92FF92F82EC2
:10116000809108058F3F09F070C08091F50490913F
:10117000F6042091FF0431E03093340420933304CB
:101180001092320410923104DC01ED91FC91019037
:10119000F081E02D6F2D09958091F5049091F60472
:1011A0000E94040763E08091FF040E94AF05109243
:1011B000E4038093E3038091F5049091F604DC014D
:1011C000ED91FC910284F385E02D09954C01990F76
:1011D000AA08BB08BA2CA92C982C88248091F50465
:1011E0009091F604DC01ED91FC910284F385E02DF1
:1011F0000995092E000CAA0BBB0B882A992AAA2A4A
:10120000BB2ABA2CA92C982C88248091F5049091A3
:10121000F604DC01ED91FC910284F385E02D099543
:10122000092E000CAA0BBB0B6C017D01C828D92824
:10123000EA28FB28C701B601FF90EF90DF90CF901E
:10124000BF90AF909F908F90089580910B058F3F36
:1012500021F482E591E00E948B0260E08091080514
:101260000E9409048F2D0E94370480E00E943704F9
:1012700090E0B0E0A0E0CC24D82EE92EFA2E80E059
:101280000E943704C82AFE2CED2CDC2CCC2480E0F4
:101290000E943704C82A61E0809108050E94090471
:1012A000C9CF8F929F92AF92BF92CF92DF92EF926F
:1012B000FF928AEF0E94A7086115710520E8820756
:1012C000910509F485C08090100590901105B12C0E
:1012D000A12CC72ED82EE92EFF24E7FCFA94C818BB
:1012E000D908EA08FB0837E09595879577956795C3
:1012F0003A95D1F7880C991CAA1CBB1C9B01AC0128
:10130000281939094A095B09A0911205B091130502
:101310000E948C214B015C015BE0B594A7949794EB
:1013200087945A95D1F7A7019601C701B6010E948B
:101330004F219B01AC016CE055954795379527955A
:101340006A95D1F7A0911405B09115050E948C21E2
:101350009B01AC017EE055954795379527957A9589
:10136000D1F7280D391D4A1D5B1D80910C05909108
:101370000D05A0910E05B0910F05280F391F4A1FCA
:101380005B1F209304053093050540930605509399
:101390000705A5E0B0E00E94812160587F4F8F4F84
:1013A0009F4F672F782F892F992787FD9A950E9445
:1013B000081E20E030E048EC52E40E94581DFF90E7
:1013C000EF90DF90CF90BF90AF909F908F90089557
:1013D00060E070E080EC9FE7F2CFCF93C82F809160
:1013E00008058F3FA9F58091F5049091F6042091AE
:1013F000FF0431E03093340420933304109232041C
:1014000010923104DC01ED91FC910190F081E02D0E
:101410006C2F09958091F5049091F6040E940407C1
:1014200061E08091FF040E94AF051092E403809375
:10143000E3038091F5049091F604DC01ED91FC91B9
:101440000284F385E02D0995C82F8C2FCF91089544
:1014500080910B058F3F21F482E591E00E948B0281
:1014600060E0809108050E9409048C2F0E943704D7
:1014700080E00E943704C82F61E0809108050E9437
:101480000904E3CFCF93DF93C82F809108058F3FE6
:1014900009F046C08091F5049091F6042091FF0474
:1014A00031E03093340420933304109232041092CC
:1014B0003104DC01ED91FC910190F081E02D6C2F65
:1014C00009958091F5049091F6040E94040762E06A
:1014D0008091FF040E94AF051092E4038093E30320
:1014E0008091F5049091F604DC01ED91FC91028469
:1014F000F385E02D0995C82F8091F5049091F604AD
:10150000DC01ED91FC910284F385E02D099520E04A
:101510003C2FE901C82BD92BCE01DF91CF91089543
:1015200080910B058F3F21F482E591E00E948B02B0
:1015300060E0809108050E9409048C2F0E94370406
:1015400080E00E943704C82F80E00E943704DC2F1F
:10155000C82F61E0809108050E940904DDCF0E9438
:10156000420A9827892798270895FC0101900020B6
:10157000E9F73197AF01481B590BBC0185E394E0B3
:101580000C94B60282E393E00C94B50ACF93DF93F8
:101590000E94A503EC010E94C20A8C0F9D1FDF91DF
:1015A000CF9108958F929F92AF92BF920F931F9306
:1015B000CF93DF93CDB7DEB7A1970FB6F894DEBF18
:1015C0000FBECDBF19A2423008F44AE08E010F5D74
:1015D0001F4F842E912CB12CA12CA50194010E94A7
:1015E0005F21E62FB901CA01EA30F4F4E05DD801C9
:1015F000EE938D01232B242B252B79F790E080E0AF
:10160000109719F0CD010E94B50AA1960FB6F89473
:10161000DEBF0FBECDBFDF91CF911F910F91BF9065
:10162000AF909F908F900895E95CE1CFCF92DF92C9
:10163000EF92FF92CF93DF936B017C016DE285E324
:1016400094E00E945803EC0166277727CB016C19C0
:101650007D098E099F094AE00E94D20A8C0F9D1FC6
:10166000DF91CF91FF90EF90DF90CF900895CF93CF
:10167000DF93BC01990F880B990B97FF0AC00E945A
:10168000160BEC010E94C20A8C0F9D1FDF91CF91B7
:1016900008954AE00E94D20AF4CF4F925F926F926F
:1016A0007F928F929F92AF92BF92CF92DF92EF92F2
:1016B000FF920F931F93CF936B017C01742EAC01AB
:1016C0009B010E945E20882399F085E393E0CF91EF
:1016D0001F910F91FF90EF90DF90CF90BF90AF9050
:1016E0009F908F907F906F905F904F900C94B50A71
:1016F00046015701E894B7F82FEF3FEF4FE75FE758
:10170000C501B4010E945E2081110DC02FEF3FEF93
:101710004FE75FE7C501B4010E94531D18161CF482
:1017200089E393E0D4CF2FEF3FEF4FE75FE4C701AA
:10173000B6010E94061F18161CF48DE393E0C7CF74
:101740002FEF3FEF4FE75FECC701B6010E94531D3B
:1017500087FDF3CF20E030E0A901C701B6010E9468
:10176000531D10E000E087FF0AC06DE285E394E0BE
:101770000E9458038C01F7FAF094F7F8F094C0E057
:1017800060E070E080E09FE37C1641F020E030E014
:1017900040E251E40E94581DCF5FF6CFA7019601A9
:1017A0000E94E71C2B013C010E94D11D4B015C01F2
:1017B0004AE00E94D20A7C01E00EF11ECC23C1F166
:1017C000C501B4010E94061E9B01AC01C301B20118
:1017D0000E94E61C4B015C016EE285E394E00E94EE
:1017E0005803E80EF91EC15018F120E030E040E245
:1017F00051E4C501B4010E945B1F2B013C010E9412
:10180000D11D4B01B12CA12C4AE0C501B4010E94AD
:10181000D20AE80EF91EC501B4010E94061E9B0102
:10182000AC01C301B2010E94E61C4B015C01DBCF9D
:10183000C701CF911F910F91FF90EF90DF90CF9054
:10184000BF90AF909F908F907F906F905F904F90E0
:1018500008950F931F93CF93DF938C01EB0186E0E4
:1018600090E00E942C23FC0111830083D383C28368
:10187000158214828091DE049091DF04892B69F433
:10188000F093DF04E093DE04F093E104E093E004DE
:10189000DF91CF911F910F910895A091E004B09135
:1018A000E1041596FC93EE931497EECF0F931F93DC
:1018B000CF93DF93182F062FCEEDD4E08C819D813E
:1018C0000E94C82382E08E8382E090E00E942C2355
:1018D000FC019D838C8310581083018383E08F83E8
:1018E000DF91CF911F910F91089585ED8093BC00FA
:1018F00080912D0490912E04A0912F04B09130047A
:101900000796A11DB11D23E0B695A79597958795DC
:101910002A95D1F72091BC0024FD03C010922B041E
:10192000089540912D0450912E0460912F047091E0
:101930003004452B462B472B69F30097A105B105D1
:1019400041F025E32A95F1F700000197A109B109BB
:10195000E1CF80912C040C948E051F920F920FB64C
:101960000F9211242F933F934F935F936F937F9325
:101970008F939F93AF93BF93EF93FF9385E394E08F
:101980000E943603FF91EF91BF91AF919F918F918C
:101990007F916F915F914F913F912F910F900FBE6B
:1019A0000F901F9018951F920F920FB60F9211244F
:1019B0002F938F939F93EF93FF93E0914504F091C2
:1019C00046048081E0914B04F0914C0482FD1BC0E1
:1019D000908180914E048F5F8F7320914F04821706
:1019E00041F0E0914E04F0E0EB5CFB4F958F80936B
:1019F0004E04FF91EF919F918F912F910F900FBE09
:101A00000F901F9018958081F4CF1F920F920FB600
:101A10000F9211242F933F938F939F93AF93BF9374
:101A20008091B0039091B103A091B203B091B30340
:101A30003091A60323E0230F2D3758F50196A11D01
:101A4000B11D2093A6038093B0039093B103A0939C
:101A5000B203B093B3038091A7039091A803A09120
:101A6000A903B091AA030196A11DB11D8093A703FC
:101A70009093A803A093A903B093AA03BF91AF9139
:101A80009F918F913F912F910F900FBE0F901F90BC
:101A9000189526E8230F0296A11DB11DD2CF1F92E3
:101AA0000F920FB60F9211242F933F934F935F9392
:101AB0006F937F938F939F93AF93BF93EF93FF9316
:101AC0008091B900887F803609F44AC0F0F58832E9
:101AD00009F4A7C018F5803109F49BC0B8F4882335
:101AE00009F4F9C0883009F494C0FF91EF91BF91D7
:101AF000AF919F918F917F916F915F914F913F91A6
:101B00002F910F900FBE0F901F901895883109F4F8
:101B100088C0803251F78093090414C0803409F4DE
:101B20009DC040F48033B9F38833F9F680930904FB
:101B300085ECB0C0803509F485C0883509F496C0BD
:101B4000883499F60E94750CD0CF883909F48CC07E
:101B500038F5883729F050F4883611F0803729F6A7
:101B600083E080932B041092A50357C0883809F4B2
:101B70007BC0803919F0803809F0B7CF8091A50378
:101B8000803208F071C0E091A50381E08E0F809350
:101B9000A5038091BB00F0E0EB57FC4F80833DC074
:101BA000803B39F0E0F4803A09F479C0883A09F0D2
:101BB0009CCF84E080932B041092840310928303C3
:101BC000E091AE03F091AF030995809183038111F9
:101BD0000FC081E0809383031092630309C0803CAF
:101BE00009F4A6CF883C09F4A3CF883B09F07DCF48
:101BF000E091840381E08E0F80938403F0E0ED593F
:101C0000FC4F80818093BB0090918403809183037B
:101C100029C0809106048093BB0085EC8093BC00B2
:101C200064CF9091080480910704981758F5E091CB
:101C3000080481E08E0F80930804F0E0EB51FC4F24
:101C40008081E9CFE091080481E08E0F8093080441
:101C50008091BB00F0E0EB51FC4F80839091080431
:101C6000809107049817C8F285E8D8CFE09108045E
:101C700081E08E0F809308048091BB00F0E0EB516F
:101C8000FC4F808380910A0481115CCF81E08093B6
:101C9000050484EA8093BC0010922B0426CF85ECC7
:101CA0008093BC0010922B048091A503803230F405
:101CB000E091A503F0E0EB57FC4F10826091A50383
:101CC00070E0E091AC03F091AD0385E893E00995F5
:101CD0001092A5030ACF1092090434CFE5E3F4E093
:101CE0001382128288EE93E0A0E0B0E084839583B3
:101CF000A683B78322E133E03183208325EC30E0F3
:101D00003587248724EC30E03787268720EC30E0C5
:101D1000318B208B21EC30E0338B228B22EC30E0B6
:101D2000358B248B26EC30E0378B268B118E128E70
:101D3000138E148EE2EDF4E0138212828483958375
:101D4000A683B78384E293E091838083E5EFF4E098
:101D50001582148217821682118610868FEF838B6C
:101D6000848B858B868B178A108E118E128EEEEDEA
:101D7000F4E011821082138212820895CF93DF93D0
:101D8000CDB7DEB7A5970FB6F894DEBF0FBECDBFB7
:101D9000789484B5826084BD84B5816084BD85B546
:101DA000826085BD85B5816085BD80916E00816052
:101DB00080936E00109281008091810082608093F8
:101DC00081008091810081608093810080918000FA
:101DD0008160809380008091B10084608093B10025
:101DE0008091B00081608093B00080917A0084601F
:101DF00080937A0080917A00826080937A0080914B
:101E00007A00816080937A0080917A008068809364
:101E10007A001092C10061E087E00E94940461E0C2
:101E200085E00E94940461E088E00E94940460913F
:101E3000DC0387E00E9409046091DA0385E00E94D8
:101E400009046091B40388E00E9409048FE090E0E7
:101E50009093D7038093D60388E99AE39093D903AC
:101E60008093D80380EF90E09093CF038093CE03CC
:101E70001092D1031092D0038EE190E09093D3039F
:101E80008093D2031092D5031092D4032AEF30E04E
:101E90003093C7032093C60329E130E03093C90390
:101EA0002093C8039093CB038093CA0385E090E00E
:101EB0009093CD038093CC0346E060E875E280E028
:101EC00090E00E941B0280E792E00E94A5034AE096
:101ED00060E875E280E090E00E94D20A89E692E034
:101EE0000E94C60A0E94C20A8DE392E00E94C60ABE
:101EF0008AE292E00E94A50380E091E00E94B50A88
:101F00000E94C20A0E94C20A87E78093FF0482ED02
:101F100094E09093F6048093F504809108058F3F38
:101F200009F032C11092E4031092E30310923204DC
:101F3000109231040E94700583EE92E09093AF03FB
:101F40008093AE0384EE92E09093AD038093AC0354
:101F500080ED0E94ED0990E0B0E0A0E080930005E4
:101F600090930105A0930205B09303058036910577
:101F7000A105B10509F459C11092DE0385E092E094
:101F80000E94C60A83EE91E00E94C60A83ED91E0AA
:101F90000E94A503609100057091010580910205E2
:101FA0009091030540E10E94D20A0E94C20A8BEA86
:101FB00091E00E94C60A84E091E00E94A5036CEDC6
:101FC00075E080E090E00E94EA0485E394E090935D
:101FD000E7048093E60489E090E09093EF04809317
:101FE000EE0446E060E875E280E090E00E941B02AB
:101FF00060ED77E080E090E00E94EA0461E089E033
:102000000E94940460E089E00E9409048AE196E05D
:102010009093F1048093F0048DE39EE09093F30499
:102020008093F20481E08093F4046091C403709182
:10203000C50385EA9CE90E94290C6091C203709156
:10204000C30386EA9CE90E94290C6091C003709149
:10205000C10387EA9CE90E94290C6091BE0370913C
:10206000BF0388EA9CE90E94290C6091BC0370912F
:10207000BD0389EA9CE90E94290C6091BA03709122
:10208000BB038AEA9CE90E94290C6091B803709115
:10209000B9038BEA9CE90E94290C6091D6037091E8
:1020A000D70389E09DE90E94290C70E060E08AE096
:1020B0009DE90E94290C6091CA037091CB038BE0CB
:1020C0009DE90E94290C6091C6037091C7038CE0C2
:1020D0009DE90E94290C6091CE037091CF038DE0A1
:1020E0009DE90E94290C6091D2037091D3038EE088
:1020F0009DE90E94290C8EEF90E00E94C60A0E9482
:10210000C20A2FB7F8948091B0039091B103A091C7
:10211000B203B091B3032FBF8093DF039093E0032A
:10212000A093E103B093E2038091DE03882309F4D6
:102130008FC180913205982F907C903409F04EC168
:10214000682F677050E2659FB0011124282F2695F3
:1021500026952695277094E0299F90011124622BE3
:102160008295869586958370682B84EF0E94EB0795
:1021700083EF0E94ED0983FF31C161E070E080E0F0
:1021800090E00E94EA04F4CF61E00E94090461E05B
:10219000809108050E94940480910B058F3F09F0FF
:1021A00036C0AFB6A982F8948091AB03811127C0E5
:1021B000EBEAF3E08491EFEBF3E09491E82FF0E0A9
:1021C000EE0FFF1FEC50FF4FA591B491EC91E92366
:1021D00021F461E08AE00E94090461E08AE00E9443
:1021E00094048CB580618CBD8CB580648CBD61E03D
:1021F0008DE00E94940461E08BE00E949404809141
:10220000AB038F5F8093AB03B980BFBEA1CE61E00B
:102210000E94940461E0809109050E94940460E0AA
:1022200080910A050E94940493CE66EB80EE0E9492
:10223000EB076AE070E080E090E00E94EA0483EF40
:102240000E94ED0980FDF5CF88E80E94AF0A9093C7
:102250001105809310058AE80E94AF0A9093130538
:10226000809312058CE80E94AF0A90931505809325
:1022700014058EE80E94AF0A909317058093160507
:1022800080E90E94AF0A909319058093180582E9AE
:102290000E94AF0A90931B0580931A0584E90E945F
:1022A000AF0A90931D0580931C0586E90E94AF0A32
:1022B00090931F0580931E0588E90E94AF0A9093B2
:1022C0002105809320058AE90E94AF0A9093230597
:1022D000809322058CE90E94AF0A90932505809394
:1022E00024058EE90E94AF0A909327058093260566
:1022F00081EA0E94ED098093280581EE0E94AF0AD1
:1023000090932A058093290583EE0E94ED0980931E
:102310002B0584EE0E94ED09898385EE0E94ED096C
:10232000098110E10102900111248F70282B309354
:102330002D0520932C0586EE0E94ED09898385EEFC
:102340000E94ED09398140E134029001112490E0AE
:1023500064E0959587956A95E1F7822B932B90938E
:102360002F0580932E0587EE0E94ED09809330059E
:1023700025E030E045E050E065E070E083E090E08B
:102380000E94390864E670E080E090E00E94EA0470
:1023900081E08093DE0380E991E00E94C60A0E94FA
:1023A000C20A87E791E00E94C60A8BE691E00E948C
:1023B000C60A83E391E00E94C60A88E291E00E9487
:1023C000C60A0E94C20A21E030E041E050E061E02C
:1023D00070E081E090E00E943908EDCDA1E0B0E02E
:1023E000B093DD03A093DC031092DB031092DA03B9
:1023F0001092E4048091E6049091E704DC01ED91F1
:10240000FC910084F185E02D09954091E404242F8E
:1024100030E0281739073CF58091E6049091E704F5
:10242000DC01ED91FC910084F185E02D099580930C
:10243000E4048091F0049091F10482309105D0F28F
:10244000880F991F880F991F05970197F1F7D2CF31
:102450001092DD031092DC03E1E0F0E0F093DB0387
:10246000E093DA03C5CF442309F42CC2C9010E94CA
:102470002C239093E3048093E20410E07091E40431
:102480001717A0F48091E6049091E704DC01ED9128
:10249000FC910284F385E02D0995E091E204F0912E
:1024A000E304E10FF11D80831F5FE8CFA090E204F9
:1024B000B090E304BA82A982D5019C90BFEF9B162D
:1024C00021F08091F4049812F5C16DEF670F892D0A
:1024D000809590E0DC01A25FBD4F2C912095825F3A
:1024E0009E4FFC019081A981BA811196615080F0C4
:1024F0008D918227482F50E09A01225F3D4FF901CC
:102500008081292F2827425F5E4FFA019081EECF0C
:10251000E981FA81E70FF11DDF0112974C913197A4
:102520008081542F482F322F292F4217530709F04B
:10253000C1C1A981BA811196DC90119712960D91B3
:102540001C9113971027012710271496ED90FC90EB
:10255000FE24EF24FE24B6E0DB16A9F1E0E1DE164E
:1025600009F4F1C0F3E061E08D2DDF1241C0C70135
:10257000019763E08D37910520F50F5B1346B80195
:102580008EED94E00E941C0562E0892BD1F08981D8
:102590009A810E94C82397012F5F3F4F3A83298376
:1025A000220F29832093E404822F90E00E942C23A1
:1025B000FC019093E3048093E204892B09F053C05B
:1025C00064E083E015C0A701B8018EED94E00E949D
:1025D0002B0562E0882359F0B8016F5B73468EEDDE
:1025E00094E00E943D05E816F90641F064E086E0BB
:1025F0000E94560CEFEF9E126AC066C082E0809384
:10260000E504AA24AA949A1409F45EC0C090E204D6
:10261000D090E304DA82C9828091EE049091EF04B5
:1026200097FD09C061E00E94090461E070E080E06C
:1026300090E00E94EA0410E08091E6049091E704A3
:10264000DC01ED91FC912091E404121708F013C114
:10265000A981BA81A10FB11D0190F081E02D6C918B
:1026600009951F5FE9CFD0828981825081831A82C8
:102670001982C090E204D090E304A980BA80EA14E1
:10268000FB04E1F0B501600F711F8EED94E00E9434
:102690003D0595012F5F3F4F3A832983220F331F5A
:1026A000F601E20FF31F90834091E2045091E3049E
:1026B000240F351FD90111968C93DBCF83E08093D3
:1026C000E504BFEF9B1208C081E08093E504809190
:1026D000E504833009F0EBC0E090E204F090E304FD
:1026E0008091EE049091EF0497FD09C061E00E9493
:1026F000090461E070E080E090E00E94EA048091CB
:10270000E6049091E704DC01ED91FC910190F081E9
:10271000E02D6091F404099510E06091E40480914B
:10272000E6049091E704DC01ED91FC91C080D1803A
:10273000161708F069C0D701A10FB11D6C91F60101
:1027400009951F5FEACFC70101978B379105D8F430
:10275000E981FA812681C701880F991F2817190678
:1027600091F4B12CA12C6801FFEBCF1AF3E6DF0A3C
:10277000B6016A0D7B1D8EED94E00E941C05892B2D
:1027800029F462E001C063E080E132CF2FEFA21AAA
:10279000B20AAE14BF0461F789819A810E94C823EE
:1027A00035E03093E40485E090E00E942C23FC01A6
:1027B0009093E3048093E204892B11F464E0E4CF66
:1027C00080E18083118302831382E482D12CC12CA7
:1027D00049815A814E5F5F4F5A834983EC14FD044F
:1027E00009F46CCFDA0115968C91159716964C91D9
:1027F000582FB8016C0D7D1D8EED94E00E942B05C5
:10280000BFEFCB1ADB0AE4CF4091F404409550E0CF
:10281000DA01A25FBD4F7C917095425F5E4FDA0195
:102820004C91A091E204B091E304615068F02D91C5
:10283000272730E0F901E25FFD4F70817427225FA6
:102840003E4FF9014081F1CF042F672FF601099522
:102850008091E6049091E704DC01ED91FC910190F8
:10286000F081E02D602F09958091E6049091E704B6
:10287000DC01ED91FC910680F781E02D09958091B6
:10288000F2049091F3048230910538F0880F991F7B
:10289000880F991F05970197F1F78091EE049091A9
:1028A000EF0497FD07C060E00E94090403C0823076
:1028B00009F4ACCE8091E2049091E3040E94C82315
:1028C0001092E40469E07DE98EED94E00E943D05FC
:1028D00001E010E0009709F4EEC09A83898300EFCD
:1028E00010E0813F910508F0E6C0A980BA80B0925F
:1028F000D703A092D6036EE07DE98EED94E00E94AE
:102900003D05893502E0900710F088E592E08E31B0
:10291000910510F48EE190E09093D3038093D2035D
:102920006DE07DE98EED94E00E943D05893512E071
:10293000910710F088E592E08E31910510F48EE158
:1029400090E09093CF038093CE036BE07DE98EED12
:1029500094E00E943D058536910510F084E690E0F4
:102960008A30910510F48AE090E09093CB03809335
:10297000CA036CE07DE98EED94E00E943D058F3541
:1029800021E0920710F08EE591E08436910510F475
:1029900084E690E09093C7038093C6038091DE03A2
:1029A000882309F451C08091D8039091D903A9805C
:1029B000BA8008EEC02E03E0D02EAC9C9001AD9CF6
:1029C000300DBC9C300D11248217930708F076C09F
:1029D0000A969093D9038093D8036091C6037091AF
:1029E000C7034091C4035091C5038091C8039091DF
:1029F000C9036B01C81AD90AC416D50668F4209118
:102A0000CA033091CB038091CC039091CD03820F08
:102A1000931F892B09F035C71092B7031092B603A4
:102A20008091B4039091B503019771F41092B503AE
:102A30001092B40387E793E00E94A50390E080E042
:102A40000E94370B0E94C20A6091DC0387E00E945B
:102A500009046091DA0385E00E9409046091B403DF
:102A600088E00E9409042FB7F8948091B0039091F8
:102A7000B103A091B203B091B3032FBF4091DF0324
:102A80005091E0036091E1037091E203841B950B88
:102A9000A60BB70B0B97A105B10528F380E090E0DA
:102AA000892B09F42ECB0E942203882309F429CB19
:102AB0000E94000026CB1A83098317CF1092D903F6
:102AC0001092D8030E9451096D8B7E8B8F8B988F4B
:102AD0000E94510987EF0E94A70869837A838B833C
:102AE0009C83611571058048910509F429C5809181
:102AF000040590910505A0910605B09107056C01AC
:102B00007D01FF0CCC08DC2C76019C01AD016C2D05
:102B10007C2D8C2D9C2D345F414051096109710938
:102B200081099109322E232E542E752E4B018DA32F
:102B30009CA3A22EB32EC42ED52E7B018C010E9405
:102B400094212D8F3E8F4F8F58A369A37AA38BA317
:102B5000492E3091190520911805932F990F990B43
:102B6000492F592F692F792F892F0E9494210CE02A
:102B70000E94C3222D833D87642E598B698F7A8FE3
:102B80008B8F9C8F30911B0520911A05932F990FE5
:102B9000990BAD8CBE8CCF8CD8A0E9A0FAA00BA16C
:102BA000142D492F592F692F792F892F0E94942195
:102BB00008E00E94DC22AD80BD84C62CD988E98C57
:102BC000FA8C0B8D1C8D0E94F92270588F4F9F4FED
:102BD000E0911605F09117055F01D12CC12CE12C75
:102BE000F12C8701ED83BE82CF82D886E986FA86F2
:102BF0000B871C87C12CD12CE12CF12C00E010E0BC
:102C00000E94942101E20E94DC222D833D87498BA2
:102C1000598F6A8F7B8F8C8F692EA0E00E940B23C7
:102C200009F493C43091210520912005932F990F29
:102C3000990BAD8CBE8CCF8CD8A0E9A0FAA00BA1CB
:102C4000142D492F592F692F792F892F0E949421F4
:102C5000422E3D8F4E8F5F8F68A379A38AA39BA3DB
:102C600030911F0520911E05932F990F990BA32CCE
:102C7000B22CC52CD72C74010DA11CA1492F592FA2
:102C8000692F792F892F0E94942101E10E94C3228C
:102C9000A42CBD8CCE8CDF8CE8A0F9A00AA11BA1CE
:102CA0000E94F92259016A017B01782E192F89812E
:102CB0009A81AB81BC8104E0B595A79597958795DE
:102CC0000A95D1F720E030E040E150E0281B390BB5
:102CD0004A0B5B0BC90119012A01550C2208322C41
:102CE00021019C01622D722D822D922D0FE10E94F7
:102CF000C32249014D8F5983B62FA72FF82FE92FF3
:102D000030911D0520911C05932F990F990B492F88
:102D1000592F692F792F892F03E20E94C322072D93
:102D20000E94F92259016A017B018C0194014D8DA9
:102D300059816B2F7A2F8F2F9E2F0E940223E5E35C
:102D4000AE2EFCE0BF2EC12CD12CE12CF12C00E0EA
:102D500010E00E949421AD80BD84C988D98CEA8C92
:102D6000FB8C0C8D162D0E94EE21922E232E498372
:102D70005D836D87798B898F9A8F0DE00E94DC22AD
:102D8000322E3C8F4B8F452E562E672E782E892E55
:102D90003091270520912605932F990F990BA32C8D
:102DA000BC8CC42ED42CE52CF62C072D182D492FC5
:102DB000592F692F792F892F0E9494210E949421E5
:102DC00009E10E94DC22A92CB22CC980DD80ED84AF
:102DD000F988098D1A8D0E94F922322E432E542E25
:102DE000652E762E872E8C8F9B8F30912505209116
:102DF0002405932F990F990B492F592F692F792F5C
:102E0000892F0E94942103E10E94DC2259016A016A
:102E10007B018C01232D342D452D562D672D782DCA
:102E20008C8D9B8D0E94F92208E00E94DC225901C2
:102E30006A017B01E82F192F30912305209122058B
:102E4000932F990F990B492F592F692F792F892F7C
:102E500004E00E94C3220E2F0E94F9220E94001E4D
:102E600020E030E040E85BE30E945B1F20E030E0C0
:102E700048EC52E40E94581D698B7A8B8B8B9C8B9B
:102E80000E9451098DEF0E94420AB0E0A0E0811536
:102E900030E89307A105B10509F4B7C340900405D4
:102EA0005090050560900605709007054CE2541A95
:102EB00041E0640A71086C017D01AEE0CC0CDD1CC0
:102EC000EE1CFF1CAA95D1F780912C0590912D0541
:102ED000092E000CAA0BBB0B14E1880F991FAA1F27
:102EE000BB1F1A95D1F7C81AD90AEA0AFB0AA091A2
:102EF0002E05B0912F05A30192010E948C21C61AC4
:102F0000D70AE80AF90A50E4D50EE11CF11C0FE0DB
:102F1000F594E794D794C7940A95D1F7A0912B051F
:102F2000B0E0A3010E9481214B015C018BE0B594CC
:102F3000A794979487948A95D1F760E8960EA11C80
:102F4000B11CA09130050A2E000CBB0B0E948C21F5
:102F50002AE095958795779567952A95D1F7A501EC
:102F600094010E944F219B01AC016AE05595479561
:102F7000379527956A95D1F7405E5F4FA091290557
:102F8000B0912A050E948C21705E8F4F9F4FEEE01A
:102F90009595879577956795EA95D1F7A70196015D
:102FA0000E944F216B017C01FFE0959587957795F5
:102FB0006795FA95D1F79B01AC010E944F219B01C7
:102FC000AC01A7E05595479537952795AA95D1F778
:102FD000A0912805B0E00E948121B4E095958795E5
:102FE00077956795BA95D1F7C61AD70AE80AF90A0C
:102FF000F7FE03C0C12CD12C760171E0C716D104B5
:10300000E10479E1F7062CF0C12CD12CE12CF9E197
:10301000FF2EC701B601ECE09595879577956795EA
:10302000EA95D1F70E94081E20E030E040E85AE31C
:103030000E945B1F69837A838B839C832D893E89E1
:103040004F89588DCA01B9010E945E208111F7C3D2
:1030500029813A814B815C81CA01B9010E945E20BD
:103060008111FEC329893A894B895C89CA01B9015A
:103070000E945E20811162C420E030E844E854E4FC
:1030800069897A898B899C890E94581D0E941E201B
:103090006B017C0126EA3BE944EC5BE369817A81C0
:1030A0008B819C810E945B1FA70196010E945B1F80
:1030B00026E636E646EE5EE30E94E71C2D893E8951
:1030C0004F89588D0E945B1F6D837E838F83988705
:1030D00020E030E048EC52E469817A818B819C8168
:1030E0000E94581D0E94131F4B015C0120E030E03C
:1030F0004DE851E46D897E898F89988D0E945B1F10
:103100006B017C012DE33AE043E753E46D897E894E
:103110008F89988D0E94E71C9B01AC01C701B60105
:103120000E94581D6B017C01AC019B01C501B401DB
:103130000E94E71C2DE33AE043E753E40E945B1F43
:103140002B013C01A501940160E070E08DE891E461
:103150000E94E61CA70196010E94E61C9B01AC019F
:10316000C301B2010E94581D6D877E878F87988B9F
:1031700026E636E646EE5FE36D897E898F89988D77
:103180000E945B1F20E030E040E052E40E94E71C18
:10319000698F7A8F1C0120E030E040E252E40E9407
:1031A000531D18160CF02CC220E030E048E852E421
:1031B000698D7A8DC1010E94E61C2AE939E949E945
:1031C0005FE30E945B1F6B017C0120E030E044E77D
:1031D00052E4698D7A8DC1010E94E71C9B01AC010C
:1031E000C701B6010E94E71C6B017C0122E133E8B4
:1031F00040EC5DE369817A818B819C810E945B1F39
:103200009B01AC01C701B6010E94E71C20E030E041
:1032100040E05FE30E945B1FF62EE72ED82EC92EFA
:1032200020E030E04EE952E40E94061F87FD19C1FC
:10323000298D3A8DA101698D7A8DC1010E945B1F94
:103240004B015C0129813A814B815C81CA01B90142
:103250000E945B1F6B017C0121E133E243E050E4FB
:10326000698D7A8DC1010E945B1F29E134E849E232
:1032700052E40E94E61C2B013C0126E13BE442E2C1
:1032800051E469817A818B819C810E945B1F9B0143
:10329000AC01C301B2010E94E71C2B013C0128E4F0
:1032A00036E246E65EEB698D7A8DC1010E945B1FB6
:1032B00029813A814B815C810E945B1F9B01AC019B
:1032C000C301B2010E94E71C2B013C0120EE3FE04C
:1032D00040EE5BEBC501B4010E945B1F9B01AC019A
:1032E000C301B2010E94E71C2B013C0128EF37E823
:1032F00040E65DEBC701B6010E945B1F9B01AC017C
:10330000C301B2010E94E71C2B013C012CEA3DE005
:1033100041EA5AE3C501B4010E945B1F29813A8149
:103320004B815C810E945B1F9B01AC01C301B20118
:103330000E94E71C2B013C0128EC3FE84FE55AE3D3
:10334000698D7A8DC1010E945B1FA70196010E94C1
:103350005B1F9B01AC01C301B2010E94E71C2B0162
:103360003C0121EF3BE845E056EBC501B4010E946A
:103370005B1FA70196010E945B1F9B01AC01C3016B
:10338000B2010E94E71CF62EE72ED82EC92E20E0AF
:1033900030E040E551E469817A818B819C810E9413
:1033A000531D87FFDFC020E030E040EA52E4698D22
:1033B0007A8DC1010E94061F87FDD4C020E030E055
:1033C00040EE52E4698D7A8DC1010E94531D18169A
:1033D0000CF4BFC229813A814B815C8160E070E0CE
:1033E00080E591E40E94E61C20E030E040E85EE3E6
:1033F0000E945B1F4B015C0120E030E04EEB52E489
:10340000698D7A8DC1010E94E61C2B013C0120E0F0
:1034100030E0A9010E94061F18160CF09AC0A30103
:10342000920160E070E088E891E40E94E61C2EE3DF
:103430003DEE40E75DE30E945B1F0E941E209B0162
:10344000AC01C501B4010E945B1F9B01AC016F2D53
:103450007E2D8D2D9C2D0E94E61CF62EE72ED82E5B
:10346000C92E2F2D3E2D4D2D5C2D6F2D7E2D8D2D9A
:103470009C2D0E945E2081117AC220E030E040E065
:1034800052E46F2D7E2D8D2D9C2D0E94E61C24EE86
:1034900038E34EE05FE30E945B1F6B017C0129E291
:1034A0003CE54DE851E46D897E898F89988D0E94B5
:1034B0005B1F4B015C0120E030E843E753E46D897A
:1034C0007E898F89988D0E94E71C9B01AC01C50104
:1034D000B4010E94581D9B01AC0164E578EF8DE2B8
:1034E00090E40E94C81F21E835E943EC50E40E94B3
:1034F0005B1F29813A814B815C810E945B1F2BE617
:103500003FE140E951E40E945B1F4B015C0123E372
:1035100033E948E853E46D897E898F89988D0E944C
:10352000E71C24E138E045E051E40E945B1F9B0169
:10353000AC01C501B4010E94581D4B015C017EC065
:1035400060E070E080EC9FE791CC60E070E0CB0140
:103550008DCC20E030E048E851E4C301B2010E9484
:10356000E71C65CF20E030E04AEA52E469817A81C5
:103570008B819C810E94061F18160CF072CF20E0F0
:1035800030E040EA52E4698D7A8DC1010E94061F45
:1035900087FD67CF20E030E04EEA52E4698D7A8DF6
:1035A000C1010E94531D18160CF45BCF20E030E0DF
:1035B0004AEA52E469817A818B819C810E94E61CEF
:1035C0002AE037ED43EA5CE30E945B1F4B015C019C
:1035D000298D3A8DA10160E070E08EEA92E40E94AC
:1035E000E61C9B01AC01C501B4010E945B1F9B015D
:1035F000AC016F2D7E2D8D2D9C2D0E94E71C2DCFB3
:10360000F98CEA8CD22CC32C2CCFA12CB12C50ECF1
:10361000C52E5FE7D52EA982BA82CB82DC827601E5
:103620006501CD82DE82EF82F88687017501ED8625
:10363000FE860F87188B7801460157016D897E89B8
:103640008F89988D0E948E029093C5038093C40346
:1036500069897A898B899C890E948E029093C30321
:103660008093C20369817A818B819C810E948E0242
:103670009093C1038093C0036D817E818F81988573
:103680000E948E029093BF038093BE036D857E855A
:103690008F8598890E948E029093BD038093BC030E
:1036A000C701B6010E948E029093BB038093BA03B8
:1036B000C501B4010E948E029093B9038093B803B0
:1036C00084E493E00E94A5036091D6037091D70330
:1036D00090E080E04AE00E94D20A8EE393E00E94EC
:1036E000C60A89E293E00E94A50342E06D897E89C3
:1036F0008F89988D0E944D0B83E293E00E94C60A49
:103700008EE093E00E94A50342E069897A898B8963
:103710009C890E944D0B89E093E00E94C60A84EFC9
:1037200092E00E94A50342E069817A818B819C81AD
:103730000E944D0B81EF92E00E94C60A8CED92E050
:103740000E94A50342E06D817E818F8198850E9451
:103750004D0B86ED92E00E94C60A81EC92E00E9439
:10376000A50342E06D857E858F8598890E944D0B6B
:103770008BEB92E00E94C60A86EA92E00E94A503C3
:1037800042E0C701B6010E944D0B80EA92E00E9420
:10379000C60A8BE892E00E94A50342E0C501B4018D
:1037A0000E944D0B88E892E00E94C60A0E94C20A5D
:1037B0004091C4035091C50364E670E08EED94E03F
:1037C0000E942B054091C2035091C30365E670E04F
:1037D0008EED94E00E942B054091C0035091C103EF
:1037E00066E670E08EED94E00E942B054091BE03EA
:1037F0005091BF0367E670E08EED94E00E942B05C8
:103800004091BC035091BD0368E670E08EED94E0FA
:103810000E942B054091BA035091BB0369E670E00A
:103820008EED94E00E942B054091B8035091B903AE
:103830006AE670E08EED94E00E942B05CEC8A12CC4
:10384000B12C40ECC42E4FE7D42EAD82BE82CF8285
:10385000D88676016501CD86DE86EF86F88AECCEC5
:10386000E12CF12C00EC1FE7ED82FE820F8318871C
:1038700057016801AD86BE86CF86D88A780165017A
:10388000DBCE8091B6039091B7036417750710F4EF
:10389000232B19F4009709F4D7C8892B81F41092CF
:1038A000D5031092D4031092D1031092D003EE24CA
:1038B000E394F12CF092B703E092B603C5C880916F
:1038C000B4039091B50301E010E01093B7030093A7
:1038D000B603892B71F41093B5030093B40389E503
:1038E00093E00E94A50381E090E00E94370B0E94C4
:1038F000C20A8091D0039091D1034091CE035091A0
:10390000CF0368EE73E0469F9001479F300D569FAE
:10391000300D11248217930730F40A969093D10347
:103920008093D00391C81092D5031092D40382E003
:1039300090E09093B7038093B60386C8A12CB12C76
:1039400090ECC92E9FE7D92EAD82BE82CF82D88659
:10395000BFCB20E030E04AEA52E469817A818B8172
:103960009C810E94061F18160CF07BCD13CEC12C33
:10397000D12C80ECE82E8FE7F82E91CD8091F904C0
:103980009091FA04009739F0DC01ED91FC910280EE
:10399000F381E02D09958091FB049091FC04009740
:1039A00039F0DC01ED91FC910280F381E02D099565
:1039B0008091FD049091FE04009739F0DC01ED91B7
:1039C000FC910280F381E02D099408955058BB27A3
:1039D000AA270E94FE1C0C94CC1E0E94BE1E38F02A
:1039E0000E94C51E20F039F49F3F19F426F40C9470
:1039F000AB1E0EF4E095E7FB0C94A51EE92F0E9488
:103A0000DD1E58F3BA17620773078407950720F085
:103A100079F4A6F50C94FF1E0EF4E0950B2EBA2F48
:103A2000A02D0B01B90190010C01CA01A0011124C4
:103A3000FF27591B99F0593F50F4503E68F11A1670
:103A4000F040A22F232F342F4427585FF3CF469501
:103A500037952795A795F0405395C9F77EF41F1623
:103A6000BA0B620B730B840BBAF09150A1F0FF0FED
:103A7000BB1F661F771F881FC2F70EC0BA0F621FD9
:103A8000731F841F48F4879577956795B795F795C9
:103A90009E3F08F0B0CF9395880F08F09927EE0F5E
:103AA0009795879508950E94811E08F481E00895F6
:103AB0000E946C1D0C94CC1E0E94C51E58F00E94E2
:103AC000BE1E40F029F45F3F29F00C94A51E511151
:103AD0000C94001F0C94AB1E0E94DD1E68F399230A
:103AE000B1F3552391F3951B550BBB27AA276217FA
:103AF0007307840738F09F5F5F4F220F331F441F07
:103B0000AA1FA9F335D00E2E3AF0E0E832D091503A
:103B10005040E695001CCAF72BD0FE2F29D0660F27
:103B2000771F881FBB1F261737074807AB07B0E86A
:103B300009F0BB0B802DBF01FF2793585F4F3AF070
:103B40009E3F510578F00C94A51E0C94001F5F3F1A
:103B5000E4F3983ED4F3869577956795B795F795F6
:103B60009F5FC9F7880F911D9695879597F90895DE
:103B7000E1E0660F771F881FBB1F6217730784077A
:103B8000BA0720F0621B730B840BBA0BEE1F88F789
:103B9000E09508950E94D11D6894B1110C94001F06
:103BA00008950E94E51E88F09F5798F0B92F992735
:103BB000B751B0F0E1F0660F771F881F991F1AF018
:103BC000BA95C9F714C0B13091F00E94FF1EB1E060
:103BD00008950C94FF1E672F782F8827B85F39F05F
:103BE000B93FCCF3869577956795B395D9F73EF4B1
:103BF00090958095709561957F4F8F4F9F4F089559
:103C000097FB16F40E94AE1E0C94441EE89409C063
:103C100097FB3EF490958095709561957F4F8F4FFF
:103C20009F4F9923A9F0F92F96E9BB279395F69515
:103C3000879577956795B795F111F8CFFAF4BB0F93
:103C400011F460FF1BC06F5F7F4F8F4F9F4F16C0F7
:103C5000882311F096E911C0772321F09EE8872F81
:103C6000762F05C0662371F096E8862F70E060E03D
:103C70002AF09A95660F771F881FDAF7880F9695B6
:103C8000879597F90895E894F92F96EBFF2381F033
:103C9000121613061406440B9395F695879577959F
:103CA000679557954040FF23B9F71BC099270895A2
:103CB000882351F49850D2F7872B762F652F542FF5
:103CC000432F322F20E0B1F3121613061406440BD3
:103CD00088233AF09A95440F551F661F771F881F57
:103CE000CAF755234AF4440F551F11F460FF04C06E
:103CF0006F5F7F4F8F4F9F4F880F9695879597F9EE
:103D00000895990F0008550FAA0BE0E8FEEF16166C
:103D10001706E807F907C0F012161306E407F507BF
:103D200098F0621B730B840B950B39F40A2661F033
:103D3000232B242B252B21F408950A2609F4A140D6
:103D4000A6958FEF811D811D089597F99F6780E8E3
:103D500070E060E008959FEF80EC08959095809565
:103D60007095609550954095309521953F4F4F4FF8
:103D70005F4F6F4F7F4F8F4F9F4F089500240A94DE
:103D80001616170618060906089500240A94121636
:103D90001306140605060895092E0394000C11F469
:103DA000882352F0BB0F40F4BF2B11F460FF04C016
:103DB0006F5F7F4F8F4F9F4F089557FD9058440F6F
:103DC000551F59F05F3F71F04795880F97FB991F7A
:103DD00061F09F3F79F08795089512161306140637
:103DE000551FF2CF4695F1DF08C0161617061806C4
:103DF000991FF1CF86957105610508940895E8949F
:103E0000BB2766277727CB0197F908950E94811E6B
:103E100008F48FEF089516F00C949D200C94AB1EBF
:103E200068940C94A51E0E94E51EA8F39923C1F383
:103E3000AEF3DF93CF931F930F93FF92C92FDD272C
:103E400088232AF02197660F771F881FDAF720E072
:103E500030E040E85FEB9FE3883920F0803E38F0A7
:103E600021968F770E94E71CE8E6F0E004C00E94EC
:103E7000E71CE5E9F0E00E94B2208B01BE01EC01F5
:103E8000FB2E6F5771097595771F880B990B0E9450
:103E9000081E28E132E741E35FE30E946E1FAF2D69
:103EA0009801AE01FF900F911F91CF91DF910E9479
:103EB000FE1C0C94CC1E0E946E1F0C94CC1E0E9403
:103EC000BE1E38F00E94C51E20F0952311F00C9400
:103ED000A51E0C94AB1E11240C94001F0E94DD1E25
:103EE00070F3959FC1F3950F50E0551F629FF0014D
:103EF000729FBB27F00DB11D639FAA27F00DB11D66
:103F0000AA1F649F6627B00DA11D661F829F2227EE
:103F1000B00DA11D621F739FB00DA11D621F839F75
:103F2000A00D611D221F749F3327A00D611D231F4B
:103F3000849F600D211D822F762F6A2F11249F5799
:103F400050409AF0F1F088234AF0EE0FFF1FBB1F9C
:103F5000661F771F881F91505040A9F79E3F51055B
:103F600080F00C94A51E0C94001F5F3FE4F3983E74
:103F7000D4F3869577956795B795F795E7959F5F05
:103F8000C1F7FE2B880F911D9695879597F9089597
:103F9000FA01EE0FFF1F309621053105A1F16115E1
:103FA000710561F48038BFE39B0749F1689490384C
:103FB000810561F08038BFEF9B0741F099234AF5F6
:103FC000FF3FE1053105210519F1E8940894E795D3
:103FD000D901AA2329F4AB2FBE2FF85FD0F310C06C
:103FE000FF5F70F4A695E0F7F73950F019F0FF3A4B
:103FF00038F49F779F930DD00F9007FC9058089549
:1040000046F00C94AB1E60E070E080E89FE30895FA
:104010004FE79F775F934F933F932F930E94131F18
:104020002F913F914F915F910E945B1F0C946B20E9
:1040300019F416F40C94AB1E0C949D200E94E51EFE
:10404000B8F39923C9F3B6F39F57550B87FF0E9426
:10405000AB200024A0E640EA900180585695979541
:1040600028F4805C660F771F881F20F0261737071B
:10407000480730F4621B730B840B202931294A2B2B
:10408000A69517940794202531254A2758F7660FDF
:10409000771F881F20F026173707480730F4620B78
:1040A000730B840B200D311D411DA09581F7B901C3
:1040B000842F9158880F9695879508950E94811EA8
:1040C000880B990B089529F416F00C94A51E0C94F6
:1040D000FF1E0C94AB1E0E94E51EA8F39638A0F7B5
:1040E00007F80F92E8942BE33AEA48EB5FE70E9467
:1040F000711F0F920F920F924DB75EB70F920E94F1
:104100001B21E2ECF0E00E94B2204F915F91EF9111
:10411000FF91E595EE1FFF1F49F0FE57E068442729
:10412000EE0F441FFA95E1F74195550B0E94E520EB
:104130000F9007FE0C94D92008959F3F31F09150C5
:1041400020F4879577956795B795880F911D96957B
:10415000879597F9089591505040660F771F881FF3
:10416000D2F70895DF93CF931F930F93FF92EF92AF
:10417000DF927B018C01689406C0DA2EEF010E9469
:104180006E1FFE01E894A5912591359145915591B9
:10419000A6F3EF010E94FE1CFE019701A801DA942C
:1041A00069F7DF90EF90FF900F911F91CF91DF9112
:1041B00008959B01AC0160E070E080E89FE30C94FF
:1041C000581D0C94A51E0C949D200E94E51ED8F34A
:1041D0009923C9F3940F511DA3F39150504094F0CB
:1041E00059F0882332F0660F771F881F9150504096
:1041F000C1F79E3F51052CF7880F911D9695879525
:1042000097F908955F3FACF0983E9CF0BB278695E8
:1042100077956795B79508F4B1609395C1F7BB0F93
:1042200058F711F460FFE8CF6F5F7F4F8F4F9F4FBC
:10423000E3CF0C94001FFA01DC01AA0FBB1F9B0106
:10424000AC01BF5728F4222733274427507820C0D9
:10425000B75190F4AB2F0024469537952795011C54
:10426000A395D2F3002071F0220F331F441FB395A2
:10427000DAF30ED00C94E61C61307105A0E88A07D1
:10428000B94630F49B01AC016627772788279078E0
:10429000309621F020833183428353830895DB01DC
:1042A0008F939F930E948121BF91AF91A29F800D18
:1042B000911DA39F900DB29F900D11240895A1E22E
:1042C0001A2EAA1BBB1BFD010DC0AA1FBB1FEE1F90
:1042D000FF1FA217B307E407F50720F0A21BB30BDB
:1042E000E40BF50B661F771F881F991F1A9469F757
:1042F00060957095809590959B01AC01BD01CF01B3
:1043000008950E941D23A59F900DB49F900DA49F1A
:10431000800D911D11240895B7FF0C9481210E94F6
:104320008121821B930B0895DF93CF931F930F93EB
:104330009A9DF02D219FF00D8B9DF00D8A9DE02D13
:10434000F10D039FF00D029FE00DF11D4E9DE00D5C
:10435000F11D5E9DF00D4F9DF00D7F936F93BF9209
:10436000AF925F934F93D5010E941D238B01AC0147
:10437000D7010E941D23EB01E80FF91FD6010E940F
:10438000E3212F913F91D6010E941D23C60FD71F15
:10439000E81FF91FAF91BF910E94E3212F913F9138
:1043A0000E941D23C60FD71FE81FF91FD6010E94C8
:1043B0001D23E60FF71F9801BE01CF010F911F913A
:1043C000CF91DF9108950E941D23460F571FC81FEC
:1043D000D91F08F431960895689401C0E894F92F24
:1043E000F12B12F00C942022A0E0B0E0EAEFF1E211
:1043F0000C949222092E059422F40E947C2211230F
:1044000092F4F0E80F26FFEFE094F09400951095F9
:10441000B094C094D094A194BF0ACF0ADF0AEF0AE7
:10442000FF0A0F0B1F0B0E942B2207FC0E947C220D
:10443000CDB7DEB7ECE00C94AE22689401C0E894EE
:104440008F929F92CF93DF930E942B22DF91CF9187
:104450009F908F90089588249924F401E401B0E49A
:104460009F93AA279A158B049C04ED05FE05CF05A2
:10447000D007A10798F4AD2FDC2FCF2FFE2FE92D09
:10448000982C892E982F872F762F652F542F432F06
:10449000322F2227B85031F7BF9127C01B2EBF9172
:1044A000BB27220F331F441F551F661F771F881F0E
:1044B000991F881C991CEE1FFF1FCC1FDD1FAA1F10
:1044C000BB1F8A149B04EC05FD05CE05DF05A00784
:1044D000B10748F08A189B08EC09FD09CE09DF09ED
:1044E000A00BB10B21601A94E1F62EF49401AF01F8
:1044F000BE01CD01000C0895609570958095909552
:1045000030954095509521953F4F4F4F5F4F6F4FDE
:104510007F4F8F4F9F4F08952F923F924F925F9200
:104520006F927F928F929F92AF92BF92CF92DF92C3
:10453000EF92FF920F931F93CF93DF93CDB7DEB728
:10454000CA1BDB0B0FB6F894DEBF0FBECDBF0994BC
:104550002A88398848885F846E847D848C849B8413
:10456000AA84B984C884DF80EE80FD800C811B8121
:10457000AA81B981CE0FD11D0FB6F894DEBF0FBE50
:10458000CDBFED010895002E083090F0982F872FB1
:10459000762F652F542F432F322F22270850F4CF28
:1045A000220F331F441F551F661F771F881F991F37
:1045B0000A95B2F7002D089597FD1094002E08304B
:1045C00098F00850232F342F452F562F672F782F20
:1045D000892F912DF4CF15949795879577956795A9
:1045E00057954795379527950A95AAF71124002DD9
:1045F00008952A0D3B1D4C1D5D1D6E1D7F1D801FE6
:10460000911F08952A193B094C095D096E097F091C
:10461000800B910B08950024A7FD00942A17300504
:104620004005500560057005800590050895EE0F62
:10463000FF1F0590F491E02D0994A29FB001B39F54
:10464000C001A39F700D811D1124911DB29F700D9B
:10465000811D1124911D08950F931F93CF93DF9314
:104660008230910510F482E090E0E0913605F091FF
:10467000370530E020E0B0E0A0E0309799F4211554
:10468000310509F44AC0281B390B24303105D8F50F
:104690008A819B816115710589F1FB019383828376
:1046A000FE0111C0408151810281138148175907D1
:1046B000E0F04817590799F4109761F012960C939F
:1046C000129713961C933296CF01DF91CF911F91D1
:1046D0000F9108950093360510933705F4CF2115F7
:1046E000310551F04217530738F0A901DB019A0157
:1046F000BD01DF01F801C1CFEF01F9CF909337057C
:1047000080933605CDCFFE01E20FF31F8193919385
:104710002250310939832883D7CF20913405309135
:104720003505232B41F420910A0130910B01309380
:104730003505209334052091080130910901211598
:10474000310541F42DB73EB740910C0150910D0158
:10475000241B350BE0913405F0913505E217F30782
:10476000A0F42E1B3F0B2817390778F0AC014E5FE1
:104770005F4F2417350748F04E0F5F1F50933505E4
:1047800040933405819391939FCFF0E0E0E09CCF7C
:10479000CF93DF930097E9F0FC01329713821282E6
:1047A000A0913605B0913705ED0130E020E010977B
:1047B000A1F420813181820F931F20913405309123
:1047C00035052817390709F061C0F0933505E093E6
:1047D0003405DF91CF910895EA01CE17DF07E8F5A0
:1047E0004A815B819E0141155105B1F7E901FB83C7
:1047F000EA8349915991C40FD51FEC17FD0761F465
:10480000808191810296840F951FE90199838883A5
:10481000828193819B838A83F0E0E0E012968D9100
:104820009C9113970097B9F52D913C911197CD016B
:104830000296820F931F2091340530913505281779
:10484000390739F6309751F5109237051092360531
:10485000B0933505A0933405BCCFD383C283408188
:104860005181840F951FC817D90761F44E5F5F4FC0
:1048700088819981480F591F518340838A819B8188
:10488000938382832115310509F0B0CFF09337056A
:10489000E09336059ECFFD01DC01C0CF138212826A
:1048A000D7CF11E0C0EFD1E004C0FE010E94172372
:0C48B0002196C13FD107C9F7F894FFCF53
:1048BC00323130342E30370000003805800000C013
:1048CC00C101C30302C2C60607C705C5C404CC0C8C
:1048DC000DCD0FCFCE0E0ACACB0BC90908C8D818FC
:1048EC0019D91BDBDA1A1EDEDF1FDD1D1CDC14D40C
:1048FC00D515D71716D6D21213D311D1D010F0303C
:10490C0031F133F3F23236F6F737F53534F43CFC4B
:10491C00FD3DFF3F3EFEFA3A3BFB39F9F83828E8FB
:10492C00E929EB2B2AEAEE2E2FEF2DEDEC2CE424CB
:10493C0025E527E7E62622E2E323E12120E0A0603B
:10494C0061A163A3A26266A6A767A56564A46CAC0B
:10495C00AD6DAF6F6EAEAA6A6BAB69A9A86878B87B
:10496C00B979BB7B7ABABE7E7FBF7DBDBC7CB4748B
:10497C0075B577B7B67672B2B373B17170B050903B
:10498C0091519353529296565797559594549C5CCB
:10499C005D9D5F9F9E5E5A9A9B5B9959589888487B
:1049AC0049894B8B8A4A4E8E8F4F8D4D4C8C44844B
:1049BC00854587474686824243834181804000C1BA
:1049CC00814001C0804101C0804100C1814001C0D3
:1049DC00804100C1814000C1814001C0804101C0C3
:1049EC00804100C1814000C1814001C0804100C1B3
:1049FC00814001C0804101C0804100C1814001C0A3
:104A0C00804100C1814000C1814001C0804100C192
:104A1C00814001C0804101C0804100C1814000C182
:104A2C00814001C0804101C0804100C1814001C072
:104A3C00804100C1814000C1814001C0804101C062
:104A4C00804100C1814000C1814001C0804100C152
:104A5C00814001C0804101C0804100C1814000C142
:104A6C00814001C0804101C0804100C1814001C032
:104A7C00804100C1814000C1814001C0804100C122
:104A8C00814001C0804101C0804100C1814001C012
:104A9C00804100C1814000C1814001C0804101C002
:104AAC00804100C1814000C1814001C0804100C1F2
:104ABC00814001C0804101C0804100C181400000A3
:104ACC0000005803B602E502C0031603F402080303
:104ADC0000000000D506A806A4087E06A1068E06D6
:104AEC007F060D0A006E616E00696E66006F766659
:024AFC000000B8
:00000001FF
