:100000000C94DE010C9406020C9406020C94060279
:100010000C9406020C9406020C9406020C94060240
:100020000C9406020C9406020C9406020C94060230
:100030000C9406020C9406020C9406020C94060220
:100040000C94DC0C0C9406020C94AA0C0C94840CFA
:100050000C9406020C9406020C9406020C94060200
:100060000C94260D0C94060208000000BE92244950
:10007000123EABAAAA2ABECDCCCC4C3E00000080DA
:10008000BEABAAAAAA3E00000000BF000000803F4D
:100090000000000000084178D3BB4387D1133D190D
:1000A0000E3CC3BD4282AD2B3E68EC8276BED98F3A
:1000B000E1A93E4C80EFFFBE01C4FF7F3F0000007E
:1000C000000007634236B79BD8A71A39685618AEA6
:1000D000BAAB558C1D3CB7CC5763BD6DEDFD753E7D
:1000E000F6177231BF000000803F000000002500BD
:1000F00028002B0000000000240027002A00646F65
:100100006E6521005761697420666F72204D6F64BF
:1001100062757352545520636F6E666967757261BC
:1001200074696F6E2E2E2E0046494C544552204F56
:1001300046460031782074656D7065726174757221
:1001400065202F2031782068756D69646974792085
:100150002F203178207072657373757265206F7609
:10016000657273616D706C696E6700464F524345EE
:1001700044204D4F444500576561746865722053B3
:10018000746174696F6E205363656E6172696F008C
:10019000436F6D6D756E69636174696F6E20657311
:1001A0007461626C697368656421004944206F66FC
:1001B00020307846462070726F6261626C79206DE3
:1001C00065616E73206120626164206164647265A0
:1001D00073730053656E736F724944207761733A8D
:1001E000307800436865636B20776972696E672CAD
:1001F00020616464726573732C2073656E736F7213
:100200002049442100436F756C64206E6F74206632
:10021000696E6420612076616C696420424D4532CC
:1002200038302073656E736F7200536F6674776138
:1002300072652076657273696F6E3A2000424D4593
:1002400032383020574541544845522053454E538B
:100250004F5220424F4152442057495448204D4F5D
:10026000444255532052545500206269742F730044
:100270005374617274206D6F646275732F7365724D
:1002800069616C20617420002025004162736F6CED
:1002900075746548756D69646974792E2E2E200019
:1002A00020EFBFBD430048656174496E6465782ED8
:1002B0002E2E2E2E2E2E2E2E2E200020EFBFBD43B2
:1002C00000446577506F696E742E2E2E2E2E2E2EC2
:1002D0002E2E2E2E200020EFBFBD43005765742028
:1002E00074656D70657261747572652E2E2E2E2088
:1002F0000020250048756D69646974792E2E2E2EB4
:100300002E2E2E2E2E2E2E20002068506100507290
:100310006573737572652E2E2E2E2E2E2E2E2E2E7A
:100320002E200020EFBFBD43004472792074656D1C
:1003300070657261747572652E2E2E2E20002073EA
:1003400065632E00526566726573682074696D6519
:100350002E2E2E2E2E2E2E200053656E736F7220A1
:1003600076656E74696C6174696F6E2069733A208A
:1003700000000000002300260029000404040404F7
:100380000404040202020202020303030303030142
:100390000204081020408001020408102001020419
:1003A00008102000000008000201000003040700FC
:1003B0000000000000000000450E4E1D11241FBE6D
:1003C000CFEFD8E0DEBFCDBF13E0A0E0B1E0ECEDB1
:1003D000F9E402C005900D92A234B107D9F725E0E7
:1003E000A2E4B3E001C01D92A634B207E1F711E028
:1003F000CDEDD1E004C02197FE010E94A723CC3DA2
:10040000D107C9F70E94950E0C94E1240C940000CA
:10041000CF92DF92EF92FF92CF936B017C01C42FBA
:10042000E0915304F091540482E08083C11481EE82
:10043000D806E104F104A1F060E079E08DE390E0FA
:10044000A70196010E94EF2121503109410951096C
:100450005695479537952795211580E13807A8F0DF
:10046000E0915304F0915404108260E874E88EE146
:1004700090E0A70196010E94EF2121503109410926
:1004800051095695479537952795E0914F04F0917E
:1004900050043083E0915104F09152042083109273
:1004A0005B04E0915704F0915804C083E091550437
:1004B000F0915604808180618083E0915504F09131
:1004C0005604808188608083E0915504F091560441
:1004D000808180688083E0915504F091560480818A
:1004E0008F7D8083CF91FF90EF90DF90CF90089524
:1004F0008CBD9DBD0895CF92DF92EF92FF9220E0D8
:1005000030E040E251E40E94EB1F6B017C0120E0EF
:1005100030E0A9010E94961F20E030E040E05FE358
:1005200087FD0CC0C701B6010E94771D0E945A1EAC
:10053000CB01FF90EF90DF90CF900895C701B601F7
:100540000E94761DF3CFAF92BF92CF92DF92EF92CF
:10055000FF920F931F93CF93DF936C017B018B016D
:10056000040F151FEB015E01AE18BF08C017D107BD
:1005700059F06991D601ED91FC910190F081E02D47
:10058000C6010995892B79F7C501DF91CF911F919C
:100590000F91FF90EF90DF90CF90BF90AF900895B4
:1005A00008950895FC01538D448D252F30E0842F4C
:1005B00090E0821B930B541710F0CF96089501978B
:1005C0000895FC01918D828D981761F0A28DAE0F78
:1005D000BF2FB11D5D968C91928D9F5F9F73928FFF
:1005E00090E008958FEF9FEF0895FC01918D828D2B
:1005F000981731F0828DE80FF11D858D90E00895F8
:100600008FEF9FEF0895FC01918D228D892F90E04F
:10061000805C9F4F821B91098F739927089583E413
:1006200094E00E94030321E0892B09F420E0822F4B
:10063000089580E090E0892B29F00E940F0381113A
:100640000C9400000895FC01A48DA80FB92FB11DD2
:10065000A35ABF4F2C91848D90E001968F739927F8
:10066000848FA689B7892C93A089B1898C918370D6
:1006700080648C93938D848D981306C00288F389CF
:10068000E02D80818F7D80830895EF92FF920F93FC
:100690001F93CF93DF93EC0181E0888F9B8D8C8D2E
:1006A00098131AC0E889F989808185FF15C09FB722
:1006B000F894EE89FF896083E889F98980818370E5
:1006C000806480839FBF81E090E0DF91CF911F9194
:1006D0000F91FF90EF900895F62E0B8D10E00F5FB5
:1006E0001F4F0F731127E02E8C8D8E110CC00FB68B
:1006F00007FCFACFE889F989808185FFF5CFCE0123
:100700000E942303F1CFEB8DEC0FFD2FF11DE35A77
:10071000FF4FF0829FB7F8940B8FEA89FB898081A5
:100720008062CFCF0F931F93CF93DF938C01D0E0E4
:10073000C0E0F801EC0FFD1F6491662341F083E4F3
:1007400094E00E944503892B11F02196F2CFCE014F
:10075000DF91CF911F910F910895CF93DF93EC011B
:10076000888D8823B9F0AA89BB89E889F9898C9199
:1007700085FD03C0808186FD0DC00FB607FCF7CF55
:100780008C9185FFF2CF808185FFEDCFCE010E9455
:100790002303E9CFDF91CF910895833081F028F4CE
:1007A000813099F08230A9F008958730A9F088301F
:1007B000C9F08430B1F4809180008F7D03C08091B6
:1007C00080008F7780938000089584B58F7784BDF3
:1007D000089584B58F7DFBCF8091B0008F77809393
:1007E000B00008958091B0008F7DF9CF1F93CF9313
:1007F000DF93282F30E0F901ED55FC4F8491F9018A
:10080000E157FC4FD491F901E558FC4FC491CC233A
:10081000A9F0162F81110E94CD03EC2FF0E0EE0F0E
:10082000FF1FE651FF4FA591B4918FB7F894EC915B
:10083000111108C0D095DE23DC938FBFDF91CF91DB
:100840001F910895DE2BF8CFCF92DF92EF92FF92A7
:100850000F931F93CF93DF93909119059F3F81F4DE
:100860008EBD00000DB407FEFDCFFEB48F2DDF91CD
:10087000CF911F910F91FF90EF90DF90CF9008954F
:10088000D82EF12CC7E0D0E001E010E0FF0C60E0D2
:10089000809119050E94F603B8010C2E01C0660F65
:1008A0000A94EAF76D21809117050E94F60361E032
:1008B000809119050E94F6032091180530E0F90196
:1008C000ED55FC4F8491F901E157FC4FE490F9019B
:1008D000E558FC4FC490CC2081F081110E94CD03DB
:1008E000EC2DF0E0EE0FFF1FEF58FC4FA591B491F7
:1008F000EC91EE2211F06894F0F8219708F0C6CF41
:10090000B5CFCF93DF9390E0FC01E157FC4F2491EA
:1009100085589C4FFC0184918823D1F090E0880F8A
:10092000991FFC01EC50FF4FA591B491FC01E651D9
:10093000FF4FC591D49161110EC09FB7F8948C916F
:10094000E22FE0958E238C932881E223E8839FBFDA
:10095000DF91CF9108958FB7F894EC91E22BEC934F
:100960008FBFF6CF3FB7F8948091A7039091A8036B
:10097000A091A903B091AA0326B5A89B05C02F3F5B
:1009800019F00196A11DB11D3FBFBA2FA92F982FB5
:100990008827BC01CD01620F711D811D911D42E0B0
:1009A000660F771F881F991F4A95D1F708958F9278
:1009B0009F92AF92BF92CF92DF92EF92FF924B0144
:1009C0005C010E94B2046B017C010E94B2046C19AC
:1009D0007D098E099F09683E734081059105A8F342
:1009E00021E0821A9108A108B10888EEC80E83E0C0
:1009F000D81EE11CF11C81149104A104B10429F753
:100A0000FF90EF90DF90CF90BF90AF909F908F902E
:100A10000895FC0180819181009749F0FC012081BB
:100A200031812617370719F084819581F5CF089514
:100A3000CF93DF93EA016F5B73460E94090500972D
:100A400039F0FC01D383C28381E0DF91CF91089517
:100A500080E0FBCF0E940905009721F0FC01828114
:100A60009381089590E080E0089508952091830394
:100A7000260F3327331F21323105ECF4209139043E
:100A8000FC0190E080E0243069F082E00895A091BC
:100A900083032191AC014D595C4FA40FB52FB11DBB
:100AA0002C930196861798F380918303680F6093C7
:100AB000830380E0089581E008951092390481E075
:100AC000809318041092130461E082E10E94F603FF
:100AD00061E083E10E94F603E9EBF0E080818E7F24
:100AE000808380818D7F808388E48093B80085E453
:100AF0008093BC000895CF93DF9391E090936203BD
:100B00008823B9F0C091B800D091BA008091BC00A0
:100B10008A7B8093BC0060E082E10E94F60360E083
:100B200083E10E94F6030E945D05D093BA00C09352
:100B3000B800DF91CF910895CF92DF92EF92FF92AC
:100B40000F931F93CF93DF93D82FC62F613208F0F6
:100B500098C00E94B2046B017C018091390481111C
:100B60006BC081E080933904809318049FEF9093C9
:100B70001704109216049C0F90931504809314048C
:100B800080911404DD0FD82BD093140480911304AA
:100B9000813009F078C0109213040E94B2046B01F6
:100BA0007C01809114048093BB0080913B04909160
:100BB0003C04A0913D04B0913E04892B8A2B8B2BE1
:100BC000A1F00E94B20400913B0410913C042091DA
:100BD0003D0430913E046C197D098E099F0906176A
:100BE00017072807390708F448C08091BC0083FD27
:100BF000D8CF85EC8093BC000E94B2046B017C01CD
:100C000080913904813009F440C0809116048C171A
:100C100010F4C0911604E3EFF3E0A9E1B4E080E042
:100C20008C1355C08C2FDF91CF911F910F91FF90A6
:100C3000EF90DF90CF90089580913B0490913C0419
:100C4000A0913D04B0913E04892B8A2B8B2B09F493
:100C500084CF0E94B20400913B0410913C04209187
:100C60003D0430913E046C197D098E099F090617D9
:100C700017072807390708F070CF80913A040E94BF
:100C80007B05C0E0CFCF85EEB5CF80913B0490913E
:100C90003C04A0913D04B0913E04892B8A2B8B2B00
:100CA00009F4AECF0E94B20400913B0410913C04C1
:100CB00020913D0430913E046C197D098E099F09F5
:100CC000061717072807390708F09ACFD6CF919152
:100CD0009D938F5FA5CF0895E091F2038091F1037A
:100CE000E81730F4F0E0E75EFB4F808190E0089574
:100CF0008FEF9FEF08959091F2038091F1032FEF12
:100D00003FEF981748F4E92FF0E0E75EFB4F2081B2
:100D100030E09F5F9093F203C90108958091F10341
:100D20009091F203891B990B0895CF92DF92EF9275
:100D3000FF920F931F93CF93DF937C01CB018A0126
:100D400020914204222389F0EB016B01C40ED51ED1
:100D5000CC15DD0569F06991D701ED91FC91019009
:100D6000F081E02DC7010995F3CF642F0E9436056D
:100D7000C801DF91CF911F910F91FF90EF90DF900D
:100D8000CF900895CF93DF931F92CDB7DEB76983DD
:100D9000209142042223F9F020913F04203258F0A0
:100DA00021E030E0FC013383228390E080E00F906B
:100DB000DF91CF91089580914004E82FF0E0EE5B41
:100DC000FC4F998190838F5F8093400480933F0410
:100DD00081E090E0ECCF61E0CE0101960E94360503
:100DE000F7CFCF92DF92EF92FF920F931F93CF93A3
:100DF000DF93D0913F0481E0D13208F09CC0C091D4
:100E000041040E94B2046B017C018091390481117C
:100E10006CC082E08093390481E0809318048FEFE6
:100E20008093170410921604D0931504A2E4B3E043
:100E3000E3EFF3E080E0D8138DC0109214048091AA
:100E40001404CC0FC82BC093140480911304813078
:100E500009F084C0109213040E94B2046B017C015B
:100E6000809114048093BB0080913B0490913C04DA
:100E7000A0913D04B0913E04892B8A2B8B2BA1F0CD
:100E80000E94B20400913B0410913C0420913D0467
:100E900030913E046C197D098E099F0906171707CA
:100EA0002807390708F442C08091BC0083FDD8CFE1
:100EB00085EC8093BC000E94B2046B017C018091A0
:100EC0003904823009F44CC0809117048F3F09F433
:100ED00069C080911704803209F466C080911704BC
:100EE000803309F463C084E026C080913B04909174
:100EF0003C04A0913D04B0913E04892B8A2B8B2B9E
:100F000009F483CF0E94B20400913B0410913C0489
:100F100020913D0430913E046C197D098E099F0992
:100F2000061717072807390708F06FCF80913A0492
:100F30000E947B0585E01092400410923F041092BD
:100F40004204DF91CF911F910F91FF90EF90DF90BE
:100F5000CF9008959D9191938F5F6DCF85EEA9CF2E
:100F600080913B0490913C04A0913D04B0913E04DB
:100F7000892B8A2B8B2B09F4A2CF0E94B2040091FB
:100F80003B0410913C0420913D0430913E046C19C7
:100F90007D098E099F09061717072807390708F0EA
:100FA0008ECFC4CF80E0C7CF82E0C5CF83E0C3CF70
:100FB000CF93DF93D82FC62F809116058F3F59F519
:100FC000809103059091040520910D0531E0309347
:100FD0004204209341041092400410923F04DC012B
:100FE000ED91FC910190F081E02D6D2F099580919C
:100FF000030590910405DC01ED91FC910190F081D5
:10100000E02D6C2F09958091030590910405DF91E7
:10101000CF910C94F106809119058F3F21F482E560
:1010200091E00E94780260E0809116050E94F6032C
:101030008D2F8F770E9424048C2F0E94240461E05E
:1010400080911605DF91CF910C94F603EF92FF92F9
:101050000F931F93CF93DF93C0E4D5E08295880F61
:10106000880F807C67704770440F440F440F862BB5
:10107000842B888381E4E82E85E0F82E822F8295E8
:10108000880F807EF70120812F71282B20830FE3AA
:1010900015E0F8018081807C808360E084EF0E940D
:1010A000D807F701608162956695677082EF0E94AC
:1010B000D807F8018081682F6770F0E26F9FB00158
:1010C0001124282F269526952695277094E0299F90
:1010D00090011124622B87FB882780F9682B85EF0C
:1010E0000E94D8078881682F6770E0E26E9FB00188
:1010F0001124282F2695269526952770F4E02F9FFA
:1011000090011124622B8295869586958370682BB9
:1011100084EFDF91CF911F910F91FF90EF900C948E
:10112000D80790E080E008958F929F92AF92BF928F
:10113000CF92DF92EF92FF92F82E809116058F3FAB
:1011400009F070C0809103059091040520910D0570
:1011500031E03093420420934104109240041092F5
:101160003F04DC01ED91FC910190F081E02D6F2DA9
:10117000099580910305909104050E94F10663E0B2
:1011800080910D050E949C051092F2038093F1035B
:101190008091030590910405DC01ED91FC9102849E
:1011A000F385E02D09954C01990FAA08BB08BA2CCC
:1011B000A92C982C88248091030590910405DC01CA
:1011C000ED91FC910284F385E02D0995092E000C28
:1011D000AA0BBB0B882A992AAA2ABB2ABA2CA92CAB
:1011E000982C88248091030590910405DC01ED91F1
:1011F000FC910284F385E02D0995092E000CAA0BC1
:10120000BB0B6C017D01C828D928EA28FB28C7013F
:10121000B601FF90EF90DF90CF90BF90AF909F907E
:101220008F900895809119058F3F21F482E591E018
:101230000E94780260E0809116050E94F6038F2DCF
:101240000E94240480E00E94240490E0B0E0A0E02A
:10125000CC24D82EE92EFA2E80E00E942404C82A3D
:10126000FE2CED2CDC2CCC2480E00E942404C82A27
:1012700061E0809116050E94F603C9CF8F929F927C
:10128000AF92BF92CF92DF92EF92FF928AEF0E94CD
:1012900094086115710520E88207910509F485C05D
:1012A00080901E0590901F05B12CA12CC72ED82E22
:1012B000E92EFF24E7FCFA94C818D908EA08FB08CD
:1012C00037E095958795779567953A95D1F7880C8E
:1012D000991CAA1CBB1C9B01AC01281939094A099D
:1012E0005B09A0912005B09121050E941C224B01B1
:1012F0005C015BE0B594A794979487945A95D1F7D5
:10130000A7019601C701B6010E94DF219B01AC0134
:101310006CE055954795379527956A95D1F7A0913B
:101320002205B09123050E941C229B01AC017EE0A6
:1013300055954795379527957A95D1F7280D391DFD
:101340004A1D5B1D80911A0590911B05A0911C05FB
:10135000B0911D05280F391F4A1F5B1F20931205EE
:10136000309313054093140550931505A5E0B0E0A4
:101370000E94112260587F4F8F4F9F4F672F782F09
:10138000892F992787FD9A950E94981E20E030E0CA
:1013900048EC52E40E94E81DFF90EF90DF90CF9060
:1013A000BF90AF909F908F90089560E070E080ECC8
:1013B0009FE7F2CFCF93C82F809116058F3FA9F5F5
:1013C000809103059091040520910D0531E0309343
:1013D0004204209341041092400410923F04DC0127
:1013E000ED91FC910190F081E02D6C2F0995809199
:1013F0000305909104050E94F10661E080910D05BE
:101400000E949C051092F2038093F10380910305E2
:1014100090910405DC01ED91FC910284F385E02DAF
:101420000995C82F8C2FCF910895809119058F3F72
:1014300021F482E591E00E94780260E08091160537
:101440000E94F6038C2F0E94240480E00E94240452
:10145000C82F61E0809116050E94F603E3CFCF9379
:10146000DF93C82F809116058F3F09F046C0809109
:1014700003059091040520910D0531E0309342045D
:10148000209341041092400410923F04DC01ED913E
:10149000FC910190F081E02D6C2F0995809103055E
:1014A000909104050E94F10662E080910D050E9472
:1014B0009C051092F2038093F103809103059091B3
:1014C0000405DC01ED91FC910284F385E02D099582
:1014D000C82F8091030590910405DC01ED91FC91EA
:1014E0000284F385E02D099520E03C2FE901C82B0B
:1014F000D92BCE01DF91CF910895809119058F3FAF
:1015000021F482E591E00E94780260E08091160566
:101510000E94F6038C2F0E94240480E00E94240481
:10152000C82F80E00E942404DC2FC82F61E0809146
:1015300016050E94F603DDCF0E942F0A98278927FF
:1015400098270895FC0101900020E9F73197AF0139
:10155000481B590BBC0183E494E00C94A30282E382
:1015600093E00C94A20ACF93DF930E949203EC01C4
:101570000E94AF0A8C0F9D1FDF91CF9108958F922B
:101580009F92AF92BF920F931F93CF93DF93CDB7EC
:10159000DEB7A1970FB6F894DEBF0FBECDBF19A27C
:1015A000423008F44AE08E010F5D1F4F842E912CCB
:1015B000B12CA12CA50194010E94EF21E62FB901C5
:1015C000CA01EA30F4F4E05DD801EE938D01232BDB
:1015D000242B252B79F790E080E0109719F0CD01AE
:1015E0000E94A20AA1960FB6F894DEBF0FBECDBF2F
:1015F000DF91CF911F910F91BF90AF909F908F90EF
:101600000895E95CE1CFCF92DF92EF92FF92CF9302
:10161000DF936B017C016DE283E494E00E9445035B
:10162000EC0166277727CB016C197D098E099F098C
:101630004AE00E94BF0A8C0F9D1FDF91CF91FF905F
:10164000EF90DF90CF9008954F925F926F927F92CC
:101650008F929F92AF92BF92CF92DF92EF92FF92C2
:101660000F931F93CF936B017C01742EAC019B01F0
:101670000E94EE20882399F085E393E0CF911F919B
:101680000F91FF90EF90DF90CF90BF90AF909F9021
:101690008F907F906F905F904F900C94A20A4601BC
:1016A0005701E894B7F82FEF3FEF4FE75FE7C50129
:1016B000B4010E94EE2081110DC02FEF3FEF4FE7E4
:1016C0005FE7C501B4010E94E31D18161CF489E30D
:1016D00093E0D4CF2FEF3FEF4FE75FE4C701B601B0
:1016E0000E94961F18161CF48DE393E0C7CF2FEFCE
:1016F0003FEF4FE75FECC701B6010E94E31D87FD96
:10170000F3CF20E030E0A901C701B6010E94E31D3C
:1017100010E000E087FF0AC06DE283E494E00E94DD
:1017200045038C01F7FAF094F7F8F094C0E060E01C
:1017300070E080E09FE37C1641F020E030E040E282
:1017400051E40E94E81DCF5FF6CFA70196010E94E9
:10175000771D2B013C010E94611E4B015C014AE098
:101760000E94BF0A7C01E00EF11ECC23C1F1C5012D
:10177000B4010E94961E9B01AC01C301B2010E94FC
:10178000761D4B015C016EE283E494E00E94450308
:10179000E80EF91EC15018F120E030E040E251E4BB
:1017A000C501B4010E94EB1F2B013C010E94611E88
:1017B0004B01B12CA12C4AE0C501B4010E94BF0A23
:1017C000E80EF91EC501B4010E94961E9B01AC01F2
:1017D000C301B2010E94761D4B015C01DBCFC70142
:1017E000CF911F910F91FF90EF90DF90CF90BF901E
:1017F000AF909F908F907F906F905F904F900895E3
:101800000F931F93CF93DF938C01EB0186E090E061
:101810000E94BC23FC0111830083D383C283158201
:1018200014828091EC049091ED04892B69F4F0937B
:10183000ED04E093EC04F093EF04E093EE04DF9109
:10184000CF911F910F910895A091EE04B091EF04F4
:101850001596FC93EE931497EECF0F931F93CF93AF
:10186000DF93182F062FCCEED4E08C819D810E944F
:10187000582482E08E8382E090E00E94BC23FC0129
:101880009D838C8310581083018383E08F83DF91C5
:10189000CF911F910F91089585ED8093BC008091A9
:1018A0003B0490913C04A0913D04B0913E04079606
:1018B000A11DB11D23E0B695A795979587952A950B
:1018C000D1F72091BC0024FD03C010923904089583
:1018D00040913B0450913C0460913D0470913E0462
:1018E000452B462B472B69F30097A105B10541F025
:1018F00025E32A95F1F700000197A109B109E1CF8D
:1019000080913A040C947B051F920F920FB60F92B0
:1019100011242F933F934F935F936F937F938F93F4
:101920009F93AF93BF93EF93FF9383E494E00E9460
:101930002303FF91EF91BF91AF919F918F917F9181
:101940006F915F914F913F912F910F900FBE0F902C
:101950001F9018951F920F920FB60F9211242F937C
:101960008F939F93EF93FF93E0915304F09154046E
:101970008081E0915904F0915A0482FD1BC090814E
:1019800080915C048F5F8F7320915D04821741F01A
:10199000E0915C04F0E0ED5BFB4F958F80935C047D
:1019A000FF91EF919F918F912F910F900FBE0F900C
:1019B0001F9018958081F4CF1F920F920FB60F924F
:1019C00011242F933F938F939F93AF93BF93809155
:1019D000B0039091B103A091B203B091B3033091E1
:1019E000A60323E0230F2D3758F50196A11DB11D45
:1019F0002093A6038093B0039093B103A093B20306
:101A0000B093B3038091A7039091A803A091A90379
:101A1000B091AA030196A11DB11D8093A7039093D5
:101A2000A803A093A903B093AA03BF91AF919F917C
:101A30008F913F912F910F900FBE0F901F9018958F
:101A400026E8230F0296A11DB11DD2CF1F920F923F
:101A50000FB60F9211242F933F934F935F936F9381
:101A60007F938F939F93AF93BF93EF93FF93809157
:101A7000B900887F803609F44AC0F0F5883209F44D
:101A8000A7C018F5803109F49BC0B8F4882309F485
:101A9000F9C0883009F494C0FF91EF91BF91AF91E4
:101AA0009F918F917F916F915F914F913F912F9176
:101AB0000F900FBE0F901F901895883109F488C0C1
:101AC000803251F78093170414C0803409F49DC00C
:101AD00040F48033B9F38833F9F68093170485EC2A
:101AE000B0C0803509F485C0883509F496C08834C3
:101AF00099F60E944C0CD0CF883909F48CC038F587
:101B0000883729F050F4883611F0803729F683E0C1
:101B1000809339041092A50357C0883809F47BC01C
:101B2000803919F0803809F0B7CF8091A503803251
:101B300008F071C0E091A50381E08E0F8093A503AA
:101B40008091BB00F0E0EB57FC4F80833DC0803BB1
:101B500039F0E0F4803A09F479C0883A09F09CCF72
:101B600084E0809339041092840310928303E091FF
:101B7000AE03F091AF0309958091830381110FC0EB
:101B800081E0809383031092630309C0803C09F4D1
:101B9000A6CF883C09F4A3CF883B09F07DCFE09124
:101BA000840381E08E0F80938403F0E0ED59FC4FB5
:101BB00080818093BB00909184038091830329C02E
:101BC000809114048093BB0085EC8093BC0064CFAB
:101BD0009091160480911504981758F5E091160419
:101BE00081E08E0F80931604F0E0ED50FC4F808171
:101BF000E9CFE091160481E08E0F80931604809166
:101C0000BB00F0E0ED50FC4F808390911604809172
:101C100015049817C8F285E8D8CFE091160481E042
:101C20008E0F809316048091BB00F0E0ED50FC4FC6
:101C300080838091180481115CCF81E0809313042C
:101C400084EA8093BC001092390426CF85EC8093FF
:101C5000BC00109239048091A503803230F4E091E9
:101C6000A503F0E0EB57FC4F10826091A50370E0F4
:101C7000E091AC03F091AD0385E893E009951092F3
:101C8000A5030ACF1092170434CFE3E4F4E01382E3
:101C9000128288EE93E0A0E0B0E084839583A6836F
:101CA000B78322E133E03183208325EC30E03587B0
:101CB000248724EC30E03787268720EC30E0318B16
:101CC000208B21EC30E0338B228B22EC30E0358B03
:101CD000248B26EC30E0378B268B118E128E138EE0
:101CE000148EE0EEF4E01382128284839583A6833F
:101CF000B78384E293E091838083E3E0F5E015828B
:101D0000148217821682118610868FEF838B848B44
:101D1000858B868B178A108E118E128EECEEF4E076
:101D200011821082138212820895CF93DF93CDB770
:101D3000DEB7A5970FB6F894DEBF0FBECDBF78947F
:101D400084B5826084BD84B5816084BD85B58260C0
:101D500085BD85B5816085BD80916E008160809371
:101D60006E001092810080918100826080938100DA
:101D700080918100816080938100809180008160EA
:101D8000809380008091B10084608093B100809145
:101D9000B00081608093B00080917A00846080936D
:101DA0007A0080917A00826080937A0080917A0034
:101DB000816080937A0080917A00806880937A00B5
:101DC0001092C10061E087E00E94810461E085E03B
:101DD0000E94810461E088E00E9481046091EA032E
:101DE00087E00E94F6036091E80385E00E94F60315
:101DF0006091B60388E00E94F6038FE090E0A0E0D7
:101E0000B0E08093E0039093E103A093E203B093EA
:101E1000E30388E99AE3A0E0B0E08093E4039093C1
:101E2000E503A093E603B093E70380EF90E0A0E022
:101E3000B0E08093D0039093D103A093D203B093EA
:101E4000D3031092D4031092D5031092D6031092AC
:101E5000D7038EE190E0A0E0B0E08093D8039093A8
:101E6000D903A093DA03B093DB031092DC03109242
:101E7000DD031092DE031092DF038AEF90E090936F
:101E8000C9038093C80389E190E09093CB038093CA
:101E9000CA038EE190E09093CD038093CC0385E05C
:101EA00090E09093CF038093CE0346E060E875E224
:101EB00080E090E00E94080280E792E00E94920396
:101EC0004AE060E875E280E090E00E94BF0A89E69F
:101ED00092E00E94B30A0E94AF0A8DE392E00E9452
:101EE000B30A8AE292E00E94920380E091E00E94AD
:101EF000A20A0E94AF0A0E94AF0A87E780930D05ED
:101F000080EE94E09093040580930305809116057C
:101F10008F3F09F032C11092F2031092F103109238
:101F2000400410923F040E945D0580ED92E0909382
:101F3000AF038093AE0381ED92E09093AD03809365
:101F4000AC0380ED0E94DA0990E0B0E0A0E080935D
:101F50000E0590930F05A0931005B09311058036E0
:101F60009105A105B10509F459C11092EC0385E072
:101F700092E00E94B30A83EE91E00E94B30A83EDDF
:101F800091E00E94920360910E0570910F0580917F
:101F900010059091110540E10E94BF0A0E94AF0A0E
:101FA0008BEA91E00E94B30A84E091E00E949203E0
:101FB0006CED75E080E090E00E94D70483E494E04B
:101FC0009093F5048093F40489E090E09093FD04ED
:101FD0008093FC0446E060E875E280E090E00E94B7
:101FE000080260ED77E080E090E00E94D70461E0B5
:101FF00089E00E94810460E089E00E94F6038AE1A2
:1020000096E09093FF048093FE048DE39EE090930E
:1020100001058093000581E0809302056091C6036D
:102020007091C70385EA9CE90E94000C6091C4038B
:102030007091C50386EA9CE90E94000C6091C2037E
:102040007091C30387EA9CE90E94000C6091C00371
:102050007091C10388EA9CE90E94000C6091BE0364
:102060007091BF0389EA9CE90E94000C6091BC0357
:102070007091BD038AEA9CE90E94000C6091BA034A
:102080007091BB038BEA9CE90E94000C6091E00315
:102090007091E10389E09DE90E94000C70E060E02E
:1020A0008AE09DE90E94000C6091CC037091CD0301
:1020B0008BE09DE90E94000C6091C8037091C903F8
:1020C0008CE09DE90E94000C6091D0037091D103D7
:1020D0008DE09DE90E94000C6091D8037091D903B6
:1020E0008EE09DE90E94000C8EEF90E00E94B30A02
:1020F0000E94AF0A2FB7F8948091B0039091B1037A
:10210000A091B203B091B3032FBF8093ED039093DE
:10211000EE03A093EF03B093F0038091EC038823C8
:1021200009F48FC180914005982F907C903409F07C
:102130004EC1682F677050E2659FB0011124282FAF
:10214000269526952695277094E0299F90011124C5
:10215000622B8295869586958370682B84EF0E940A
:10216000D80783EF0E94DA0983FF31C161E070E094
:1021700080E090E00E94D704F4CF61E00E94F60373
:1021800061E0809116050E948104809119058F3FBE
:1021900009F036C0AFB6A982F8948091AB038111E3
:1021A00027C0E5E8F3E08491E9E9F3E09491E82FB2
:1021B000F0E0EE0FFF1FEC50FF4FA591B491EC91B2
:1021C000E92321F461E08AE00E94F60361E08AE0FD
:1021D0000E9481048CB580618CBD8CB580648CBDFF
:1021E00061E08DE00E94810461E08BE00E94810447
:1021F0008091AB038F5F8093AB03B980BFBEA1CE4C
:1022000061E00E94810461E0809117050E948104D1
:1022100060E0809118050E94810493CE66EB80EE09
:102220000E94D8076AE070E080E090E00E94D70446
:1022300083EF0E94DA0980FDF5CF88E80E949C0AAE
:1022400090931F0580931E058AE80E949C0A909334
:102250002105809320058CE80E949C0A9093230519
:10226000809322058EE80E949C0A90932505809316
:10227000240580E90E949C0A9093270580932605F7
:1022800082E90E949C0A909329058093280584E99D
:102290000E949C0A90932B0580932A0586E90E9450
:1022A0009C0A90932D0580932C0588E90E949C0A36
:1022B00090932F0580932E058AE90E949C0A9093A3
:1022C0003105809330058CE90E949C0A9093330578
:1022D000809332058EE90E949C0A90933505809385
:1022E000340581EA0E94DA098093360581EE0E9466
:1022F0009C0A909338058093370583EE0E94DA0993
:102300008093390584EE0E94DA09898385EE0E9464
:10231000DA09098110E10102900111248F70282B44
:1023200030933B0520933A0586EE0E94DA098983B3
:1023300085EE0E94DA09398140E1340290011124CE
:1023400090E064E0959587956A95E1F7822B932B51
:1023500090933D0580933C0587EE0E94DA098093B7
:102360003E0525E030E045E050E065E070E083E0C8
:1023700090E00E94260864E670E080E090E00E9411
:10238000D70481E08093EC0380E991E00E94B30AD6
:102390000E94AF0A87E791E00E94B30A8BE691E0C2
:1023A0000E94B30A83E391E00E94B30A88E291E0BD
:1023B0000E94B30A0E94AF0A21E030E041E050E001
:1023C00061E070E081E090E00E942608EDCDA1E0A0
:1023D000B0E0B093EB03A093EA031092E9031092EC
:1023E000E8031092F2048091F4049091F504DC016A
:1023F000ED91FC910084F185E02D09954091F20466
:10240000242F30E0281739073CF58091F40490918F
:10241000F504DC01ED91FC910084F185E02D099536
:102420008093F2048091FE049091FF048230910524
:10243000D0F2880F991F880F991F05970197F1F720
:10244000D2CF1092EB031092EA03E1E0F0E0F093B8
:10245000E903E093E803C5CF442309F438C2C90176
:102460000E94BC239093F1048093F0041982209180
:10247000F204A980A216B0F48091F4049091F504BE
:10248000DC01ED91FC910284F385E02D0995E0914A
:10249000F004F091F104EA0DF11D808309810F5FD2
:1024A0000983E5CFA090F004B090F104BA82A9822C
:1024B000D5019C90BFEF9B1621F0809102059812E8
:1024C000FEC19DEF920F492D409550E0FA01E25F69
:1024D000FD4F80818095425F5E4FFA016081E98106
:1024E000FA813196915070F041918427482F50E045
:1024F000DA01A25FBD4F8C918627425F5E4FDA0101
:102500006C91F0CFA980BA80A20EB11CF501329770
:10251000408131969081542F492F982F862F48174C
:10252000590709F0CCC1A981BA811196DC901197A5
:1025300012960D911C9113971027012710271496BE
:10254000ED90FC90FE24EF24FE24B6E0DB1699F11A
:10255000E0E1DE1609F4F2C0F3E061E08D2DDF1258
:102560003FC0C701019763E08D37910510F50F5B00
:102570001346B8018CEE94E00E94090562E0892BB5
:10258000C1F089819A810E94582497012F5F3F4FA3
:10259000220F29832093F204822F90E00E94BC2313
:1025A000FC019093F1048093F004892B09F053C04F
:1025B00064E083E015C0A701B8018CEE94E00E94AE
:1025C000180562E0882359F0B8016F5B73468CEE02
:1025D00094E00E942A05E816F90641F064E086E0DE
:1025E0000E942D0CEFEF9E126AC066C082E08093BD
:1025F000F304AA24AA949A1409F45EC0C090F004CB
:10260000D090F104DA82C9828091FC049091FD049B
:1026100097FD09C061E00E94F60361E070E080E090
:1026200090E00E94D70410E08091F4049091F504AA
:10263000DC01ED91FC912091F204121708F020C109
:10264000A981BA81A10FB11D0190F081E02D6C919B
:1026500009951F5FE9CFD0828981825081831A82D8
:102660001982C090F004D090F104A980BA80EA14D5
:10267000FB04E1F0B501600F711F8CEE94E00E9445
:102680002A0595012F5F3F4F3A832983220F331F7D
:10269000F601E20FF31F90834091F0045091F10492
:1026A000240F351FD90111968C93DBCF83E08093E3
:1026B000F304BFEF9B1208C081E08093F304809184
:1026C000F304833009F0F8C0A090F004B090F10456
:1026D000BA82A9828091FC049091FD0497FD09C003
:1026E00061E00E94F60361E070E080E090E00E940B
:1026F000D7048091F4049091F504DC01ED91FC91F4
:102700000190F081E02D60910205099510E0609143
:10271000F2048091F4049091F504DC01ED91FC91B8
:102720000190F081E02D161708F069C0A981BA81E7
:10273000A10FB11D6C9109951F5FE9CFC7010197EA
:102740008B379105D8F4E981FA812681C701880F7A
:10275000991F2817190691F4B12CA12C6801FFEBE1
:10276000CF1AF3E6DF0AB6016A0D7B1D8CEE94E00A
:102770000E940905892B29F462E001C063E080E131
:102780002FCF2FEFA21AB20AAE14BF0461F78981CE
:102790009A810E94582435E03093F20485E090E05D
:1027A0000E94BC23FC019093F1048093F004892BD8
:1027B00011F464E0E4CF80E180831183028313820B
:1027C000E482D12CC12C49815A814E5F5F4F5A83DC
:1027D0004983EC14FD0409F469CFDA0115968C9154
:1027E000159716964C91582FB8016C0D7D1D8CEEE7
:1027F00094E00E941805BFEFCB1ADB0AE4CF4091AA
:102800000205409550E0DA01A25FBD4FAC907A2DF1
:102810007095425F5E4FDA014C91A090F004B09049
:10282000F104BA82A982615090F0A981BA812D91F8
:10283000BA83A9837227272F30E0D901A25FBD4F49
:102840007C917427D901A25FBE4F4C91ECCFB72E7B
:10285000A42EBA82A9826A8109958091F40490918C
:10286000F504DC01ED91FC910190F081E02D69818E
:1028700009958091F4049091F504DC01ED91FC91AF
:102880000680F781E02D0995809100059091010562
:102890008230910538F0880F991F880F991F05978E
:1028A0000197F1F78091FC049091FD0497FD07C01A
:1028B00060E00E94F60303C0823009F49FCE80914D
:1028C000F0049091F1040E9458241092F20469E0FF
:1028D0007DE98CEE94E00E942A05009761F06C017E
:1028E000F12CE12C813F910550F000EFC02ED12C4E
:1028F000E12CF12C04C0C12CD12C7601C394C092E0
:10290000E003D092E103E092E203F092E3036EE091
:102910007DE98CEE94E00E942A058E31910510F13C
:102920008935B2E09B0718F5B0E0A0E08093D803AA
:102930009093D903A093DA03B093DB036DE07DE9B4
:102940008CEE94E00E942A058E319105A8F0B0E04B
:10295000A0E08935E2E09E0798F088E592E0A0E0EB
:10296000B0E00EC08EE190E0A0E0B0E0DFCF88E5FF
:1029700092E0A0E0B0E0DACF8EE190E0A0E0B0E03D
:102980008093D0039093D103A093D203B093D30349
:102990006BE07DE98CEE94E00E942A058536910576
:1029A00010F084E690E08A30910510F48AE090E01F
:1029B0009093CD038093CC036CE07DE98CEE94E0A2
:1029C0000E942A058F35F1E09F0710F08EE591E017
:1029D0008436910510F484E690E09093C9038093C7
:1029E000C8038091EC03882389F18090E4039090E0
:1029F000E503A090E603B090E703A8EEB3E0A701DB
:102A000096010E94112286169706A806B90608F0BC
:102A100075C00AE0800E911CA11CB11C8092E403D9
:102A20009092E503A092E603B092E7038091B80389
:102A30009091B9038230910509F4A3C70CF046C701
:102A4000009709F46CC7019709F484C7A090B603F6
:102A5000B090B703BA82A9828091B4039091B50374
:102A6000A816B906A1F0B092B503A092B40389E507
:102A700093E00E949203B501BB0C880B990B97FF62
:102A8000E9C70E94030B0E94AF0A0E94AF0A60913F
:102A9000EA0387E00E94F6036091E80385E00E9464
:102AA000F6036091B60388E00E94F6032FB7F8940E
:102AB0008091B0039091B103A091B203B091B303A0
:102AC0002FBF4091ED035091EE036091EF037091A1
:102AD000F003841B950BA60BB70B0B97A105B10553
:102AE00028F380E090E0892B09F404CB0E940F03C7
:102AF000882309F4FFCA0E940000FCCA1092E40374
:102B00001092E5031092E6031092E7030E943E093B
:102B10006D8B7E8B8F8B988F0E943E0987EF0E9472
:102B2000940869837A838B839C836115710580483F
:102B3000910509F429C58091120590911305A09182
:102B40001405B09115056C017D01FF0CCC08DC2C3F
:102B500076019C01AD016C2D7C2D8C2D9C2D345F5C
:102B6000414051096109710981099109322E232ED1
:102B7000542E752E4B018DA39CA3A22EB32EC42ED2
:102B8000D52E7B018C010E9424222D8F3E8F4F8FEA
:102B900058A369A37AA38BA3492E309127052091CE
:102BA0002605932F990F990B492F592F692F792FAC
:102BB000892F0E9424220CE00E9453232D833D87FD
:102BC000642E598B698F7A8F8B8F9C8F309129055A
:102BD00020912805932F990F990BAD8CBE8CCF8C2B
:102BE000D8A0E9A0FAA00BA1142D492F592F692FC5
:102BF000792F892F0E94242208E00E946C23AD8047
:102C0000BD84C62CD988E98CFA8C0B8D1C8D0E9452
:102C1000892370588F4F9F4FE0912405F09125052F
:102C20005F01D12CC12CE12CF12C8701ED83BE82F8
:102C3000CF82D886E986FA860B871C87C12CD12CD7
:102C4000E12CF12C00E010E00E94242201E20E941D
:102C50006C232D833D87498B598F6A8F7B8F8C8F97
:102C6000692EA0E00E949B2309F493C430912F05A4
:102C700020912E05932F990F990BAD8CBE8CCF8C84
:102C8000D8A0E9A0FAA00BA1142D492F592F692F24
:102C9000792F892F0E942422422E3D8F4E8F5F8FE5
:102CA00068A379A38AA39BA330912D0520912C05BD
:102CB000932F990F990BA32CB22CC52CD72C7401F0
:102CC0000DA11CA1492F592F692F792F892F0E94FF
:102CD000242201E10E945323A42CBD8CCE8CDF8CD6
:102CE000E8A0F9A00AA11BA10E94892359016A0149
:102CF0007B01782E192F89819A81AB81BC8104E0F8
:102D0000B595A795979587950A95D1F720E030E07E
:102D100040E150E0281B390B4A0B5B0BC90119013C
:102D20002A01550C2208322C21019C01622D722DA2
:102D3000822D922D0FE10E94532349014D8F59831B
:102D4000B62FA72FF82FE92F30912B0520912A05B8
:102D5000932F990F990B492F592F692F792F892F6D
:102D600003E20E945323072D0E94892359016A011F
:102D70007B018C0194014D8D59816B2F7A2F8F2F00
:102D80009E2F0E949223E5E3AE2EFCE0BF2EC12CC5
:102D9000D12CE12CF12C00E010E00E942422AD8027
:102DA000BD84C988D98CEA8CFB8C0C8D162D0E94B1
:102DB0007E22922E232E49835D836D87798B898FA6
:102DC0009A8F0DE00E946C23322E3C8F4B8F452E44
:102DD000562E672E782E892E309135052091340598
:102DE000932F990F990BA32CBC8CC42ED42CE52CBB
:102DF000F62C072D182D492F592F692F792F892F40
:102E00000E9424220E94242209E10E946C23A92C02
:102E1000B22CC980DD80ED84F988098D1A8D0E945D
:102E20008923322E432E542E652E762E872E8C8F9C
:102E30009B8F3091330520913205932F990F990B79
:102E4000492F592F692F792F892F0E94242203E1BE
:102E50000E946C2359016A017B018C01232D342DC2
:102E6000452D562D672D782D8C8D9B8D0E948923A5
:102E700008E00E946C2359016A017B01E82F192F99
:102E80003091310520913005932F990F990B492FDF
:102E9000592F692F792F892F04E00E9453230E2F79
:102EA0000E9489230E94901E20E030E040E85BE30E
:102EB0000E94EB1F20E030E048EC52E40E94E81D45
:102EC0006D877E878F87988B0E943E098DEF0E94C9
:102ED0002F0AB0E0A0E0811530E89307A105B10505
:102EE00009F4B7C340901205509013056090140583
:102EF000709015054CE2541A41E0640A71086C01A7
:102F00007D01AEE0CC0CDD1CEE1CFF1CAA95D1F7B8
:102F100080913A0590913B05092E000CAA0BBB0B42
:102F200014E1880F991FAA1FBB1F1A95D1F7C81A61
:102F3000D90AEA0AFB0AA0913C05B0913D05A3011C
:102F400092010E941C22C61AD70AE80AF90A50E424
:102F5000D50EE11CF11C0FE0F594E794D794C794CB
:102F60000A95D1F7A0913905B0E0A3010E94112282
:102F70004B015C018BE0B594A794979487948A9554
:102F8000D1F780E8980EA11CB11CA0913E050A2E35
:102F9000000CBB0B0E941C222AE095958795779523
:102FA00067952A95D1F7A50194010E94DF219B0125
:102FB000AC016AE055954795379527956A95D1F705
:102FC000405E5F4FA0913705B09138050E941C22EA
:102FD000705E8F4F9F4FEEE095958795779567953B
:102FE000EA95D1F7A70196010E94DF216B017C01D0
:102FF000FFE09595879577956795FA95D1F79B01B1
:10300000AC010E94DF219B01AC01A7E055954795DB
:1030100037952795AA95D1F7A0913605B0E00E9483
:103020001122B4E09595879577956795BA95D1F774
:10303000C61AD70AE80AF90AF7FE03C0C12CD12C38
:10304000760191E0C916D104E10499E1F9062CF06A
:10305000C12CD12CE12CF9E1FF2EC701B601ECE027
:103060009595879577956795EA95D1F70E94981E73
:1030700020E030E040E85AE30E94EB1F69837A8346
:103080008B839C832D893E894F89588DCA01B90154
:103090000E94EE208111F8C329813A814B815C8125
:1030A000CA01B9010E94EE208111FFC32D853E8522
:1030B0004F855889CA01B9010E94EE208111CEC402
:1030C00020E030E844E854E46D857E858F8598895A
:1030D0000E94E81D0E94AE206B017C0126EA3BE9BC
:1030E00044EC5BE369817A818B819C810E94EB1FB8
:1030F000A70196010E94EB1F26E636E646EE5EE348
:103100000E94771D2D893E894F89588D0E94EB1FA3
:103110006D837E838F83988720E030E048EC52E413
:1031200069817A818B819C810E94E81D0E94A31F86
:103130004B015C0120E030E04DE851E46D897E896F
:103140008F89988D0E94EB1F6B017C012DE33AE083
:1031500043E753E46D897E898F89988D0E94771D9E
:103160009B01AC01C701B6010E94E81D6B017C0107
:10317000AC019B01C501B4010E94771D2DE33AE02B
:1031800043E753E40E94EB1F2B013C01A50194018E
:1031900060E070E08DE891E40E94761DA701960141
:1031A0000E94761D9B01AC01C301B2010E94E81D83
:1031B000698B7A8B8B8B9C8B26E636E646EE5FE33B
:1031C0006D897E898F89988D0E94EB1F20E030E009
:1031D00040E052E40E94771D698F7A8F1C0120E045
:1031E00030E040E252E40E94E31D18160CF02CC2BD
:1031F00020E030E048E852E4698D7A8DC1010E94F8
:10320000761D2AE939E949E95FE30E94EB1F6B016A
:103210007C0120E030E044E752E4698D7A8DC10101
:103220000E94771D9B01AC01C701B6010E94771D6A
:103230006B017C0122E133E840EC5DE369817A8136
:103240008B819C810E94EB1F9B01AC01C701B601E1
:103250000E94771D20E030E040E05FE30E94EB1F1A
:10326000F62EE72ED82EC92E20E030E04EE952E4AB
:103270000E94961F87FD19C1298D3A8DA101698D84
:103280007A8DC1010E94EB1F4B015C0129813A81BB
:103290004B815C81CA01B9010E94EB1F6B017C016B
:1032A00021E133E243E050E4698D7A8DC1010E944F
:1032B000EB1F29E134E849E252E40E94761D2B011C
:1032C0003C0126E13BE442E251E469817A818B8151
:1032D0009C810E94EB1F9B01AC01C301B2010E94C3
:1032E000771D2B013C0128E436E246E65EEB698D52
:1032F0007A8DC1010E94EB1F29813A814B815C814B
:103300000E94EB1F9B01AC01C301B2010E94771D1B
:103310002B013C0120EE3FE040EE5BEBC501B40128
:103320000E94EB1F9B01AC01C301B2010E94771DFB
:103330002B013C0128EF37E840E65DEBC701B60101
:103340000E94EB1F9B01AC01C301B2010E94771DDB
:103350002B013C012CEA3DE041EA5AE3C501B401EE
:103360000E94EB1F29813A814B815C810E94EB1FF7
:103370009B01AC01C301B2010E94771D2B013C01EE
:1033800028EC3FE84FE55AE3698D7A8DC1010E9430
:10339000EB1FA70196010E94EB1F9B01AC01C3012B
:1033A000B2010E94771D2B013C0121EF3BE845E073
:1033B00056EBC501B4010E94EB1FA70196010E94C4
:1033C000EB1F9B01AC01C301B2010E94771DF62ED9
:1033D000E72ED82EC92E20E030E040E551E4698187
:1033E0007A818B819C810E94E31D87FFDFC020E0F2
:1033F00030E040EA52E4698D7A8DC1010E94961F47
:1034000087FDD4C020E030E040EE52E4698D7A8D33
:10341000C1010E94E31D18160CF42BC329813A81C7
:103420004B815C8160E070E080E591E40E94761D54
:1034300020E030E040E85EE30E94EB1F4B015C01BE
:1034400020E030E04EEB52E4698D7A8DC1010E949C
:10345000761D2B013C0120E030E0A9010E94961F5F
:1034600018160CF09AC0A301920160E070E088E8A1
:1034700091E40E94761D2EE33DEE40E75DE30E945D
:10348000EB1F0E94AE209B01AC01C501B4010E945C
:10349000EB1F9B01AC016F2D7E2D8D2D9C2D0E946D
:1034A000761DF62EE72ED82EC92E2F2D3E2D4D2D12
:1034B0005C2D6F2D7E2D8D2D9C2D0E94EE20811177
:1034C000E6C220E030E040E052E46F2D7E2D8D2DED
:1034D0009C2D0E94761D24EE38E34EE05FE30E94AF
:1034E000EB1F6B017C0129E23CE54DE851E46D895D
:1034F0007E898F89988D0E94EB1F4B015C0120E033
:1035000030E843E753E46D897E898F89988D0E9466
:10351000771D9B01AC01C501B4010E94E81D9B0110
:10352000AC0164E578EF8DE290E40E94582021E838
:1035300035E943EC50E40E94EB1F29813A814B812D
:103540005C810E94EB1F2BE63FE140E951E40E94C1
:10355000EB1F4B015C0123E333E948E853E46D8939
:103560007E898F89988D0E94771D24E138E045E09F
:1035700051E40E94EB1F9B01AC01C501B4010E9404
:10358000E81D4B015C017DC060E070E080EC9FE7CE
:1035900091CC60E070E0CB018DCC20E030E048E8D9
:1035A00051E4C301B2010E94771D65CF20E030E0F5
:1035B0004AEA52E469817A818B819C810E94961F3C
:1035C00018160CF072CF20E030E040EA52E4698D2A
:1035D0007A8DC1010E94961F87FD67CF20E030E001
:1035E0004EEA52E4698D7A8DC1010E94E31D1816DE
:1035F0000CF45BCF20E030E04AEA52E469817A8142
:103600008B819C810E94761D2AE037ED43EA5CE3C2
:103610000E94EB1F4B015C01298D3A8DA10160E0F6
:1036200070E08EEA92E40E94761D9B01AC01C50118
:10363000B4010E94EB1F9B01AC016F2D7E2D8D2DDF
:103640009C2D0E94771D2DCFF98CEA8CD22CC32C97
:103650002CCFA12CB12C60ECC62E6FE7D62EAD82FC
:10366000BE82CF82D88676016501C98ADA8AEB8A62
:10367000FC8A9701850109831A832B833C834601C9
:1036800057016D897E898F89988D0E947B02909366
:10369000C7038093C6036D857E858F8598890E94B8
:1036A0007B029093C5038093C40369817A818B81E7
:1036B0009C810E947B029093C3038093C2036D811F
:1036C0007E818F8198850E947B029093C1038093B5
:1036D000C00369897A898B899C890E947B029093B7
:1036E000BF038093BE03C701B6010E947B02909383
:1036F000BD038093BC03C501B4010E947B0290937B
:10370000BB038093BA0384E493E00E949203609128
:10371000E0037091E1038091E2039091E3034AE0BA
:103720000E94BF0A8EE393E00E94B30A89E293E00D
:103730000E94920342E06D897E898F89988D0E9454
:10374000240B83E293E00E94B30A8EE093E00E9490
:10375000920342E06D857E858F8598890E94240BB7
:1037600089E093E00E94B30A84EF92E00E94920302
:1037700042E069817A818B819C810E94240B81EFD8
:1037800092E00E94B30A8CED92E00E94920342E024
:103790006D817E818F8198850E94240B86ED92E059
:1037A0000E94B30A81EC92E00E94920342E0698990
:1037B0007A898B899C890E94240B8BEB92E00E9472
:1037C000B30A86EA92E00E94920342E0C701B60182
:1037D0000E94240B80EA92E00E94B30A8BE892E0F8
:1037E0000E94920342E0C501B4010E94240B88E8C4
:1037F00092E00E94B30A0E94AF0A4091C603509122
:10380000C70364E670E08CEE94E00E9418054091D6
:10381000C4035091C50365E670E08CEE94E00E940D
:1038200018054091C2035091C30366E670E08CEE28
:1038300094E00E9418054091C0035091C10367E6CF
:1038400070E08CEE94E00E9418054091BE03509108
:10385000BF0368E670E08CEE94E00E94180540918A
:10386000BC035091BD0369E670E08CEE94E00E94C9
:1038700018054091BA035091BB036AE670E08CEEE4
:1038800094E00E941805D2C8A12CB12C50ECC52E92
:103890005FE7D52EAD82BE82CF82D88676016501E4
:1038A000C98ADA8AEB8AFC8AEACEE12CF12C00EC98
:1038B0001FE7ED82FE820F83188757016801A98AEE
:1038C000BA8ACB8ADC8A78016501D9CE833091052A
:1038D00009F48CC0049709F0B9C88091C80390918D
:1038E000C9032091CA033091CB03821B930B209113
:1038F000C6033091C7038217930760F48091CC030D
:103900009091CD032091CE033091CF03820F931F6E
:10391000892BC1F41092B9031092B80397C8209173
:10392000C8033091C9038091C6039091C70328173B
:10393000390708F08BC88091CC039091CD03892B77
:1039400009F484C8CC24C394D12CD092B903C0927A
:10395000B8037CC81092D4031092D5031092D603FA
:103960001092D7031092DC031092DD031092DE0355
:103970001092DF0382E090E09093B9038093B80344
:1039800065C8EE24E394F12CF092B703E092B603FD
:10399000C090D403D090D503E090D603F090D70325
:1039A0002091D0033091D1034091D2035091D303A1
:1039B000A8EEB3E00E941122C616D706E806F90663
:1039C00070F40AE0C00ED11CE11CF11CC092D403BB
:1039D000D092D503E092D603F092D70337C823E004
:1039E00030E03093B9032093B80330C81092B70386
:1039F0001092B603C090DC03D090DD03E090DE03AC
:103A0000F090DF032091D8033091D9034091DA037D
:103A10005091DB03A8EEB3E00E941122C616D70630
:103A2000E806F90678F43AE0C30ED11CE11CF11C5B
:103A3000C092DC03D092DD03E092DE03F092DF035C
:103A40000C94261544E050E05093B9034093B8031A
:103A50000C9426154AE00E94BF0A15C8C12CD12C2F
:103A600090ECE92E9FE7F92ECD82DE82EF82F88678
:103A700053CB20E030E04AEA52E469817A818B81BD
:103A80009C810E94961F18160CF00FCDA7CDC12C5B
:103A9000D12C80ECE82E8FE7F82E25CD80910705FC
:103AA00090910805009739F0DC01ED91FC910280BE
:103AB000F381E02D09958091090590910A05009701
:103AC00039F0DC01ED91FC910280F381E02D099544
:103AD00080910B0590910C05009739F0DC01ED9178
:103AE000FC910280F381E02D099408955058BB2782
:103AF000AA270E948E1D0C945C1F0E944E1F38F056
:103B00000E94551F20F039F49F3F19F426F40C94BD
:103B10003B1F0EF4E095E7FB0C94351FE92F0E9444
:103B20006D1F58F3BA17620773078407950720F0D3
:103B300079F4A6F50C948F1F0EF4E0950B2EBA2F96
:103B4000A02D0B01B90190010C01CA01A0011124A3
:103B5000FF27591B99F0593F50F4503E68F11A164F
:103B6000F040A22F232F342F4427585FF3CF4695E0
:103B700037952795A795F0405395C9F77EF41F1602
:103B8000BA0B620B730B840BBAF09150A1F0FF0FCC
:103B9000BB1F661F771F881FC2F70EC0BA0F621FB8
:103BA000731F841F48F4879577956795B795F795A8
:103BB0009E3F08F0B0CF9395880F08F09927EE0F3D
:103BC0009795879508950E94111F08F481E0089544
:103BD0000E94FC1D0C945C1F0E94551F58F00E940F
:103BE0004E1F40F029F45F3F29F00C94351F51110E
:103BF0000C94901F0C943B1F0E946D1F68F3992337
:103C0000B1F3552391F3951B550BBB27AA276217D8
:103C10007307840738F09F5F5F4F220F331F441FE5
:103C2000AA1FA9F335D00E2E3AF0E0E832D0915019
:103C30005040E695001CCAF72BD0FE2F29D0660F06
:103C4000771F881FBB1F261737074807AB07B0E849
:103C500009F0BB0B802DBF01FF2793585F4F3AF04F
:103C60009E3F510578F00C94351F0C94901F5F3FD8
:103C7000E4F3983ED4F3869577956795B795F795D5
:103C80009F5FC9F7880F911D9695879597F90895BD
:103C9000E1E0660F771F881FBB1F62177307840759
:103CA000BA0720F0621B730B840BBA0BEE1F88F768
:103CB000E09508950E94611E6894B1110C94901FC4
:103CC00008950E94751F88F09F5798F0B92F992783
:103CD000B751B0F0E1F0660F771F881F991F1AF0F7
:103CE000BA95C9F714C0B13091F00E948F1FB1E0AE
:103CF00008950C948F1F672F782F8827B85F39F0AD
:103D0000B93FCCF3869577956795B395D9F73EF48F
:103D100090958095709561957F4F8F4F9F4F089537
:103D200097FB16F40E943E1F0C94D41EE89409C021
:103D300097FB3EF490958095709561957F4F8F4FDE
:103D40009F4F9923A9F0F92F96E9BB279395F695F4
:103D5000879577956795B795F111F8CFFAF4BB0F72
:103D600011F460FF1BC06F5F7F4F8F4F9F4F16C0D6
:103D7000882311F096E911C0772321F09EE8872F60
:103D8000762F05C0662371F096E8862F70E060E01C
:103D90002AF09A95660F771F881FDAF7880F969595
:103DA000879597F90895E894F92F96EBFF2381F012
:103DB000121613061406440B9395F695879577957E
:103DC000679557954040FF23B9F71BC09927089581
:103DD000882351F49850D2F7872B762F652F542FD4
:103DE000432F322F20E0B1F3121613061406440BB2
:103DF00088233AF09A95440F551F661F771F881F36
:103E0000CAF755234AF4440F551F11F460FF04C04C
:103E10006F5F7F4F8F4F9F4F880F9695879597F9CC
:103E20000895990F0008550FAA0BE0E8FEEF16164B
:103E30001706E807F907C0F012161306E407F5079E
:103E400098F0621B730B840B950B39F40A2661F012
:103E5000232B242B252B21F408950A2609F4A140B5
:103E6000A6958FEF811D811D089597F99F6780E8C2
:103E700070E060E008959FEF80EC08959095809544
:103E80007095609550954095309521953F4F4F4FD7
:103E90005F4F6F4F7F4F8F4F9F4F089500240A94BD
:103EA0001616170618060906089500240A94121615
:103EB0001306140605060895092E0394000C11F448
:103EC000882352F0BB0F40F4BF2B11F460FF04C0F5
:103ED0006F5F7F4F8F4F9F4F089557FD9058440F4E
:103EE000551F59F05F3F71F04795880F97FB991F59
:103EF00061F09F3F79F08795089512161306140616
:103F0000551FF2CF4695F1DF08C0161617061806A2
:103F1000991FF1CF86957105610508940895E8947D
:103F2000BB2766277727CB0197F908950E94111FB9
:103F300008F48FEF089516F00C942D210C943B1F7C
:103F400068940C94351F0E94751FA8F39923C1F340
:103F5000AEF3DF93CF931F930F93FF92C92FDD270B
:103F600088232AF02197660F771F881FDAF720E051
:103F700030E040E85FEB9FE3883920F0803E38F086
:103F800021968F770E94771DE8E6F0E004C00E943A
:103F9000771DE5E9F0E00E9442218B01BE01EC01B2
:103FA000FB2E6F5771097595771F880B990B0E942F
:103FB000981E28E132E741E35FE30E94FE1FAF2D28
:103FC0009801AE01FF900F911F91CF91DF910E9458
:103FD0008E1D0C945C1F0E94FE1F0C945C1F0E949F
:103FE0004E1F38F00E94551F20F0952311F00C94BD
:103FF000351F0C943B1F11240C94901F0E946D1FC1
:1040000070F3959FC1F3950F50E0551F629FF0012B
:10401000729FBB27F00DB11D639FAA27F00DB11D44
:10402000AA1F649F6627B00DA11D661F829F2227CD
:10403000B00DA11D621F739FB00DA11D621F839F54
:10404000A00D611D221F749F3327A00D611D231F2A
:10405000849F600D211D822F762F6A2F11249F5778
:1040600050409AF0F1F088234AF0EE0FFF1FBB1F7B
:10407000661F771F881F91505040A9F79E3F51053A
:1040800080F00C94351F0C94901F5F3FE4F3983E32
:10409000D4F3869577956795B795F795E7959F5FE4
:1040A000C1F7FE2B880F911D9695879597F9089576
:1040B000FA01EE0FFF1F309621053105A1F16115C0
:1040C000710561F48038BFE39B0749F1689490382B
:1040D000810561F08038BFEF9B0741F099234AF5D5
:1040E000FF3FE1053105210519F1E8940894E795B2
:1040F000D901AA2329F4AB2FBE2FF85FD0F310C04B
:10410000FF5F70F4A695E0F7F73950F019F0FF3A29
:1041100038F49F779F930DD00F9007FC9058089527
:1041200046F00C943B1F60E070E080E89FE3089548
:104130004FE79F775F934F933F932F930E94A31F67
:104140002F913F914F915F910E94EB1F0C94FB20A8
:1041500019F416F40C943B1F0C942D210E94751F2A
:10416000B8F39923C9F3B6F39F57550B87FF0E9405
:104170003B210024A0E640EA90018058569597958F
:1041800028F4805C660F771F881F20F026173707FA
:10419000480730F4621B730B840B202931294A2B0A
:1041A000A69517940794202531254A2758F7660FBE
:1041B000771F881F20F026173707480730F4620B57
:1041C000730B840B200D311D411DA09581F7B901A2
:1041D000842F9158880F9695879508950E94111FF6
:1041E000880B990B089529F416F00C94351F0C9444
:1041F0008F1F0C943B1F0E94751FA8F39638A0F7E1
:1042000007F80F92E8942BE33AEA48EB5FE70E9445
:1042100001200F920F920F924DB75EB70F920E943E
:10422000AB21E2ECF0E00E9442214F915F91EF91CF
:10423000FF91E595EE1FFF1F49F0FE57E068442708
:10424000EE0F441FFA95E1F74195550B0E94752139
:104250000F9007FE0C94692108959F3F31F0915013
:1042600020F4879577956795B795880F911D96955A
:10427000879597F9089591505040660F771F881FD2
:10428000D2F70895DF93CF931F930F93FF92EF928E
:10429000DF927B018C01689406C0DA2EEF010E9448
:1042A000FE1FFE01E894A591259135914591559108
:1042B000A6F3EF010E948E1DFE019701A801DA947A
:1042C00069F7DF90EF90FF900F911F91CF91DF91F1
:1042D00008959B01AC0160E070E080E89FE30C94DE
:1042E000E81D0C94351F0C942D210E94751FD8F3E6
:1042F0009923C9F3940F511DA3F39150504094F0AA
:1043000059F0882332F0660F771F881F9150504074
:10431000C1F79E3F51052CF7880F911D9695879503
:1043200097F908955F3FACF0983E9CF0BB278695C7
:1043300077956795B79508F4B1609395C1F7BB0F72
:1043400058F711F460FFE8CF6F5F7F4F8F4F9F4F9B
:10435000E3CF0C94901FFA01DC01AA0FBB1F9B0155
:10436000AC01BF5728F4222733274427507820C0B8
:10437000B75190F4AB2F0024469537952795011C33
:10438000A395D2F3002071F0220F331F441FB39581
:10439000DAF30ED00C94761D61307105A0E88A071F
:1043A000B94630F49B01AC016627772788279078BF
:1043B000309621F020833183428353830895DB01BB
:1043C0008F939F930E941122BF91AF91A29F800D66
:1043D000911DA39F900DB29F900D11240895A1E20D
:1043E0001A2EAA1BBB1BFD010DC0AA1FBB1FEE1F6F
:1043F000FF1FA217B307E407F50720F0A21BB30BBA
:10440000E40BF50B661F771F881F991F1A9469F735
:1044100060957095809590959B01AC01BD01CF0191
:1044200008950E94AD23A59F900DB49F900DA49F69
:10443000800D911D11240895B7FF0C9411220E9444
:104440001122821B930B0895DF93CF931F930F9339
:104450009A9DF02D219FF00D8B9DF00D8A9DE02DF2
:10446000F10D039FF00D029FE00DF11D4E9DE00D3B
:10447000F11D5E9DF00D4F9DF00D7F936F93BF92E8
:10448000AF925F934F93D5010E94AD238B01AC0196
:10449000D7010E94AD23EB01E80FF91FD6010E945E
:1044A00073222F913F91D6010E94AD23C60FD71FD3
:1044B000E81FF91FAF91BF910E9473222F913F9186
:1044C0000E94AD23C60FD71FE81FF91FD6010E9417
:1044D000AD23E60FF71F9801BE01CF010F911F9189
:1044E000CF91DF9108950E94AD23460F571FC81F3B
:1044F000D91F08F431960895689401C0E894F92F03
:10450000F12B12F00C94B022A0E0B0E0EAE8F2E265
:104510000C942223092E059422F40E940C231123CB
:1045200092F4F0E80F26FFEFE094F09400951095D8
:10453000B094C094D094A194BF0ACF0ADF0AEF0AC6
:10454000FF0A0F0B1F0B0E94BB2207FC0E940C23CB
:10455000CDB7DEB7ECE00C943E23689401C0E8943C
:104560008F929F92CF93DF930E94BB22DF91CF91D6
:104570009F908F90089588249924F401E401B0E479
:104580009F93AA279A158B049C04ED05FE05CF0581
:10459000D007A10798F4AD2FDC2FCF2FFE2FE92DE8
:1045A000982C892E982F872F762F652F542F432FE5
:1045B000322F2227B85031F7BF9127C01B2EBF9151
:1045C000BB27220F331F441F551F661F771F881FED
:1045D000991F881C991CEE1FFF1FCC1FDD1FAA1FEF
:1045E000BB1F8A149B04EC05FD05CE05DF05A00763
:1045F000B10748F08A189B08EC09FD09CE09DF09CC
:10460000A00BB10B21601A94E1F62EF49401AF01D6
:10461000BE01CD01000C0895609570958095909530
:1046200030954095509521953F4F4F4F5F4F6F4FBD
:104630007F4F8F4F9F4F08952F923F924F925F92DF
:104640006F927F928F929F92AF92BF92CF92DF92A2
:10465000EF92FF920F931F93CF93DF93CDB7DEB707
:10466000CA1BDB0B0FB6F894DEBF0FBECDBF09949B
:104670002A88398848885F846E847D848C849B84F2
:10468000AA84B984C884DF80EE80FD800C811B8100
:10469000AA81B981CE0FD11D0FB6F894DEBF0FBE2F
:1046A000CDBFED010895002E083090F0982F872F90
:1046B000762F652F542F432F322F22270850F4CF07
:1046C000220F331F441F551F661F771F881F991F16
:1046D0000A95B2F7002D089597FD1094002E08302A
:1046E00098F00850232F342F452F562F672F782FFF
:1046F000892F912DF4CF1594979587957795679588
:1047000057954795379527950A95AAF71124002DB7
:1047100008952A0D3B1D4C1D5D1D6E1D7F1D801FC4
:10472000911F08952A193B094C095D096E097F09FB
:10473000800B910B08950024A7FD00942A173005E3
:104740004005500560057005800590050895EE0F41
:10475000FF1F0590F491E02D0994A29FB001B39F33
:10476000C001A39F700D811D1124911DB29F700D7A
:10477000811D1124911D08950F931F93CF93DF93F3
:104780008230910510F482E090E0E0914405F091D0
:10479000450530E020E0B0E0A0E0309799F4211525
:1047A000310509F44AC0281B390B24303105D8F5EE
:1047B0008A819B816115710589F1FB019383828355
:1047C000FE0111C0408151810281138148175907B0
:1047D000E0F04817590799F4109761F012960C937E
:1047E000129713961C933296CF01DF91CF911F91B0
:1047F0000F9108950093440510934505F4CF2115BA
:10480000310551F04217530738F0A901DB019A0135
:10481000BD01DF01F801C1CFEF01F9CF909345054C
:1048200080934405CDCFFE01E20FF31F8193919356
:104830002250310939832883D7CF20914205309106
:104840004305232B41F420910A0130910B01309351
:10485000430520934205209108013091090121155B
:10486000310541F42DB73EB740910C0150910D0137
:10487000241B350BE0914205F0914305E217F30745
:10488000A0F42E1B3F0B2817390778F0AC014E5FC0
:104890005F4F2417350748F04E0F5F1F50934305B5
:1048A00040934205819391939FCFF0E0E0E09CCF4D
:1048B000CF93DF930097E9F0FC01329713821282C5
:1048C000A0914405B0914505ED0130E020E010973E
:1048D000A1F420813181820F931F209142053091F4
:1048E00043052817390709F061C0F0934305E093A9
:1048F0004205DF91CF910895EA01CE17DF07E8F571
:104900004A815B819E0141155105B1F7E901FB83A5
:10491000EA8349915991C40FD51FEC17FD0761F443
:10492000808191810296840F951FE9019983888384
:10493000828193819B838A83F0E0E0E012968D91DF
:104940009C9113970097B9F52D913C911197CD014A
:104950000296820F931F209142053091430528173C
:10496000390739F6309751F51092450510924405F4
:10497000B0934305A0934205BCCFD383C28340814B
:104980005181840F951FC817D90761F44E5F5F4F9F
:1049900088819981480F591F518340838A819B8167
:1049A000938382832115310509F0B0CFF09345053B
:1049B000E09344059ECFFD01DC01C0CF138212823B
:1049C000D7CF11E0CDEDD1E004C0FE010E94A723B6
:0C49D0002196CE3DD107C9F7F894FFCF27
:1049DC00323130342E30370000004605800000C0E4
:1049EC00C101C30302C2C60607C705C5C404CC0C6B
:1049FC000DCD0FCFCE0E0ACACB0BC90908C8D818DB
:104A0C0019D91BDBDA1A1EDEDF1FDD1D1CDC14D4EA
:104A1C00D515D71716D6D21213D311D1D010F0301A
:104A2C0031F133F3F23236F6F737F53534F43CFC2A
:104A3C00FD3DFF3F3EFEFA3A3BFB39F9F83828E8DA
:104A4C00E929EB2B2AEAEE2E2FEF2DEDEC2CE424AA
:104A5C0025E527E7E62622E2E323E12120E0A0601A
:104A6C0061A163A3A26266A6A767A56564A46CACEA
:104A7C00AD6DAF6F6EAEAA6A6BAB69A9A86878B85A
:104A8C00B979BB7B7ABABE7E7FBF7DBDBC7CB4746A
:104A9C0075B577B7B67672B2B373B17170B050901A
:104AAC0091519353529296565797559594549C5CAA
:104ABC005D9D5F9F9E5E5A9A9B5B9959589888485A
:104ACC0049894B8B8A4A4E8E8F4F8D4D4C8C44842A
:104ADC00854587474686824243834181804000C199
:104AEC00814001C0804101C0804100C1814001C0B2
:104AFC00804100C1814000C1814001C0804101C0A2
:104B0C00804100C1814000C1814001C0804100C191
:104B1C00814001C0804101C0804100C1814001C081
:104B2C00804100C1814000C1814001C0804100C171
:104B3C00814001C0804101C0804100C1814000C161
:104B4C00814001C0804101C0804100C1814001C051
:104B5C00804100C1814000C1814001C0804101C041
:104B6C00804100C1814000C1814001C0804100C131
:104B7C00814001C0804101C0804100C1814000C121
:104B8C00814001C0804101C0804100C1814001C011
:104B9C00804100C1814000C1814001C0804100C101
:104BAC00814001C0804101C0804100C1814001C0F1
:104BBC00804100C1814000C1814001C0804101C0E1
:104BCC00804100C1814000C1814001C0804100C1D1
:104BDC00814001C0804101C0804100C18140000082
:104BEC0000004503A302D202AD030303E102F50268
:104BFC0000000000C206950691086B068E067B0627
:104C0C006C060D0A006E616E00696E66006F76664A
:024C1C00000096
:107E0000112484B714BE81FFF0D085E080938100F7
:107E100082E08093C00088E18093C10086E0809377
:107E2000C20080E18093C4008EE0C9D0259A86E02C
:107E300020E33CEF91E0309385002093840096BBD3
:107E4000B09BFECF1D9AA8958150A9F7CC24DD24C4
:107E500088248394B5E0AB2EA1E19A2EF3E0BF2EE7
:107E6000A2D0813461F49FD0082FAFD0023811F036
:107E7000013811F484E001C083E08DD089C08234E0
:107E800011F484E103C0853419F485E0A6D080C0E4
:107E9000853579F488D0E82EFF2485D0082F10E0AE
:107EA000102F00270E291F29000F111F8ED06801E7
:107EB0006FC0863521F484E090D080E0DECF843638
:107EC00009F040C070D06FD0082F6DD080E0C81688
:107ED00080E7D80618F4F601B7BEE895C0E0D1E017
:107EE00062D089930C17E1F7F0E0CF16F0E7DF06D8
:107EF00018F0F601B7BEE89568D007B600FCFDCFD4
:107F0000A601A0E0B1E02C9130E011968C91119780
:107F100090E0982F8827822B932B1296FA010C0160
:107F200087BEE89511244E5F5F4FF1E0A038BF0790
:107F300051F7F601A7BEE89507B600FCFDCF97BE46
:107F4000E89526C08437B1F42ED02DD0F82E2BD052
:107F50003CD0F601EF2C8F010F5F1F4F84911BD097
:107F6000EA94F801C1F70894C11CD11CFA94CF0C13
:107F7000D11C0EC0853739F428D08EE10CD085E9AC
:107F80000AD08FE07ACF813511F488E018D01DD067
:107F900080E101D065CF982F8091C00085FFFCCF94
:107FA0009093C60008958091C00087FFFCCF809118
:107FB000C00084FD01C0A8958091C6000895E0E648
:107FC000F0E098E1908380830895EDDF803219F02E
:107FD00088E0F5DFFFCF84E1DECF1F93182FE3DFCA
:107FE0001150E9F7F2DF1F91089580E0E8DFEE27F6
:047FF000FF270994CA
:027FFE00040479
:0400000300007E007B
:00000001FF